{
  "address": "0x5FbDB2315678afecb367f032d93F642f64180aa3",
  "abi": [
    {
      "inputs": [
        {
          "internalType": "string",
          "name": "_title",
          "type": "string"
        },
        {
          "internalType": "string",
          "name": "cid",
          "type": "string"
        }
      ],
      "name": "addPaper",
      "outputs": [],
      "stateMutability": "nonpayable",
      "type": "function"
    },
    {
      "inputs": [],
      "name": "getTime",
      "outputs": [
        {
          "internalType": "uint256",
          "name": "",
          "type": "uint256"
        }
      ],
      "stateMutability": "view",
      "type": "function"
    },
    {
      "inputs": [
        {
          "internalType": "string",
          "name": "theName",
          "type": "string"
        }
      ],
      "name": "newResearcher",
      "outputs": [],
      "stateMutability": "nonpayable",
      "type": "function"
    },
    {
      "inputs": [],
      "name": "viewOnesPapers",
      "outputs": [
        {
          "internalType": "string[]",
          "name": "",
          "type": "string[]"
        }
      ],
      "stateMutability": "view",
      "type": "function"
    },
    {
      "inputs": [],
      "name": "viewResearcher",
      "outputs": [
        {
          "components": [
            {
              "internalType": "string",
              "name": "name",
              "type": "string"
            },
            {
              "internalType": "uint256",
              "name": "joinDate",
              "type": "uint256"
            },
            {
              "internalType": "string[]",
              "name": "paperCidArray",
              "type": "string[]"
            }
          ],
          "internalType": "struct Research.Researcher",
          "name": "",
          "type": "tuple"
        }
      ],
      "stateMutability": "view",
      "type": "function"
    }
  ],
  "transactionHash": "0x46fee7f12da08b80187e35fe2c47f0381c3c66166c5fed14ef354641f75c2c85",
  "args": [],
  "numDeployments": 1,
  "solcInputHash": "adbb453eaf619cb21f281e3c7324de0d",
  "bytecode": "0x608060405234801561001057600080fd5b50610e20806100206000396000f3fe608060405234801561001057600080fd5b50600436106100575760003560e01c806304c6630f1461005c57806305fe15e21461007a578063557ed1ba146100985780639314b9af146100b6578063c12f67a2146100d2575b600080fd5b6100646100ee565b604051610071919061074b565b60405180910390f35b610082610206565b60405161008f9190610863565b60405180910390f35b6100a06103d1565b6040516100ad9190610894565b60405180910390f35b6100d060048036038101906100cb91906109f8565b6103d9565b005b6100ec60048036038101906100e79190610a70565b61052c565b005b60606000803373ffffffffffffffffffffffffffffffffffffffff1673ffffffffffffffffffffffffffffffffffffffff168152602001908152602001600020600201805480602002602001604051908101604052809291908181526020016000905b828210156101fd57838290600052602060002001805461017090610ae8565b80601f016020809104026020016040519081016040528092919081815260200182805461019c90610ae8565b80156101e95780601f106101be576101008083540402835291602001916101e9565b820191906000526020600020905b8154815290600101906020018083116101cc57829003601f168201915b505050505081526020019060010190610151565b50505050905090565b61020e6105d8565b6000803373ffffffffffffffffffffffffffffffffffffffff1673ffffffffffffffffffffffffffffffffffffffff16815260200190815260200160002060405180606001604052908160008201805461026790610ae8565b80601f016020809104026020016040519081016040528092919081815260200182805461029390610ae8565b80156102e05780601f106102b5576101008083540402835291602001916102e0565b820191906000526020600020905b8154815290600101906020018083116102c357829003601f168201915b505050505081526020016001820154815260200160028201805480602002602001604051908101604052809291908181526020016000905b828210156103c457838290600052602060002001805461033790610ae8565b80601f016020809104026020016040519081016040528092919081815260200182805461036390610ae8565b80156103b05780601f10610385576101008083540402835291602001916103b0565b820191906000526020600020905b81548152906001019060200180831161039357829003601f168201915b505050505081526020019060010190610318565b5050505081525050905090565b600042905090565b600060405180608001604052803373ffffffffffffffffffffffffffffffffffffffff1681526020018481526020014281526020018381525090506000803373ffffffffffffffffffffffffffffffffffffffff1673ffffffffffffffffffffffffffffffffffffffff168152602001908152602001600020600201829080600181540180825580915050600190039060005260206000200160009091909190915090816104879190610cc5565b50806001836040516104999190610dd3565b908152602001604051809103902060008201518160000160006101000a81548173ffffffffffffffffffffffffffffffffffffffff021916908373ffffffffffffffffffffffffffffffffffffffff16021790555060208201518160010190816105039190610cc5565b506040820151816002015560608201518160030190816105239190610cc5565b50905050505050565b6000819050600081511161053f57600080fd5b816000803373ffffffffffffffffffffffffffffffffffffffff1673ffffffffffffffffffffffffffffffffffffffff168152602001908152602001600020600001908161058d9190610cc5565b50426000803373ffffffffffffffffffffffffffffffffffffffff1673ffffffffffffffffffffffffffffffffffffffff168152602001908152602001600020600101819055505050565b60405180606001604052806060815260200160008152602001606081525090565b600081519050919050565b600082825260208201905092915050565b6000819050602082019050919050565b600081519050919050565b600082825260208201905092915050565b60005b8381101561065f578082015181840152602081019050610644565b60008484015250505050565b6000601f19601f8301169050919050565b600061068782610625565b6106918185610630565b93506106a1818560208601610641565b6106aa8161066b565b840191505092915050565b60006106c1838361067c565b905092915050565b6000602082019050919050565b60006106e1826105f9565b6106eb8185610604565b9350836020820285016106fd85610615565b8060005b85811015610739578484038952815161071a85826106b5565b9450610725836106c9565b925060208a01995050600181019050610701565b50829750879550505050505092915050565b6000602082019050818103600083015261076581846106d6565b905092915050565b6000819050919050565b6107808161076d565b82525050565b600082825260208201905092915050565b60006107a2826105f9565b6107ac8185610786565b9350836020820285016107be85610615565b8060005b858110156107fa57848403895281516107db85826106b5565b94506107e6836106c9565b925060208a019950506001810190506107c2565b50829750879550505050505092915050565b60006060830160008301518482036000860152610829828261067c565b915050602083015161083e6020860182610777565b50604083015184820360408601526108568282610797565b9150508091505092915050565b6000602082019050818103600083015261087d818461080c565b905092915050565b61088e8161076d565b82525050565b60006020820190506108a96000830184610885565b92915050565b6000604051905090565b600080fd5b600080fd5b600080fd5b600080fd5b7f4e487b7100000000000000000000000000000000000000000000000000000000600052604160045260246000fd5b6109058261066b565b810181811067ffffffffffffffff82111715610924576109236108cd565b5b80604052505050565b60006109376108af565b905061094382826108fc565b919050565b600067ffffffffffffffff821115610963576109626108cd565b5b61096c8261066b565b9050602081019050919050565b82818337600083830152505050565b600061099b61099684610948565b61092d565b9050828152602081018484840111156109b7576109b66108c8565b5b6109c2848285610979565b509392505050565b600082601f8301126109df576109de6108c3565b5b81356109ef848260208601610988565b91505092915050565b60008060408385031215610a0f57610a0e6108b9565b5b600083013567ffffffffffffffff811115610a2d57610a2c6108be565b5b610a39858286016109ca565b925050602083013567ffffffffffffffff811115610a5a57610a596108be565b5b610a66858286016109ca565b9150509250929050565b600060208284031215610a8657610a856108b9565b5b600082013567ffffffffffffffff811115610aa457610aa36108be565b5b610ab0848285016109ca565b91505092915050565b7f4e487b7100000000000000000000000000000000000000000000000000000000600052602260045260246000fd5b60006002820490506001821680610b0057607f821691505b602082108103610b1357610b12610ab9565b5b50919050565b60008190508160005260206000209050919050565b60006020601f8301049050919050565b600082821b905092915050565b600060088302610b7b7fffffffffffffffffffffffffffffffffffffffffffffffffffffffffffffffff82610b3e565b610b858683610b3e565b95508019841693508086168417925050509392505050565b6000819050919050565b6000610bc2610bbd610bb88461076d565b610b9d565b61076d565b9050919050565b6000819050919050565b610bdc83610ba7565b610bf0610be882610bc9565b848454610b4b565b825550505050565b600090565b610c05610bf8565b610c10818484610bd3565b505050565b5b81811015610c3457610c29600082610bfd565b600181019050610c16565b5050565b601f821115610c7957610c4a81610b19565b610c5384610b2e565b81016020851015610c62578190505b610c76610c6e85610b2e565b830182610c15565b50505b505050565b600082821c905092915050565b6000610c9c60001984600802610c7e565b1980831691505092915050565b6000610cb58383610c8b565b9150826002028217905092915050565b610cce82610625565b67ffffffffffffffff811115610ce757610ce66108cd565b5b610cf18254610ae8565b610cfc828285610c38565b600060209050601f831160018114610d2f5760008415610d1d578287015190505b610d278582610ca9565b865550610d8f565b601f198416610d3d86610b19565b60005b82811015610d6557848901518255600182019150602085019450602081019050610d40565b86831015610d825784890151610d7e601f891682610c8b565b8355505b6001600288020188555050505b505050505050565b600081905092915050565b6000610dad82610625565b610db78185610d97565b9350610dc7818560208601610641565b80840191505092915050565b6000610ddf8284610da2565b91508190509291505056fea26469706673582212208587d96814b65b12a6938cca9befe5a074c1cd491c2b7b94a0c13178037dd01364736f6c63430008120033",
  "devdoc": {
    "kind": "dev",
    "methods": {},
    "version": 1
  },
  "userdoc": {
    "kind": "user",
    "methods": {},
    "version": 1
  },
  "storageLayout": {
    "storage": [
      {
        "astId": 23,
        "contract": "contracts/Research.sol:Research",
        "label": "profileMapping",
        "offset": 0,
        "slot": "0",
        "type": "t_mapping(t_address,t_struct(Researcher)9_storage)"
      },
      {
        "astId": 28,
        "contract": "contracts/Research.sol:Research",
        "label": "paperMapping",
        "offset": 0,
        "slot": "1",
        "type": "t_mapping(t_string_memory_ptr,t_struct(ResearchPaper)18_storage)"
      }
    ],
    "types": {
      "t_address": {
        "encoding": "inplace",
        "label": "address",
        "numberOfBytes": "20"
      },
      "t_array(t_string_storage)dyn_storage": {
        "base": "t_string_storage",
        "encoding": "dynamic_array",
        "label": "string[]",
        "numberOfBytes": "32"
      },
      "t_mapping(t_address,t_struct(Researcher)9_storage)": {
        "encoding": "mapping",
        "key": "t_address",
        "label": "mapping(address => struct Research.Researcher)",
        "numberOfBytes": "32",
        "value": "t_struct(Researcher)9_storage"
      },
      "t_mapping(t_string_memory_ptr,t_struct(ResearchPaper)18_storage)": {
        "encoding": "mapping",
        "key": "t_string_memory_ptr",
        "label": "mapping(string => struct Research.ResearchPaper)",
        "numberOfBytes": "32",
        "value": "t_struct(ResearchPaper)18_storage"
      },
      "t_string_memory_ptr": {
        "encoding": "bytes",
        "label": "string",
        "numberOfBytes": "32"
      },
      "t_string_storage": {
        "encoding": "bytes",
        "label": "string",
        "numberOfBytes": "32"
      },
      "t_struct(ResearchPaper)18_storage": {
        "encoding": "inplace",
        "label": "struct Research.ResearchPaper",
        "members": [
          {
            "astId": 11,
            "contract": "contracts/Research.sol:Research",
            "label": "theAddress",
            "offset": 0,
            "slot": "0",
            "type": "t_address"
          },
          {
            "astId": 13,
            "contract": "contracts/Research.sol:Research",
            "label": "title",
            "offset": 0,
            "slot": "1",
            "type": "t_string_storage"
          },
          {
            "astId": 15,
            "contract": "contracts/Research.sol:Research",
            "label": "uploadDate",
            "offset": 0,
            "slot": "2",
            "type": "t_uint256"
          },
          {
            "astId": 17,
            "contract": "contracts/Research.sol:Research",
            "label": "paperCid",
            "offset": 0,
            "slot": "3",
            "type": "t_string_storage"
          }
        ],
        "numberOfBytes": "128"
      },
      "t_struct(Researcher)9_storage": {
        "encoding": "inplace",
        "label": "struct Research.Researcher",
        "members": [
          {
            "astId": 3,
            "contract": "contracts/Research.sol:Research",
            "label": "name",
            "offset": 0,
            "slot": "0",
            "type": "t_string_storage"
          },
          {
            "astId": 5,
            "contract": "contracts/Research.sol:Research",
            "label": "joinDate",
            "offset": 0,
            "slot": "1",
            "type": "t_uint256"
          },
          {
            "astId": 8,
            "contract": "contracts/Research.sol:Research",
            "label": "paperCidArray",
            "offset": 0,
            "slot": "2",
            "type": "t_array(t_string_storage)dyn_storage"
          }
        ],
        "numberOfBytes": "96"
      },
      "t_uint256": {
        "encoding": "inplace",
        "label": "uint256",
        "numberOfBytes": "32"
      }
    }
  }
}