{
  "address": "0x54BdA3c35A4E880eA0B7cBB15D4b52D02F2f4395",
  "abi": [
    {
      "inputs": [],
      "stateMutability": "nonpayable",
      "type": "constructor"
    },
    {
      "inputs": [],
      "name": "Incorrect__EthAmount",
      "type": "error"
    },
    {
      "anonymous": false,
      "inputs": [
        {
          "indexed": true,
          "internalType": "address",
          "name": "theAddress",
          "type": "address"
        },
        {
          "indexed": false,
          "internalType": "string",
          "name": "bookCid",
          "type": "string"
        }
      ],
      "name": "BookUploaded",
      "type": "event"
    },
    {
      "anonymous": false,
      "inputs": [
        {
          "indexed": true,
          "internalType": "address",
          "name": "theAddress",
          "type": "address"
        },
        {
          "indexed": false,
          "internalType": "string",
          "name": "theName",
          "type": "string"
        }
      ],
      "name": "ProfileCreated",
      "type": "event"
    },
    {
      "stateMutability": "payable",
      "type": "fallback"
    },
    {
      "inputs": [
        {
          "internalType": "string",
          "name": "_title",
          "type": "string"
        },
        {
          "internalType": "string",
          "name": "cid",
          "type": "string"
        },
        {
          "internalType": "string",
          "name": "cover",
          "type": "string"
        },
        {
          "internalType": "uint256",
          "name": "thePrice",
          "type": "uint256"
        },
        {
          "internalType": "string",
          "name": "theDescription",
          "type": "string"
        }
      ],
      "name": "addBook",
      "outputs": [],
      "stateMutability": "nonpayable",
      "type": "function"
    },
    {
      "inputs": [
        {
          "internalType": "string",
          "name": "theCid",
          "type": "string"
        },
        {
          "internalType": "uint256",
          "name": "cost",
          "type": "uint256"
        }
      ],
      "name": "buyBook",
      "outputs": [
        {
          "internalType": "string",
          "name": "cidLelo",
          "type": "string"
        }
      ],
      "stateMutability": "payable",
      "type": "function"
    },
    {
      "inputs": [
        {
          "internalType": "uint256",
          "name": "somevalue",
          "type": "uint256"
        }
      ],
      "name": "ethPriceReturner",
      "outputs": [
        {
          "internalType": "uint256",
          "name": "",
          "type": "uint256"
        }
      ],
      "stateMutability": "view",
      "type": "function"
    },
    {
      "inputs": [],
      "name": "getPriceFeed",
      "outputs": [
        {
          "internalType": "contract AggregatorV3Interface",
          "name": "",
          "type": "address"
        }
      ],
      "stateMutability": "view",
      "type": "function"
    },
    {
      "inputs": [],
      "name": "getTime",
      "outputs": [
        {
          "internalType": "uint256",
          "name": "",
          "type": "uint256"
        }
      ],
      "stateMutability": "view",
      "type": "function"
    },
    {
      "inputs": [
        {
          "internalType": "string",
          "name": "theName",
          "type": "string"
        }
      ],
      "name": "newAuthor",
      "outputs": [],
      "stateMutability": "nonpayable",
      "type": "function"
    },
    {
      "inputs": [],
      "name": "viewAllCids",
      "outputs": [
        {
          "internalType": "string[]",
          "name": "",
          "type": "string[]"
        }
      ],
      "stateMutability": "view",
      "type": "function"
    },
    {
      "inputs": [
        {
          "internalType": "address",
          "name": "theAddress",
          "type": "address"
        }
      ],
      "name": "viewAuthor",
      "outputs": [
        {
          "components": [
            {
              "internalType": "string",
              "name": "name",
              "type": "string"
            },
            {
              "internalType": "uint256",
              "name": "joinDate",
              "type": "uint256"
            },
            {
              "internalType": "string[]",
              "name": "bookCidArray",
              "type": "string[]"
            }
          ],
          "internalType": "struct Library.Author",
          "name": "",
          "type": "tuple"
        }
      ],
      "stateMutability": "view",
      "type": "function"
    },
    {
      "inputs": [
        {
          "internalType": "address",
          "name": "theAddress",
          "type": "address"
        }
      ],
      "name": "viewAuthorBooks",
      "outputs": [
        {
          "internalType": "string[]",
          "name": "",
          "type": "string[]"
        }
      ],
      "stateMutability": "view",
      "type": "function"
    },
    {
      "inputs": [
        {
          "internalType": "string",
          "name": "cid",
          "type": "string"
        }
      ],
      "name": "viewBook",
      "outputs": [
        {
          "components": [
            {
              "internalType": "address",
              "name": "theAddress",
              "type": "address"
            },
            {
              "internalType": "string",
              "name": "title",
              "type": "string"
            },
            {
              "internalType": "string",
              "name": "description",
              "type": "string"
            },
            {
              "internalType": "uint256",
              "name": "uploadDate",
              "type": "uint256"
            },
            {
              "internalType": "string",
              "name": "bookCid",
              "type": "string"
            },
            {
              "internalType": "string",
              "name": "coverCid",
              "type": "string"
            },
            {
              "internalType": "uint256",
              "name": "priceInEth",
              "type": "uint256"
            }
          ],
          "internalType": "struct Library.Book",
          "name": "",
          "type": "tuple"
        }
      ],
      "stateMutability": "view",
      "type": "function"
    },
    {
      "stateMutability": "payable",
      "type": "receive"
    }
  ],
  "transactionHash": "0xc6886d8e75c205a56ddf44f8de45358259e8a509e45812f0f95026ddcb44a490",
  "args": [],
  "numDeployments": 4,
  "solcInputHash": "39622ab425258ac465ac83f4631620e5",
  "bytecode": "0x608060405234801561001057600080fd5b5073d4a33860578de61dbabdc8bfdb98fd742fa7028e6000806101000a81548173ffffffffffffffffffffffffffffffffffffffff021916908373ffffffffffffffffffffffffffffffffffffffff160217905550611d16806100746000396000f3fe6080604052600436106100955760003560e01c806375735f6a1161005957806375735f6a1461019c57806386e57517146101d95780639e87a5cd14610204578063c00ec7f91461022f578063f68baded1461026c5761009c565b80630e05cdbf1461009e578063557ed1ba146100ce578063563f744d146100f95780636d868042146101365780636ee661a31461015f5761009c565b3661009c57005b005b6100b860048036038101906100b39190611083565b610295565b6040516100c5919061115e565b60405180910390f35b3480156100da57600080fd5b506100e36103ce565b6040516100f0919061118f565b60405180910390f35b34801561010557600080fd5b50610120600480360381019061011b9190611208565b6103d6565b60405161012d91906113a7565b60405180910390f35b34801561014257600080fd5b5061015d600480360381019061015891906113c9565b6105a4565b005b34801561016b57600080fd5b5061018660048036038101906101819190611412565b61063e565b604051610193919061118f565b60405180910390f35b3480156101a857600080fd5b506101c360048036038101906101be91906113c9565b61067a565b6040516101d091906114ff565b60405180910390f35b3480156101e557600080fd5b506101ee610964565b6040516101fb91906115a7565b60405180910390f35b34801561021057600080fd5b50610219610a3d565b6040516102269190611628565b60405180910390f35b34801561023b57600080fd5b5061025660048036038101906102519190611208565b610a66565b60405161026391906115a7565b60405180910390f35b34801561027857600080fd5b50610293600480360381019061028e9190611643565b610b81565b005b606060006003846040516102a9919061176a565b908152602001604051809103902060000160009054906101000a900473ffffffffffffffffffffffffffffffffffffffff16905082341015610317576040517f213529b100000000000000000000000000000000000000000000000000000000815260040160405180910390fd5b60008173ffffffffffffffffffffffffffffffffffffffff168460405161033d906117b2565b60006040518083038185875af1925050503d806000811461037a576040519150601f19603f3d011682016040523d82523d6000602084013e61037f565b606091505b50509050806103c3576040517f08c379a00000000000000000000000000000000000000000000000000000000081526004016103ba90611813565b60405180910390fd5b849250505092915050565b600042905090565b6103de610e7f565b600260008373ffffffffffffffffffffffffffffffffffffffff1673ffffffffffffffffffffffffffffffffffffffff16815260200190815260200160002060405180606001604052908160008201805461043890611862565b80601f016020809104026020016040519081016040528092919081815260200182805461046490611862565b80156104b15780601f10610486576101008083540402835291602001916104b1565b820191906000526020600020905b81548152906001019060200180831161049457829003601f168201915b505050505081526020016001820154815260200160028201805480602002602001604051908101604052809291908181526020016000905b8282101561059557838290600052602060002001805461050890611862565b80601f016020809104026020016040519081016040528092919081815260200182805461053490611862565b80156105815780601f1061055657610100808354040283529160200191610581565b820191906000526020600020905b81548152906001019060200180831161056457829003601f168201915b5050505050815260200190600101906104e9565b50505050815250509050919050565b80600260003373ffffffffffffffffffffffffffffffffffffffff1673ffffffffffffffffffffffffffffffffffffffff16815260200190815260200160002060000190816105f39190611a35565b5042600260003373ffffffffffffffffffffffffffffffffffffffff1673ffffffffffffffffffffffffffffffffffffffff1681526020019081526020016000206001018190555050565b600061067360008054906101000a900473ffffffffffffffffffffffffffffffffffffffff1683610d8d90919063ffffffff16565b9050919050565b610682610ea0565b600382604051610692919061176a565b90815260200160405180910390206040518060e00160405290816000820160009054906101000a900473ffffffffffffffffffffffffffffffffffffffff1673ffffffffffffffffffffffffffffffffffffffff1673ffffffffffffffffffffffffffffffffffffffff16815260200160018201805461071190611862565b80601f016020809104026020016040519081016040528092919081815260200182805461073d90611862565b801561078a5780601f1061075f5761010080835404028352916020019161078a565b820191906000526020600020905b81548152906001019060200180831161076d57829003601f168201915b505050505081526020016002820180546107a390611862565b80601f01602080910402602001604051908101604052809291908181526020018280546107cf90611862565b801561081c5780601f106107f15761010080835404028352916020019161081c565b820191906000526020600020905b8154815290600101906020018083116107ff57829003601f168201915b505050505081526020016003820154815260200160048201805461083f90611862565b80601f016020809104026020016040519081016040528092919081815260200182805461086b90611862565b80156108b85780601f1061088d576101008083540402835291602001916108b8565b820191906000526020600020905b81548152906001019060200180831161089b57829003601f168201915b505050505081526020016005820180546108d190611862565b80601f01602080910402602001604051908101604052809291908181526020018280546108fd90611862565b801561094a5780601f1061091f5761010080835404028352916020019161094a565b820191906000526020600020905b81548152906001019060200180831161092d57829003601f168201915b505050505081526020016006820154815250509050919050565b60606001805480602002602001604051908101604052809291908181526020016000905b82821015610a345783829060005260206000200180546109a790611862565b80601f01602080910402602001604051908101604052809291908181526020018280546109d390611862565b8015610a205780601f106109f557610100808354040283529160200191610a20565b820191906000526020600020905b815481529060010190602001808311610a0357829003601f168201915b505050505081526020019060010190610988565b50505050905090565b60008060009054906101000a900473ffffffffffffffffffffffffffffffffffffffff16905090565b6060600260008373ffffffffffffffffffffffffffffffffffffffff1673ffffffffffffffffffffffffffffffffffffffff168152602001908152602001600020600201805480602002602001604051908101604052809291908181526020016000905b82821015610b76578382906000526020600020018054610ae990611862565b80601f0160208091040260200160405190810160405280929190818152602001828054610b1590611862565b8015610b625780601f10610b3757610100808354040283529160200191610b62565b820191906000526020600020905b815481529060010190602001808311610b4557829003601f168201915b505050505081526020019060010190610aca565b505050509050919050565b6000610bb660008054906101000a900473ffffffffffffffffffffffffffffffffffffffff1684610d8d90919063ffffffff16565b905060006040518060e001604052803373ffffffffffffffffffffffffffffffffffffffff168152602001888152602001848152602001428152602001878152602001868152602001838152509050600260003373ffffffffffffffffffffffffffffffffffffffff1673ffffffffffffffffffffffffffffffffffffffff16815260200190815260200160002060020186908060018154018082558091505060019003906000526020600020016000909190919091509081610c799190611a35565b5080600387604051610c8b919061176a565b908152602001604051809103902060008201518160000160006101000a81548173ffffffffffffffffffffffffffffffffffffffff021916908373ffffffffffffffffffffffffffffffffffffffff1602179055506020820151816001019081610cf59190611a35565b506040820151816002019081610d0b9190611a35565b50606082015181600301556080820151816004019081610d2b9190611a35565b5060a0820151816005019081610d419190611a35565b5060c08201518160060155905050600186908060018154018082558091505060019003906000526020600020016000909190919091509081610d839190611a35565b5050505050505050565b600080610d9983610db6565b905060008482610da99190611b36565b9050809250505092915050565b6000808273ffffffffffffffffffffffffffffffffffffffff1663feaf968c6040518163ffffffff1660e01b815260040160a060405180830381865afa158015610e04573d6000803e3d6000fd5b505050506040513d601f19601f82011682018060405250810190610e289190611c05565b50505091505060006402540be40082610e419190611b36565b90506000670de0b6b3a76400009050600082670de0b6b3a764000083610e679190611b36565b610e719190611caf565b905080945050505050919050565b60405180606001604052806060815260200160008152602001606081525090565b6040518060e00160405280600073ffffffffffffffffffffffffffffffffffffffff1681526020016060815260200160608152602001600081526020016060815260200160608152602001600081525090565b6000604051905090565b600080fd5b600080fd5b600080fd5b600080fd5b6000601f19601f8301169050919050565b7f4e487b7100000000000000000000000000000000000000000000000000000000600052604160045260246000fd5b610f5a82610f11565b810181811067ffffffffffffffff82111715610f7957610f78610f22565b5b80604052505050565b6000610f8c610ef3565b9050610f988282610f51565b919050565b600067ffffffffffffffff821115610fb857610fb7610f22565b5b610fc182610f11565b9050602081019050919050565b82818337600083830152505050565b6000610ff0610feb84610f9d565b610f82565b90508281526020810184848401111561100c5761100b610f0c565b5b611017848285610fce565b509392505050565b600082601f83011261103457611033610f07565b5b8135611044848260208601610fdd565b91505092915050565b6000819050919050565b6110608161104d565b811461106b57600080fd5b50565b60008135905061107d81611057565b92915050565b6000806040838503121561109a57611099610efd565b5b600083013567ffffffffffffffff8111156110b8576110b7610f02565b5b6110c48582860161101f565b92505060206110d58582860161106e565b9150509250929050565b600081519050919050565b600082825260208201905092915050565b60005b838110156111195780820151818401526020810190506110fe565b60008484015250505050565b6000611130826110df565b61113a81856110ea565b935061114a8185602086016110fb565b61115381610f11565b840191505092915050565b600060208201905081810360008301526111788184611125565b905092915050565b6111898161104d565b82525050565b60006020820190506111a46000830184611180565b92915050565b600073ffffffffffffffffffffffffffffffffffffffff82169050919050565b60006111d5826111aa565b9050919050565b6111e5816111ca565b81146111f057600080fd5b50565b600081359050611202816111dc565b92915050565b60006020828403121561121e5761121d610efd565b5b600061122c848285016111f3565b91505092915050565b600082825260208201905092915050565b6000611251826110df565b61125b8185611235565b935061126b8185602086016110fb565b61127481610f11565b840191505092915050565b6112888161104d565b82525050565b600081519050919050565b600082825260208201905092915050565b6000819050602082019050919050565b60006112c68383611246565b905092915050565b6000602082019050919050565b60006112e68261128e565b6112f08185611299565b935083602082028501611302856112aa565b8060005b8581101561133e578484038952815161131f85826112ba565b945061132a836112ce565b925060208a01995050600181019050611306565b50829750879550505050505092915050565b6000606083016000830151848203600086015261136d8282611246565b9150506020830151611382602086018261127f565b506040830151848203604086015261139a82826112db565b9150508091505092915050565b600060208201905081810360008301526113c18184611350565b905092915050565b6000602082840312156113df576113de610efd565b5b600082013567ffffffffffffffff8111156113fd576113fc610f02565b5b6114098482850161101f565b91505092915050565b60006020828403121561142857611427610efd565b5b60006114368482850161106e565b91505092915050565b611448816111ca565b82525050565b600060e083016000830151611466600086018261143f565b506020830151848203602086015261147e8282611246565b915050604083015184820360408601526114988282611246565b91505060608301516114ad606086018261127f565b50608083015184820360808601526114c58282611246565b91505060a083015184820360a08601526114df8282611246565b91505060c08301516114f460c086018261127f565b508091505092915050565b60006020820190508181036000830152611519818461144e565b905092915050565b600082825260208201905092915050565b600061153d8261128e565b6115478185611521565b935083602082028501611559856112aa565b8060005b85811015611595578484038952815161157685826112ba565b9450611581836112ce565b925060208a0199505060018101905061155d565b50829750879550505050505092915050565b600060208201905081810360008301526115c18184611532565b905092915050565b6000819050919050565b60006115ee6115e96115e4846111aa565b6115c9565b6111aa565b9050919050565b6000611600826115d3565b9050919050565b6000611612826115f5565b9050919050565b61162281611607565b82525050565b600060208201905061163d6000830184611619565b92915050565b600080600080600060a0868803121561165f5761165e610efd565b5b600086013567ffffffffffffffff81111561167d5761167c610f02565b5b6116898882890161101f565b955050602086013567ffffffffffffffff8111156116aa576116a9610f02565b5b6116b68882890161101f565b945050604086013567ffffffffffffffff8111156116d7576116d6610f02565b5b6116e38882890161101f565b93505060606116f48882890161106e565b925050608086013567ffffffffffffffff81111561171557611714610f02565b5b6117218882890161101f565b9150509295509295909350565b600081905092915050565b6000611744826110df565b61174e818561172e565b935061175e8185602086016110fb565b80840191505092915050565b60006117768284611739565b915081905092915050565b600081905092915050565b50565b600061179c600083611781565b91506117a78261178c565b600082019050919050565b60006117bd8261178f565b9150819050919050565b7f636f727265637420616d6f756e74206f66206574686572206e6f742073656e74600082015250565b60006117fd6020836110ea565b9150611808826117c7565b602082019050919050565b6000602082019050818103600083015261182c816117f0565b9050919050565b7f4e487b7100000000000000000000000000000000000000000000000000000000600052602260045260246000fd5b6000600282049050600182168061187a57607f821691505b60208210810361188d5761188c611833565b5b50919050565b60008190508160005260206000209050919050565b60006020601f8301049050919050565b600082821b905092915050565b6000600883026118f57fffffffffffffffffffffffffffffffffffffffffffffffffffffffffffffffff826118b8565b6118ff86836118b8565b95508019841693508086168417925050509392505050565b600061193261192d6119288461104d565b6115c9565b61104d565b9050919050565b6000819050919050565b61194c83611917565b61196061195882611939565b8484546118c5565b825550505050565b600090565b611975611968565b611980818484611943565b505050565b5b818110156119a45761199960008261196d565b600181019050611986565b5050565b601f8211156119e9576119ba81611893565b6119c3846118a8565b810160208510156119d2578190505b6119e66119de856118a8565b830182611985565b50505b505050565b600082821c905092915050565b6000611a0c600019846008026119ee565b1980831691505092915050565b6000611a2583836119fb565b9150826002028217905092915050565b611a3e826110df565b67ffffffffffffffff811115611a5757611a56610f22565b5b611a618254611862565b611a6c8282856119a8565b600060209050601f831160018114611a9f5760008415611a8d578287015190505b611a978582611a19565b865550611aff565b601f198416611aad86611893565b60005b82811015611ad557848901518255600182019150602085019450602081019050611ab0565b86831015611af25784890151611aee601f8916826119fb565b8355505b6001600288020188555050505b505050505050565b7f4e487b7100000000000000000000000000000000000000000000000000000000600052601160045260246000fd5b6000611b418261104d565b9150611b4c8361104d565b9250828202611b5a8161104d565b91508282048414831517611b7157611b70611b07565b5b5092915050565b600069ffffffffffffffffffff82169050919050565b611b9781611b78565b8114611ba257600080fd5b50565b600081519050611bb481611b8e565b92915050565b6000819050919050565b611bcd81611bba565b8114611bd857600080fd5b50565b600081519050611bea81611bc4565b92915050565b600081519050611bff81611057565b92915050565b600080600080600060a08688031215611c2157611c20610efd565b5b6000611c2f88828901611ba5565b9550506020611c4088828901611bdb565b9450506040611c5188828901611bf0565b9350506060611c6288828901611bf0565b9250506080611c7388828901611ba5565b9150509295509295909350565b7f4e487b7100000000000000000000000000000000000000000000000000000000600052601260045260246000fd5b6000611cba8261104d565b9150611cc58361104d565b925082611cd557611cd4611c80565b5b82820490509291505056fea26469706673582212201f1dc50bee5831b39f53e5056aa35f97914dd5ed8bb2d93395d8cfa3aeb9baf664736f6c63430008120033",
  "devdoc": {
    "kind": "dev",
    "methods": {},
    "version": 1
  },
  "userdoc": {
    "kind": "user",
    "methods": {},
    "version": 1
  },
  "storageLayout": {
    "storage": [
      {
        "astId": 54,
        "contract": "contracts/Library.sol:Library",
        "label": "s_priceFeed",
        "offset": 0,
        "slot": "0",
        "type": "t_contract(AggregatorV3Interface)45"
      },
      {
        "astId": 57,
        "contract": "contracts/Library.sol:Library",
        "label": "allBookCids",
        "offset": 0,
        "slot": "1",
        "type": "t_array(t_string_storage)dyn_storage"
      },
      {
        "astId": 110,
        "contract": "contracts/Library.sol:Library",
        "label": "authorMapping",
        "offset": 0,
        "slot": "2",
        "type": "t_mapping(t_address,t_struct(Author)90_storage)"
      },
      {
        "astId": 115,
        "contract": "contracts/Library.sol:Library",
        "label": "bookMapping",
        "offset": 0,
        "slot": "3",
        "type": "t_mapping(t_string_memory_ptr,t_struct(Book)105_storage)"
      }
    ],
    "types": {
      "t_address": {
        "encoding": "inplace",
        "label": "address",
        "numberOfBytes": "20"
      },
      "t_array(t_string_storage)dyn_storage": {
        "base": "t_string_storage",
        "encoding": "dynamic_array",
        "label": "string[]",
        "numberOfBytes": "32"
      },
      "t_contract(AggregatorV3Interface)45": {
        "encoding": "inplace",
        "label": "contract AggregatorV3Interface",
        "numberOfBytes": "20"
      },
      "t_mapping(t_address,t_struct(Author)90_storage)": {
        "encoding": "mapping",
        "key": "t_address",
        "label": "mapping(address => struct Library.Author)",
        "numberOfBytes": "32",
        "value": "t_struct(Author)90_storage"
      },
      "t_mapping(t_string_memory_ptr,t_struct(Book)105_storage)": {
        "encoding": "mapping",
        "key": "t_string_memory_ptr",
        "label": "mapping(string => struct Library.Book)",
        "numberOfBytes": "32",
        "value": "t_struct(Book)105_storage"
      },
      "t_string_memory_ptr": {
        "encoding": "bytes",
        "label": "string",
        "numberOfBytes": "32"
      },
      "t_string_storage": {
        "encoding": "bytes",
        "label": "string",
        "numberOfBytes": "32"
      },
      "t_struct(Author)90_storage": {
        "encoding": "inplace",
        "label": "struct Library.Author",
        "members": [
          {
            "astId": 84,
            "contract": "contracts/Library.sol:Library",
            "label": "name",
            "offset": 0,
            "slot": "0",
            "type": "t_string_storage"
          },
          {
            "astId": 86,
            "contract": "contracts/Library.sol:Library",
            "label": "joinDate",
            "offset": 0,
            "slot": "1",
            "type": "t_uint256"
          },
          {
            "astId": 89,
            "contract": "contracts/Library.sol:Library",
            "label": "bookCidArray",
            "offset": 0,
            "slot": "2",
            "type": "t_array(t_string_storage)dyn_storage"
          }
        ],
        "numberOfBytes": "96"
      },
      "t_struct(Book)105_storage": {
        "encoding": "inplace",
        "label": "struct Library.Book",
        "members": [
          {
            "astId": 92,
            "contract": "contracts/Library.sol:Library",
            "label": "theAddress",
            "offset": 0,
            "slot": "0",
            "type": "t_address"
          },
          {
            "astId": 94,
            "contract": "contracts/Library.sol:Library",
            "label": "title",
            "offset": 0,
            "slot": "1",
            "type": "t_string_storage"
          },
          {
            "astId": 96,
            "contract": "contracts/Library.sol:Library",
            "label": "description",
            "offset": 0,
            "slot": "2",
            "type": "t_string_storage"
          },
          {
            "astId": 98,
            "contract": "contracts/Library.sol:Library",
            "label": "uploadDate",
            "offset": 0,
            "slot": "3",
            "type": "t_uint256"
          },
          {
            "astId": 100,
            "contract": "contracts/Library.sol:Library",
            "label": "bookCid",
            "offset": 0,
            "slot": "4",
            "type": "t_string_storage"
          },
          {
            "astId": 102,
            "contract": "contracts/Library.sol:Library",
            "label": "coverCid",
            "offset": 0,
            "slot": "5",
            "type": "t_string_storage"
          },
          {
            "astId": 104,
            "contract": "contracts/Library.sol:Library",
            "label": "priceInEth",
            "offset": 0,
            "slot": "6",
            "type": "t_uint256"
          }
        ],
        "numberOfBytes": "224"
      },
      "t_uint256": {
        "encoding": "inplace",
        "label": "uint256",
        "numberOfBytes": "32"
      }
    }
  }
}