{
  "address": "0x3f519518f4921372E652554599f01EEF28D97AF1",
  "abi": [
    {
      "inputs": [],
      "stateMutability": "nonpayable",
      "type": "constructor"
    },
    {
      "inputs": [],
      "name": "Incorrect__EthAmount",
      "type": "error"
    },
    {
      "anonymous": false,
      "inputs": [
        {
          "indexed": true,
          "internalType": "address",
          "name": "theAddress",
          "type": "address"
        },
        {
          "indexed": false,
          "internalType": "string",
          "name": "bookCid",
          "type": "string"
        }
      ],
      "name": "BookUploaded",
      "type": "event"
    },
    {
      "anonymous": false,
      "inputs": [
        {
          "indexed": true,
          "internalType": "address",
          "name": "theAddress",
          "type": "address"
        },
        {
          "indexed": false,
          "internalType": "string",
          "name": "theName",
          "type": "string"
        }
      ],
      "name": "ProfileCreated",
      "type": "event"
    },
    {
      "stateMutability": "payable",
      "type": "fallback"
    },
    {
      "inputs": [
        {
          "internalType": "string",
          "name": "_title",
          "type": "string"
        },
        {
          "internalType": "string",
          "name": "cid",
          "type": "string"
        },
        {
          "internalType": "string",
          "name": "cover",
          "type": "string"
        },
        {
          "internalType": "uint256",
          "name": "thePrice",
          "type": "uint256"
        },
        {
          "internalType": "string",
          "name": "theDescription",
          "type": "string"
        }
      ],
      "name": "addBook",
      "outputs": [],
      "stateMutability": "nonpayable",
      "type": "function"
    },
    {
      "inputs": [
        {
          "internalType": "string",
          "name": "theCid",
          "type": "string"
        },
        {
          "internalType": "uint256",
          "name": "cost",
          "type": "uint256"
        }
      ],
      "name": "buyBook",
      "outputs": [
        {
          "internalType": "string",
          "name": "cidLelo",
          "type": "string"
        }
      ],
      "stateMutability": "payable",
      "type": "function"
    },
    {
      "inputs": [
        {
          "internalType": "uint256",
          "name": "somevalue",
          "type": "uint256"
        }
      ],
      "name": "ethPriceReturner",
      "outputs": [
        {
          "internalType": "uint256",
          "name": "",
          "type": "uint256"
        }
      ],
      "stateMutability": "view",
      "type": "function"
    },
    {
      "inputs": [],
      "name": "getPriceFeed",
      "outputs": [
        {
          "internalType": "contract AggregatorV3Interface",
          "name": "",
          "type": "address"
        }
      ],
      "stateMutability": "view",
      "type": "function"
    },
    {
      "inputs": [],
      "name": "getTime",
      "outputs": [
        {
          "internalType": "uint256",
          "name": "",
          "type": "uint256"
        }
      ],
      "stateMutability": "view",
      "type": "function"
    },
    {
      "inputs": [
        {
          "internalType": "string",
          "name": "theName",
          "type": "string"
        }
      ],
      "name": "newAuthor",
      "outputs": [],
      "stateMutability": "nonpayable",
      "type": "function"
    },
    {
      "inputs": [
        {
          "internalType": "address",
          "name": "theAddress",
          "type": "address"
        }
      ],
      "name": "viewAuthor",
      "outputs": [
        {
          "components": [
            {
              "internalType": "string",
              "name": "name",
              "type": "string"
            },
            {
              "internalType": "uint256",
              "name": "joinDate",
              "type": "uint256"
            },
            {
              "internalType": "string[]",
              "name": "bookCidArray",
              "type": "string[]"
            }
          ],
          "internalType": "struct Library.Author",
          "name": "",
          "type": "tuple"
        }
      ],
      "stateMutability": "view",
      "type": "function"
    },
    {
      "inputs": [
        {
          "internalType": "address",
          "name": "theAddress",
          "type": "address"
        }
      ],
      "name": "viewAuthorBooks",
      "outputs": [
        {
          "internalType": "string[]",
          "name": "",
          "type": "string[]"
        }
      ],
      "stateMutability": "view",
      "type": "function"
    },
    {
      "inputs": [
        {
          "internalType": "string",
          "name": "cid",
          "type": "string"
        }
      ],
      "name": "viewBook",
      "outputs": [
        {
          "components": [
            {
              "internalType": "address",
              "name": "theAddress",
              "type": "address"
            },
            {
              "internalType": "string",
              "name": "title",
              "type": "string"
            },
            {
              "internalType": "string",
              "name": "description",
              "type": "string"
            },
            {
              "internalType": "uint256",
              "name": "uploadDate",
              "type": "uint256"
            },
            {
              "internalType": "string",
              "name": "bookCid",
              "type": "string"
            },
            {
              "internalType": "string",
              "name": "coverCid",
              "type": "string"
            },
            {
              "internalType": "uint256",
              "name": "priceInEth",
              "type": "uint256"
            }
          ],
          "internalType": "struct Library.Book",
          "name": "",
          "type": "tuple"
        }
      ],
      "stateMutability": "view",
      "type": "function"
    },
    {
      "stateMutability": "payable",
      "type": "receive"
    }
  ],
  "transactionHash": "0x6593aa0d3dcee03663f3609bf3a545c6acf13cda25e1cc7172687308d709a966",
  "args": [],
  "numDeployments": 1,
  "solcInputHash": "0aabf03729d8448a7ff4cecaefb118db",
  "bytecode": "0x608060405234801561001057600080fd5b5073d4a33860578de61dbabdc8bfdb98fd742fa7028e6000806101000a81548173ffffffffffffffffffffffffffffffffffffffff021916908373ffffffffffffffffffffffffffffffffffffffff160217905550611cc1806100746000396000f3fe60806040526004361061008a5760003560e01c80636ee661a3116100595780636ee661a31461015457806375735f6a146101915780639e87a5cd146101ce578063c00ec7f9146101f9578063f68baded1461023657610091565b80630e05cdbf14610093578063557ed1ba146100c3578063563f744d146100ee5780636d8680421461012b57610091565b3661009157005b005b6100ad60048036038101906100a89190610fb6565b61025f565b6040516100ba9190611091565b60405180910390f35b3480156100cf57600080fd5b506100d8610398565b6040516100e591906110c2565b60405180910390f35b3480156100fa57600080fd5b506101156004803603810190610110919061113b565b6103a0565b60405161012291906112da565b60405180910390f35b34801561013757600080fd5b50610152600480360381019061014d91906112fc565b61056e565b005b34801561016057600080fd5b5061017b60048036038101906101769190611345565b610656565b60405161018891906110c2565b60405180910390f35b34801561019d57600080fd5b506101b860048036038101906101b391906112fc565b610692565b6040516101c59190611432565b60405180910390f35b3480156101da57600080fd5b506101e361097c565b6040516101f091906114b3565b60405180910390f35b34801561020557600080fd5b50610220600480360381019061021b919061113b565b6109a5565b60405161022d9190611554565b60405180910390f35b34801561024257600080fd5b5061025d60048036038101906102589190611576565b610ac0565b005b60606000600284604051610273919061169d565b908152602001604051809103902060000160009054906101000a900473ffffffffffffffffffffffffffffffffffffffff169050823410156102e1576040517f213529b100000000000000000000000000000000000000000000000000000000815260040160405180910390fd5b60008173ffffffffffffffffffffffffffffffffffffffff1684604051610307906116e5565b60006040518083038185875af1925050503d8060008114610344576040519150601f19603f3d011682016040523d82523d6000602084013e610349565b606091505b505090508061038d576040517f08c379a000000000000000000000000000000000000000000000000000000000815260040161038490611746565b60405180910390fd5b849250505092915050565b600042905090565b6103a8610db2565b600160008373ffffffffffffffffffffffffffffffffffffffff1673ffffffffffffffffffffffffffffffffffffffff16815260200190815260200160002060405180606001604052908160008201805461040290611795565b80601f016020809104026020016040519081016040528092919081815260200182805461042e90611795565b801561047b5780601f106104505761010080835404028352916020019161047b565b820191906000526020600020905b81548152906001019060200180831161045e57829003601f168201915b505050505081526020016001820154815260200160028201805480602002602001604051908101604052809291908181526020016000905b8282101561055f5783829060005260206000200180546104d290611795565b80601f01602080910402602001604051908101604052809291908181526020018280546104fe90611795565b801561054b5780601f106105205761010080835404028352916020019161054b565b820191906000526020600020905b81548152906001019060200180831161052e57829003601f168201915b5050505050815260200190600101906104b3565b50505050815250509050919050565b80600160003373ffffffffffffffffffffffffffffffffffffffff1673ffffffffffffffffffffffffffffffffffffffff16815260200190815260200160002060000190816105bd9190611968565b5042600160003373ffffffffffffffffffffffffffffffffffffffff1673ffffffffffffffffffffffffffffffffffffffff168152602001908152602001600020600101819055503373ffffffffffffffffffffffffffffffffffffffff167fbafddecbd1dec1c1afb76d693f1de16901f521bdf29a02438e3e6806c0b8d9488260405161064b9190611091565b60405180910390a250565b600061068b60008054906101000a900473ffffffffffffffffffffffffffffffffffffffff1683610ce590919063ffffffff16565b9050919050565b61069a610dd3565b6002826040516106aa919061169d565b90815260200160405180910390206040518060e00160405290816000820160009054906101000a900473ffffffffffffffffffffffffffffffffffffffff1673ffffffffffffffffffffffffffffffffffffffff1673ffffffffffffffffffffffffffffffffffffffff16815260200160018201805461072990611795565b80601f016020809104026020016040519081016040528092919081815260200182805461075590611795565b80156107a25780601f10610777576101008083540402835291602001916107a2565b820191906000526020600020905b81548152906001019060200180831161078557829003601f168201915b505050505081526020016002820180546107bb90611795565b80601f01602080910402602001604051908101604052809291908181526020018280546107e790611795565b80156108345780601f1061080957610100808354040283529160200191610834565b820191906000526020600020905b81548152906001019060200180831161081757829003601f168201915b505050505081526020016003820154815260200160048201805461085790611795565b80601f016020809104026020016040519081016040528092919081815260200182805461088390611795565b80156108d05780601f106108a5576101008083540402835291602001916108d0565b820191906000526020600020905b8154815290600101906020018083116108b357829003601f168201915b505050505081526020016005820180546108e990611795565b80601f016020809104026020016040519081016040528092919081815260200182805461091590611795565b80156109625780601f1061093757610100808354040283529160200191610962565b820191906000526020600020905b81548152906001019060200180831161094557829003601f168201915b505050505081526020016006820154815250509050919050565b60008060009054906101000a900473ffffffffffffffffffffffffffffffffffffffff16905090565b6060600160008373ffffffffffffffffffffffffffffffffffffffff1673ffffffffffffffffffffffffffffffffffffffff168152602001908152602001600020600201805480602002602001604051908101604052809291908181526020016000905b82821015610ab5578382906000526020600020018054610a2890611795565b80601f0160208091040260200160405190810160405280929190818152602001828054610a5490611795565b8015610aa15780601f10610a7657610100808354040283529160200191610aa1565b820191906000526020600020905b815481529060010190602001808311610a8457829003601f168201915b505050505081526020019060010190610a09565b505050509050919050565b6000610af560008054906101000a900473ffffffffffffffffffffffffffffffffffffffff1684610ce590919063ffffffff16565b905060006040518060e001604052803373ffffffffffffffffffffffffffffffffffffffff168152602001888152602001848152602001428152602001878152602001868152602001838152509050600160003373ffffffffffffffffffffffffffffffffffffffff1673ffffffffffffffffffffffffffffffffffffffff16815260200190815260200160002060020186908060018154018082558091505060019003906000526020600020016000909190919091509081610bb89190611968565b5080600287604051610bca919061169d565b908152602001604051809103902060008201518160000160006101000a81548173ffffffffffffffffffffffffffffffffffffffff021916908373ffffffffffffffffffffffffffffffffffffffff1602179055506020820151816001019081610c349190611968565b506040820151816002019081610c4a9190611968565b50606082015181600301556080820151816004019081610c6a9190611968565b5060a0820151816005019081610c809190611968565b5060c082015181600601559050503373ffffffffffffffffffffffffffffffffffffffff167f278db38b8449235c100ad914cc7629b274142c02919c07fb67877245f7f7473c87604051610cd49190611091565b60405180910390a250505050505050565b600080610cf183610d21565b90506000670de0b6b3a76400008583610d0a9190611a69565b610d149190611ada565b9050809250505092915050565b6000808273ffffffffffffffffffffffffffffffffffffffff1663feaf968c6040518163ffffffff1660e01b815260040160a060405180830381865afa158015610d6f573d6000803e3d6000fd5b505050506040513d601f19601f82011682018060405250810190610d939190611b98565b5050509150506402540be40081610daa9190611c13565b915050919050565b60405180606001604052806060815260200160008152602001606081525090565b6040518060e00160405280600073ffffffffffffffffffffffffffffffffffffffff1681526020016060815260200160608152602001600081526020016060815260200160608152602001600081525090565b6000604051905090565b600080fd5b600080fd5b600080fd5b600080fd5b6000601f19601f8301169050919050565b7f4e487b7100000000000000000000000000000000000000000000000000000000600052604160045260246000fd5b610e8d82610e44565b810181811067ffffffffffffffff82111715610eac57610eab610e55565b5b80604052505050565b6000610ebf610e26565b9050610ecb8282610e84565b919050565b600067ffffffffffffffff821115610eeb57610eea610e55565b5b610ef482610e44565b9050602081019050919050565b82818337600083830152505050565b6000610f23610f1e84610ed0565b610eb5565b905082815260208101848484011115610f3f57610f3e610e3f565b5b610f4a848285610f01565b509392505050565b600082601f830112610f6757610f66610e3a565b5b8135610f77848260208601610f10565b91505092915050565b6000819050919050565b610f9381610f80565b8114610f9e57600080fd5b50565b600081359050610fb081610f8a565b92915050565b60008060408385031215610fcd57610fcc610e30565b5b600083013567ffffffffffffffff811115610feb57610fea610e35565b5b610ff785828601610f52565b925050602061100885828601610fa1565b9150509250929050565b600081519050919050565b600082825260208201905092915050565b60005b8381101561104c578082015181840152602081019050611031565b60008484015250505050565b600061106382611012565b61106d818561101d565b935061107d81856020860161102e565b61108681610e44565b840191505092915050565b600060208201905081810360008301526110ab8184611058565b905092915050565b6110bc81610f80565b82525050565b60006020820190506110d760008301846110b3565b92915050565b600073ffffffffffffffffffffffffffffffffffffffff82169050919050565b6000611108826110dd565b9050919050565b611118816110fd565b811461112357600080fd5b50565b6000813590506111358161110f565b92915050565b60006020828403121561115157611150610e30565b5b600061115f84828501611126565b91505092915050565b600082825260208201905092915050565b600061118482611012565b61118e8185611168565b935061119e81856020860161102e565b6111a781610e44565b840191505092915050565b6111bb81610f80565b82525050565b600081519050919050565b600082825260208201905092915050565b6000819050602082019050919050565b60006111f98383611179565b905092915050565b6000602082019050919050565b6000611219826111c1565b61122381856111cc565b935083602082028501611235856111dd565b8060005b85811015611271578484038952815161125285826111ed565b945061125d83611201565b925060208a01995050600181019050611239565b50829750879550505050505092915050565b600060608301600083015184820360008601526112a08282611179565b91505060208301516112b560208601826111b2565b50604083015184820360408601526112cd828261120e565b9150508091505092915050565b600060208201905081810360008301526112f48184611283565b905092915050565b60006020828403121561131257611311610e30565b5b600082013567ffffffffffffffff8111156113305761132f610e35565b5b61133c84828501610f52565b91505092915050565b60006020828403121561135b5761135a610e30565b5b600061136984828501610fa1565b91505092915050565b61137b816110fd565b82525050565b600060e0830160008301516113996000860182611372565b50602083015184820360208601526113b18282611179565b915050604083015184820360408601526113cb8282611179565b91505060608301516113e060608601826111b2565b50608083015184820360808601526113f88282611179565b91505060a083015184820360a08601526114128282611179565b91505060c083015161142760c08601826111b2565b508091505092915050565b6000602082019050818103600083015261144c8184611381565b905092915050565b6000819050919050565b600061147961147461146f846110dd565b611454565b6110dd565b9050919050565b600061148b8261145e565b9050919050565b600061149d82611480565b9050919050565b6114ad81611492565b82525050565b60006020820190506114c860008301846114a4565b92915050565b600082825260208201905092915050565b60006114ea826111c1565b6114f481856114ce565b935083602082028501611506856111dd565b8060005b85811015611542578484038952815161152385826111ed565b945061152e83611201565b925060208a0199505060018101905061150a565b50829750879550505050505092915050565b6000602082019050818103600083015261156e81846114df565b905092915050565b600080600080600060a0868803121561159257611591610e30565b5b600086013567ffffffffffffffff8111156115b0576115af610e35565b5b6115bc88828901610f52565b955050602086013567ffffffffffffffff8111156115dd576115dc610e35565b5b6115e988828901610f52565b945050604086013567ffffffffffffffff81111561160a57611609610e35565b5b61161688828901610f52565b935050606061162788828901610fa1565b925050608086013567ffffffffffffffff81111561164857611647610e35565b5b61165488828901610f52565b9150509295509295909350565b600081905092915050565b600061167782611012565b6116818185611661565b935061169181856020860161102e565b80840191505092915050565b60006116a9828461166c565b915081905092915050565b600081905092915050565b50565b60006116cf6000836116b4565b91506116da826116bf565b600082019050919050565b60006116f0826116c2565b9150819050919050565b7f636f727265637420616d6f756e74206f66206574686572206e6f742073656e74600082015250565b600061173060208361101d565b915061173b826116fa565b602082019050919050565b6000602082019050818103600083015261175f81611723565b9050919050565b7f4e487b7100000000000000000000000000000000000000000000000000000000600052602260045260246000fd5b600060028204905060018216806117ad57607f821691505b6020821081036117c0576117bf611766565b5b50919050565b60008190508160005260206000209050919050565b60006020601f8301049050919050565b600082821b905092915050565b6000600883026118287fffffffffffffffffffffffffffffffffffffffffffffffffffffffffffffffff826117eb565b61183286836117eb565b95508019841693508086168417925050509392505050565b600061186561186061185b84610f80565b611454565b610f80565b9050919050565b6000819050919050565b61187f8361184a565b61189361188b8261186c565b8484546117f8565b825550505050565b600090565b6118a861189b565b6118b3818484611876565b505050565b5b818110156118d7576118cc6000826118a0565b6001810190506118b9565b5050565b601f82111561191c576118ed816117c6565b6118f6846117db565b81016020851015611905578190505b611919611911856117db565b8301826118b8565b50505b505050565b600082821c905092915050565b600061193f60001984600802611921565b1980831691505092915050565b6000611958838361192e565b9150826002028217905092915050565b61197182611012565b67ffffffffffffffff81111561198a57611989610e55565b5b6119948254611795565b61199f8282856118db565b600060209050601f8311600181146119d257600084156119c0578287015190505b6119ca858261194c565b865550611a32565b601f1984166119e0866117c6565b60005b82811015611a08578489015182556001820191506020850194506020810190506119e3565b86831015611a255784890151611a21601f89168261192e565b8355505b6001600288020188555050505b505050505050565b7f4e487b7100000000000000000000000000000000000000000000000000000000600052601160045260246000fd5b6000611a7482610f80565b9150611a7f83610f80565b9250828202611a8d81610f80565b91508282048414831517611aa457611aa3611a3a565b5b5092915050565b7f4e487b7100000000000000000000000000000000000000000000000000000000600052601260045260246000fd5b6000611ae582610f80565b9150611af083610f80565b925082611b0057611aff611aab565b5b828204905092915050565b600069ffffffffffffffffffff82169050919050565b611b2a81611b0b565b8114611b3557600080fd5b50565b600081519050611b4781611b21565b92915050565b6000819050919050565b611b6081611b4d565b8114611b6b57600080fd5b50565b600081519050611b7d81611b57565b92915050565b600081519050611b9281610f8a565b92915050565b600080600080600060a08688031215611bb457611bb3610e30565b5b6000611bc288828901611b38565b9550506020611bd388828901611b6e565b9450506040611be488828901611b83565b9350506060611bf588828901611b83565b9250506080611c0688828901611b38565b9150509295509295909350565b6000611c1e82611b4d565b9150611c2983611b4d565b9250828202611c3781611b4d565b91507f80000000000000000000000000000000000000000000000000000000000000008414600084121615611c6f57611c6e611a3a565b5b8282058414831517611c8457611c83611a3a565b5b509291505056fea2646970667358221220d7fb4f1f6722ee6a424055e8b3be750f3f7a22fdc65cd9d796a72e3cb1118af664736f6c63430008120033",
  "devdoc": {
    "kind": "dev",
    "methods": {},
    "version": 1
  },
  "userdoc": {
    "kind": "user",
    "methods": {},
    "version": 1
  },
  "storageLayout": {
    "storage": [
      {
        "astId": 54,
        "contract": "contracts/Library.sol:Library",
        "label": "s_priceFeed",
        "offset": 0,
        "slot": "0",
        "type": "t_contract(AggregatorV3Interface)45"
      },
      {
        "astId": 107,
        "contract": "contracts/Library.sol:Library",
        "label": "authorMapping",
        "offset": 0,
        "slot": "1",
        "type": "t_mapping(t_address,t_struct(Author)87_storage)"
      },
      {
        "astId": 112,
        "contract": "contracts/Library.sol:Library",
        "label": "bookMapping",
        "offset": 0,
        "slot": "2",
        "type": "t_mapping(t_string_memory_ptr,t_struct(Book)102_storage)"
      }
    ],
    "types": {
      "t_address": {
        "encoding": "inplace",
        "label": "address",
        "numberOfBytes": "20"
      },
      "t_array(t_string_storage)dyn_storage": {
        "base": "t_string_storage",
        "encoding": "dynamic_array",
        "label": "string[]",
        "numberOfBytes": "32"
      },
      "t_contract(AggregatorV3Interface)45": {
        "encoding": "inplace",
        "label": "contract AggregatorV3Interface",
        "numberOfBytes": "20"
      },
      "t_mapping(t_address,t_struct(Author)87_storage)": {
        "encoding": "mapping",
        "key": "t_address",
        "label": "mapping(address => struct Library.Author)",
        "numberOfBytes": "32",
        "value": "t_struct(Author)87_storage"
      },
      "t_mapping(t_string_memory_ptr,t_struct(Book)102_storage)": {
        "encoding": "mapping",
        "key": "t_string_memory_ptr",
        "label": "mapping(string => struct Library.Book)",
        "numberOfBytes": "32",
        "value": "t_struct(Book)102_storage"
      },
      "t_string_memory_ptr": {
        "encoding": "bytes",
        "label": "string",
        "numberOfBytes": "32"
      },
      "t_string_storage": {
        "encoding": "bytes",
        "label": "string",
        "numberOfBytes": "32"
      },
      "t_struct(Author)87_storage": {
        "encoding": "inplace",
        "label": "struct Library.Author",
        "members": [
          {
            "astId": 81,
            "contract": "contracts/Library.sol:Library",
            "label": "name",
            "offset": 0,
            "slot": "0",
            "type": "t_string_storage"
          },
          {
            "astId": 83,
            "contract": "contracts/Library.sol:Library",
            "label": "joinDate",
            "offset": 0,
            "slot": "1",
            "type": "t_uint256"
          },
          {
            "astId": 86,
            "contract": "contracts/Library.sol:Library",
            "label": "bookCidArray",
            "offset": 0,
            "slot": "2",
            "type": "t_array(t_string_storage)dyn_storage"
          }
        ],
        "numberOfBytes": "96"
      },
      "t_struct(Book)102_storage": {
        "encoding": "inplace",
        "label": "struct Library.Book",
        "members": [
          {
            "astId": 89,
            "contract": "contracts/Library.sol:Library",
            "label": "theAddress",
            "offset": 0,
            "slot": "0",
            "type": "t_address"
          },
          {
            "astId": 91,
            "contract": "contracts/Library.sol:Library",
            "label": "title",
            "offset": 0,
            "slot": "1",
            "type": "t_string_storage"
          },
          {
            "astId": 93,
            "contract": "contracts/Library.sol:Library",
            "label": "description",
            "offset": 0,
            "slot": "2",
            "type": "t_string_storage"
          },
          {
            "astId": 95,
            "contract": "contracts/Library.sol:Library",
            "label": "uploadDate",
            "offset": 0,
            "slot": "3",
            "type": "t_uint256"
          },
          {
            "astId": 97,
            "contract": "contracts/Library.sol:Library",
            "label": "bookCid",
            "offset": 0,
            "slot": "4",
            "type": "t_string_storage"
          },
          {
            "astId": 99,
            "contract": "contracts/Library.sol:Library",
            "label": "coverCid",
            "offset": 0,
            "slot": "5",
            "type": "t_string_storage"
          },
          {
            "astId": 101,
            "contract": "contracts/Library.sol:Library",
            "label": "priceInEth",
            "offset": 0,
            "slot": "6",
            "type": "t_uint256"
          }
        ],
        "numberOfBytes": "224"
      },
      "t_uint256": {
        "encoding": "inplace",
        "label": "uint256",
        "numberOfBytes": "32"
      }
    }
  }
}