{
  "address": "0xe0c034a8d53ae942039F3F0494cB5227389db0a8",
  "abi": [
    {
      "inputs": [],
      "stateMutability": "nonpayable",
      "type": "constructor"
    },
    {
      "inputs": [],
      "name": "Incorrect__EthAmount",
      "type": "error"
    },
    {
      "anonymous": false,
      "inputs": [
        {
          "indexed": true,
          "internalType": "address",
          "name": "theAddress",
          "type": "address"
        },
        {
          "indexed": false,
          "internalType": "string",
          "name": "bookCid",
          "type": "string"
        }
      ],
      "name": "BookUploaded",
      "type": "event"
    },
    {
      "anonymous": false,
      "inputs": [
        {
          "indexed": true,
          "internalType": "address",
          "name": "theAddress",
          "type": "address"
        },
        {
          "indexed": false,
          "internalType": "string",
          "name": "theName",
          "type": "string"
        }
      ],
      "name": "ProfileCreated",
      "type": "event"
    },
    {
      "stateMutability": "payable",
      "type": "fallback"
    },
    {
      "inputs": [
        {
          "internalType": "string",
          "name": "_title",
          "type": "string"
        },
        {
          "internalType": "string",
          "name": "cid",
          "type": "string"
        },
        {
          "internalType": "string",
          "name": "cover",
          "type": "string"
        },
        {
          "internalType": "uint256",
          "name": "thePrice",
          "type": "uint256"
        },
        {
          "internalType": "string",
          "name": "theDescription",
          "type": "string"
        }
      ],
      "name": "addBook",
      "outputs": [],
      "stateMutability": "nonpayable",
      "type": "function"
    },
    {
      "inputs": [
        {
          "internalType": "uint256",
          "name": "",
          "type": "uint256"
        }
      ],
      "name": "allAuthors",
      "outputs": [
        {
          "internalType": "address",
          "name": "",
          "type": "address"
        }
      ],
      "stateMutability": "view",
      "type": "function"
    },
    {
      "inputs": [
        {
          "internalType": "string",
          "name": "theCid",
          "type": "string"
        },
        {
          "internalType": "uint256",
          "name": "cost",
          "type": "uint256"
        }
      ],
      "name": "buyBook",
      "outputs": [
        {
          "internalType": "string",
          "name": "cidLelo",
          "type": "string"
        }
      ],
      "stateMutability": "payable",
      "type": "function"
    },
    {
      "inputs": [
        {
          "internalType": "uint256",
          "name": "somevalue",
          "type": "uint256"
        }
      ],
      "name": "ethPriceReturner",
      "outputs": [
        {
          "internalType": "uint256",
          "name": "",
          "type": "uint256"
        }
      ],
      "stateMutability": "view",
      "type": "function"
    },
    {
      "inputs": [],
      "name": "getPriceFeed",
      "outputs": [
        {
          "internalType": "contract AggregatorV3Interface",
          "name": "",
          "type": "address"
        }
      ],
      "stateMutability": "view",
      "type": "function"
    },
    {
      "inputs": [],
      "name": "getTime",
      "outputs": [
        {
          "internalType": "uint256",
          "name": "",
          "type": "uint256"
        }
      ],
      "stateMutability": "view",
      "type": "function"
    },
    {
      "inputs": [
        {
          "internalType": "string",
          "name": "theName",
          "type": "string"
        }
      ],
      "name": "newAuthor",
      "outputs": [],
      "stateMutability": "nonpayable",
      "type": "function"
    },
    {
      "inputs": [
        {
          "internalType": "address",
          "name": "theAddress",
          "type": "address"
        }
      ],
      "name": "viewAuthor",
      "outputs": [
        {
          "components": [
            {
              "internalType": "string",
              "name": "name",
              "type": "string"
            },
            {
              "internalType": "uint256",
              "name": "joinDate",
              "type": "uint256"
            },
            {
              "internalType": "string[]",
              "name": "bookCidArray",
              "type": "string[]"
            }
          ],
          "internalType": "struct Library.Author",
          "name": "",
          "type": "tuple"
        }
      ],
      "stateMutability": "view",
      "type": "function"
    },
    {
      "inputs": [
        {
          "internalType": "address",
          "name": "theAddress",
          "type": "address"
        }
      ],
      "name": "viewAuthorBooks",
      "outputs": [
        {
          "internalType": "string[]",
          "name": "",
          "type": "string[]"
        }
      ],
      "stateMutability": "view",
      "type": "function"
    },
    {
      "inputs": [
        {
          "internalType": "string",
          "name": "cid",
          "type": "string"
        }
      ],
      "name": "viewBook",
      "outputs": [
        {
          "components": [
            {
              "internalType": "address",
              "name": "theAddress",
              "type": "address"
            },
            {
              "internalType": "string",
              "name": "title",
              "type": "string"
            },
            {
              "internalType": "string",
              "name": "description",
              "type": "string"
            },
            {
              "internalType": "uint256",
              "name": "uploadDate",
              "type": "uint256"
            },
            {
              "internalType": "string",
              "name": "bookCid",
              "type": "string"
            },
            {
              "internalType": "string",
              "name": "coverCid",
              "type": "string"
            },
            {
              "internalType": "uint256",
              "name": "priceInEth",
              "type": "uint256"
            }
          ],
          "internalType": "struct Library.Book",
          "name": "",
          "type": "tuple"
        }
      ],
      "stateMutability": "view",
      "type": "function"
    },
    {
      "stateMutability": "payable",
      "type": "receive"
    }
  ],
  "transactionHash": "0x496a5b0e9d88ccc9d746028b81d65b69d4958a6b08d209dec3e0b37b648dba42",
  "args": [],
  "numDeployments": 2,
  "solcInputHash": "dcedb3b3964d40555e3bb0e4f2fb6a96",
  "bytecode": "0x608060405234801561001057600080fd5b5073d4a33860578de61dbabdc8bfdb98fd742fa7028e6000806101000a81548173ffffffffffffffffffffffffffffffffffffffff021916908373ffffffffffffffffffffffffffffffffffffffff160217905550611d82806100746000396000f3fe6080604052600436106100955760003560e01c80636ee661a3116100595780636ee661a31461019c57806375735f6a146101d95780639e87a5cd14610216578063c00ec7f914610241578063f68baded1461027e5761009c565b80630e05cdbf1461009e5780634603c99d146100ce578063557ed1ba1461010b578063563f744d146101365780636d868042146101735761009c565b3661009c57005b005b6100b860048036038101906100b391906110c5565b6102a7565b6040516100c591906111a0565b60405180910390f35b3480156100da57600080fd5b506100f560048036038101906100f091906111c2565b6103e0565b6040516101029190611230565b60405180910390f35b34801561011757600080fd5b5061012061041f565b60405161012d919061125a565b60405180910390f35b34801561014257600080fd5b5061015d600480360381019061015891906112a1565b610427565b60405161016a9190611440565b60405180910390f35b34801561017f57600080fd5b5061019a60048036038101906101959190611462565b6105f5565b005b3480156101a857600080fd5b506101c360048036038101906101be91906111c2565b610740565b6040516101d0919061125a565b60405180910390f35b3480156101e557600080fd5b5061020060048036038101906101fb9190611462565b61077c565b60405161020d919061156b565b60405180910390f35b34801561022257600080fd5b5061022b610a66565b60405161023891906115ec565b60405180910390f35b34801561024d57600080fd5b50610268600480360381019061026391906112a1565b610a8f565b604051610275919061168d565b60405180910390f35b34801561028a57600080fd5b506102a560048036038101906102a091906116af565b610baa565b005b606060006003846040516102bb91906117d6565b908152602001604051809103902060000160009054906101000a900473ffffffffffffffffffffffffffffffffffffffff16905082341015610329576040517f213529b100000000000000000000000000000000000000000000000000000000815260040160405180910390fd5b60008173ffffffffffffffffffffffffffffffffffffffff168460405161034f9061181e565b60006040518083038185875af1925050503d806000811461038c576040519150601f19603f3d011682016040523d82523d6000602084013e610391565b606091505b50509050806103d5576040517f08c379a00000000000000000000000000000000000000000000000000000000081526004016103cc9061187f565b60405180910390fd5b849250505092915050565b600181815481106103f057600080fd5b906000526020600020016000915054906101000a900473ffffffffffffffffffffffffffffffffffffffff1681565b600042905090565b61042f610ec1565b600260008373ffffffffffffffffffffffffffffffffffffffff1673ffffffffffffffffffffffffffffffffffffffff168152602001908152602001600020604051806060016040529081600082018054610489906118ce565b80601f01602080910402602001604051908101604052809291908181526020018280546104b5906118ce565b80156105025780601f106104d757610100808354040283529160200191610502565b820191906000526020600020905b8154815290600101906020018083116104e557829003601f168201915b505050505081526020016001820154815260200160028201805480602002602001604051908101604052809291908181526020016000905b828210156105e6578382906000526020600020018054610559906118ce565b80601f0160208091040260200160405190810160405280929190818152602001828054610585906118ce565b80156105d25780601f106105a7576101008083540402835291602001916105d2565b820191906000526020600020905b8154815290600101906020018083116105b557829003601f168201915b50505050508152602001906001019061053a565b50505050815250509050919050565b80600260003373ffffffffffffffffffffffffffffffffffffffff1673ffffffffffffffffffffffffffffffffffffffff16815260200190815260200160002060000190816106449190611aa1565b5042600260003373ffffffffffffffffffffffffffffffffffffffff1673ffffffffffffffffffffffffffffffffffffffff168152602001908152602001600020600101819055506001339080600181540180825580915050600190039060005260206000200160009091909190916101000a81548173ffffffffffffffffffffffffffffffffffffffff021916908373ffffffffffffffffffffffffffffffffffffffff1602179055503373ffffffffffffffffffffffffffffffffffffffff167fbafddecbd1dec1c1afb76d693f1de16901f521bdf29a02438e3e6806c0b8d9488260405161073591906111a0565b60405180910390a250565b600061077560008054906101000a900473ffffffffffffffffffffffffffffffffffffffff1683610dcf90919063ffffffff16565b9050919050565b610784610ee2565b60038260405161079491906117d6565b90815260200160405180910390206040518060e00160405290816000820160009054906101000a900473ffffffffffffffffffffffffffffffffffffffff1673ffffffffffffffffffffffffffffffffffffffff1673ffffffffffffffffffffffffffffffffffffffff168152602001600182018054610813906118ce565b80601f016020809104026020016040519081016040528092919081815260200182805461083f906118ce565b801561088c5780601f106108615761010080835404028352916020019161088c565b820191906000526020600020905b81548152906001019060200180831161086f57829003601f168201915b505050505081526020016002820180546108a5906118ce565b80601f01602080910402602001604051908101604052809291908181526020018280546108d1906118ce565b801561091e5780601f106108f35761010080835404028352916020019161091e565b820191906000526020600020905b81548152906001019060200180831161090157829003601f168201915b5050505050815260200160038201548152602001600482018054610941906118ce565b80601f016020809104026020016040519081016040528092919081815260200182805461096d906118ce565b80156109ba5780601f1061098f576101008083540402835291602001916109ba565b820191906000526020600020905b81548152906001019060200180831161099d57829003601f168201915b505050505081526020016005820180546109d3906118ce565b80601f01602080910402602001604051908101604052809291908181526020018280546109ff906118ce565b8015610a4c5780601f10610a2157610100808354040283529160200191610a4c565b820191906000526020600020905b815481529060010190602001808311610a2f57829003601f168201915b505050505081526020016006820154815250509050919050565b60008060009054906101000a900473ffffffffffffffffffffffffffffffffffffffff16905090565b6060600260008373ffffffffffffffffffffffffffffffffffffffff1673ffffffffffffffffffffffffffffffffffffffff168152602001908152602001600020600201805480602002602001604051908101604052809291908181526020016000905b82821015610b9f578382906000526020600020018054610b12906118ce565b80601f0160208091040260200160405190810160405280929190818152602001828054610b3e906118ce565b8015610b8b5780601f10610b6057610100808354040283529160200191610b8b565b820191906000526020600020905b815481529060010190602001808311610b6e57829003601f168201915b505050505081526020019060010190610af3565b505050509050919050565b6000610bdf60008054906101000a900473ffffffffffffffffffffffffffffffffffffffff1684610dcf90919063ffffffff16565b905060006040518060e001604052803373ffffffffffffffffffffffffffffffffffffffff168152602001888152602001848152602001428152602001878152602001868152602001838152509050600260003373ffffffffffffffffffffffffffffffffffffffff1673ffffffffffffffffffffffffffffffffffffffff16815260200190815260200160002060020186908060018154018082558091505060019003906000526020600020016000909190919091509081610ca29190611aa1565b5080600387604051610cb491906117d6565b908152602001604051809103902060008201518160000160006101000a81548173ffffffffffffffffffffffffffffffffffffffff021916908373ffffffffffffffffffffffffffffffffffffffff1602179055506020820151816001019081610d1e9190611aa1565b506040820151816002019081610d349190611aa1565b50606082015181600301556080820151816004019081610d549190611aa1565b5060a0820151816005019081610d6a9190611aa1565b5060c082015181600601559050503373ffffffffffffffffffffffffffffffffffffffff167f278db38b8449235c100ad914cc7629b274142c02919c07fb67877245f7f7473c87604051610dbe91906111a0565b60405180910390a250505050505050565b600080610ddb83610df8565b905060008482610deb9190611ba2565b9050809250505092915050565b6000808273ffffffffffffffffffffffffffffffffffffffff1663feaf968c6040518163ffffffff1660e01b815260040160a060405180830381865afa158015610e46573d6000803e3d6000fd5b505050506040513d601f19601f82011682018060405250810190610e6a9190611c71565b50505091505060006402540be40082610e839190611ba2565b90506000670de0b6b3a76400009050600082670de0b6b3a764000083610ea99190611ba2565b610eb39190611d1b565b905080945050505050919050565b60405180606001604052806060815260200160008152602001606081525090565b6040518060e00160405280600073ffffffffffffffffffffffffffffffffffffffff1681526020016060815260200160608152602001600081526020016060815260200160608152602001600081525090565b6000604051905090565b600080fd5b600080fd5b600080fd5b600080fd5b6000601f19601f8301169050919050565b7f4e487b7100000000000000000000000000000000000000000000000000000000600052604160045260246000fd5b610f9c82610f53565b810181811067ffffffffffffffff82111715610fbb57610fba610f64565b5b80604052505050565b6000610fce610f35565b9050610fda8282610f93565b919050565b600067ffffffffffffffff821115610ffa57610ff9610f64565b5b61100382610f53565b9050602081019050919050565b82818337600083830152505050565b600061103261102d84610fdf565b610fc4565b90508281526020810184848401111561104e5761104d610f4e565b5b611059848285611010565b509392505050565b600082601f83011261107657611075610f49565b5b813561108684826020860161101f565b91505092915050565b6000819050919050565b6110a28161108f565b81146110ad57600080fd5b50565b6000813590506110bf81611099565b92915050565b600080604083850312156110dc576110db610f3f565b5b600083013567ffffffffffffffff8111156110fa576110f9610f44565b5b61110685828601611061565b9250506020611117858286016110b0565b9150509250929050565b600081519050919050565b600082825260208201905092915050565b60005b8381101561115b578082015181840152602081019050611140565b60008484015250505050565b600061117282611121565b61117c818561112c565b935061118c81856020860161113d565b61119581610f53565b840191505092915050565b600060208201905081810360008301526111ba8184611167565b905092915050565b6000602082840312156111d8576111d7610f3f565b5b60006111e6848285016110b0565b91505092915050565b600073ffffffffffffffffffffffffffffffffffffffff82169050919050565b600061121a826111ef565b9050919050565b61122a8161120f565b82525050565b60006020820190506112456000830184611221565b92915050565b6112548161108f565b82525050565b600060208201905061126f600083018461124b565b92915050565b61127e8161120f565b811461128957600080fd5b50565b60008135905061129b81611275565b92915050565b6000602082840312156112b7576112b6610f3f565b5b60006112c58482850161128c565b91505092915050565b600082825260208201905092915050565b60006112ea82611121565b6112f481856112ce565b935061130481856020860161113d565b61130d81610f53565b840191505092915050565b6113218161108f565b82525050565b600081519050919050565b600082825260208201905092915050565b6000819050602082019050919050565b600061135f83836112df565b905092915050565b6000602082019050919050565b600061137f82611327565b6113898185611332565b93508360208202850161139b85611343565b8060005b858110156113d757848403895281516113b88582611353565b94506113c383611367565b925060208a0199505060018101905061139f565b50829750879550505050505092915050565b6000606083016000830151848203600086015261140682826112df565b915050602083015161141b6020860182611318565b50604083015184820360408601526114338282611374565b9150508091505092915050565b6000602082019050818103600083015261145a81846113e9565b905092915050565b60006020828403121561147857611477610f3f565b5b600082013567ffffffffffffffff81111561149657611495610f44565b5b6114a284828501611061565b91505092915050565b6114b48161120f565b82525050565b600060e0830160008301516114d260008601826114ab565b50602083015184820360208601526114ea82826112df565b9150506040830151848203604086015261150482826112df565b91505060608301516115196060860182611318565b506080830151848203608086015261153182826112df565b91505060a083015184820360a086015261154b82826112df565b91505060c083015161156060c0860182611318565b508091505092915050565b6000602082019050818103600083015261158581846114ba565b905092915050565b6000819050919050565b60006115b26115ad6115a8846111ef565b61158d565b6111ef565b9050919050565b60006115c482611597565b9050919050565b60006115d6826115b9565b9050919050565b6115e6816115cb565b82525050565b600060208201905061160160008301846115dd565b92915050565b600082825260208201905092915050565b600061162382611327565b61162d8185611607565b93508360208202850161163f85611343565b8060005b8581101561167b578484038952815161165c8582611353565b945061166783611367565b925060208a01995050600181019050611643565b50829750879550505050505092915050565b600060208201905081810360008301526116a78184611618565b905092915050565b600080600080600060a086880312156116cb576116ca610f3f565b5b600086013567ffffffffffffffff8111156116e9576116e8610f44565b5b6116f588828901611061565b955050602086013567ffffffffffffffff81111561171657611715610f44565b5b61172288828901611061565b945050604086013567ffffffffffffffff81111561174357611742610f44565b5b61174f88828901611061565b9350506060611760888289016110b0565b925050608086013567ffffffffffffffff81111561178157611780610f44565b5b61178d88828901611061565b9150509295509295909350565b600081905092915050565b60006117b082611121565b6117ba818561179a565b93506117ca81856020860161113d565b80840191505092915050565b60006117e282846117a5565b915081905092915050565b600081905092915050565b50565b60006118086000836117ed565b9150611813826117f8565b600082019050919050565b6000611829826117fb565b9150819050919050565b7f636f727265637420616d6f756e74206f66206574686572206e6f742073656e74600082015250565b600061186960208361112c565b915061187482611833565b602082019050919050565b600060208201905081810360008301526118988161185c565b9050919050565b7f4e487b7100000000000000000000000000000000000000000000000000000000600052602260045260246000fd5b600060028204905060018216806118e657607f821691505b6020821081036118f9576118f861189f565b5b50919050565b60008190508160005260206000209050919050565b60006020601f8301049050919050565b600082821b905092915050565b6000600883026119617fffffffffffffffffffffffffffffffffffffffffffffffffffffffffffffffff82611924565b61196b8683611924565b95508019841693508086168417925050509392505050565b600061199e6119996119948461108f565b61158d565b61108f565b9050919050565b6000819050919050565b6119b883611983565b6119cc6119c4826119a5565b848454611931565b825550505050565b600090565b6119e16119d4565b6119ec8184846119af565b505050565b5b81811015611a1057611a056000826119d9565b6001810190506119f2565b5050565b601f821115611a5557611a26816118ff565b611a2f84611914565b81016020851015611a3e578190505b611a52611a4a85611914565b8301826119f1565b50505b505050565b600082821c905092915050565b6000611a7860001984600802611a5a565b1980831691505092915050565b6000611a918383611a67565b9150826002028217905092915050565b611aaa82611121565b67ffffffffffffffff811115611ac357611ac2610f64565b5b611acd82546118ce565b611ad8828285611a14565b600060209050601f831160018114611b0b5760008415611af9578287015190505b611b038582611a85565b865550611b6b565b601f198416611b19866118ff565b60005b82811015611b4157848901518255600182019150602085019450602081019050611b1c565b86831015611b5e5784890151611b5a601f891682611a67565b8355505b6001600288020188555050505b505050505050565b7f4e487b7100000000000000000000000000000000000000000000000000000000600052601160045260246000fd5b6000611bad8261108f565b9150611bb88361108f565b9250828202611bc68161108f565b91508282048414831517611bdd57611bdc611b73565b5b5092915050565b600069ffffffffffffffffffff82169050919050565b611c0381611be4565b8114611c0e57600080fd5b50565b600081519050611c2081611bfa565b92915050565b6000819050919050565b611c3981611c26565b8114611c4457600080fd5b50565b600081519050611c5681611c30565b92915050565b600081519050611c6b81611099565b92915050565b600080600080600060a08688031215611c8d57611c8c610f3f565b5b6000611c9b88828901611c11565b9550506020611cac88828901611c47565b9450506040611cbd88828901611c5c565b9350506060611cce88828901611c5c565b9250506080611cdf88828901611c11565b9150509295509295909350565b7f4e487b7100000000000000000000000000000000000000000000000000000000600052601260045260246000fd5b6000611d268261108f565b9150611d318361108f565b925082611d4157611d40611cec565b5b82820490509291505056fea26469706673582212205b7cf9fdad6bc358181b3e7a3bccb660d1464ff1e5bb52add4ae1bbec49d2c1964736f6c63430008120033",
  "devdoc": {
    "kind": "dev",
    "methods": {},
    "version": 1
  },
  "userdoc": {
    "kind": "user",
    "methods": {},
    "version": 1
  },
  "storageLayout": {
    "storage": [
      {
        "astId": 54,
        "contract": "contracts/Library.sol:Library",
        "label": "s_priceFeed",
        "offset": 0,
        "slot": "0",
        "type": "t_contract(AggregatorV3Interface)45"
      },
      {
        "astId": 57,
        "contract": "contracts/Library.sol:Library",
        "label": "allAuthors",
        "offset": 0,
        "slot": "1",
        "type": "t_array(t_address)dyn_storage"
      },
      {
        "astId": 110,
        "contract": "contracts/Library.sol:Library",
        "label": "authorMapping",
        "offset": 0,
        "slot": "2",
        "type": "t_mapping(t_address,t_struct(Author)90_storage)"
      },
      {
        "astId": 115,
        "contract": "contracts/Library.sol:Library",
        "label": "bookMapping",
        "offset": 0,
        "slot": "3",
        "type": "t_mapping(t_string_memory_ptr,t_struct(Book)105_storage)"
      }
    ],
    "types": {
      "t_address": {
        "encoding": "inplace",
        "label": "address",
        "numberOfBytes": "20"
      },
      "t_array(t_address)dyn_storage": {
        "base": "t_address",
        "encoding": "dynamic_array",
        "label": "address[]",
        "numberOfBytes": "32"
      },
      "t_array(t_string_storage)dyn_storage": {
        "base": "t_string_storage",
        "encoding": "dynamic_array",
        "label": "string[]",
        "numberOfBytes": "32"
      },
      "t_contract(AggregatorV3Interface)45": {
        "encoding": "inplace",
        "label": "contract AggregatorV3Interface",
        "numberOfBytes": "20"
      },
      "t_mapping(t_address,t_struct(Author)90_storage)": {
        "encoding": "mapping",
        "key": "t_address",
        "label": "mapping(address => struct Library.Author)",
        "numberOfBytes": "32",
        "value": "t_struct(Author)90_storage"
      },
      "t_mapping(t_string_memory_ptr,t_struct(Book)105_storage)": {
        "encoding": "mapping",
        "key": "t_string_memory_ptr",
        "label": "mapping(string => struct Library.Book)",
        "numberOfBytes": "32",
        "value": "t_struct(Book)105_storage"
      },
      "t_string_memory_ptr": {
        "encoding": "bytes",
        "label": "string",
        "numberOfBytes": "32"
      },
      "t_string_storage": {
        "encoding": "bytes",
        "label": "string",
        "numberOfBytes": "32"
      },
      "t_struct(Author)90_storage": {
        "encoding": "inplace",
        "label": "struct Library.Author",
        "members": [
          {
            "astId": 84,
            "contract": "contracts/Library.sol:Library",
            "label": "name",
            "offset": 0,
            "slot": "0",
            "type": "t_string_storage"
          },
          {
            "astId": 86,
            "contract": "contracts/Library.sol:Library",
            "label": "joinDate",
            "offset": 0,
            "slot": "1",
            "type": "t_uint256"
          },
          {
            "astId": 89,
            "contract": "contracts/Library.sol:Library",
            "label": "bookCidArray",
            "offset": 0,
            "slot": "2",
            "type": "t_array(t_string_storage)dyn_storage"
          }
        ],
        "numberOfBytes": "96"
      },
      "t_struct(Book)105_storage": {
        "encoding": "inplace",
        "label": "struct Library.Book",
        "members": [
          {
            "astId": 92,
            "contract": "contracts/Library.sol:Library",
            "label": "theAddress",
            "offset": 0,
            "slot": "0",
            "type": "t_address"
          },
          {
            "astId": 94,
            "contract": "contracts/Library.sol:Library",
            "label": "title",
            "offset": 0,
            "slot": "1",
            "type": "t_string_storage"
          },
          {
            "astId": 96,
            "contract": "contracts/Library.sol:Library",
            "label": "description",
            "offset": 0,
            "slot": "2",
            "type": "t_string_storage"
          },
          {
            "astId": 98,
            "contract": "contracts/Library.sol:Library",
            "label": "uploadDate",
            "offset": 0,
            "slot": "3",
            "type": "t_uint256"
          },
          {
            "astId": 100,
            "contract": "contracts/Library.sol:Library",
            "label": "bookCid",
            "offset": 0,
            "slot": "4",
            "type": "t_string_storage"
          },
          {
            "astId": 102,
            "contract": "contracts/Library.sol:Library",
            "label": "coverCid",
            "offset": 0,
            "slot": "5",
            "type": "t_string_storage"
          },
          {
            "astId": 104,
            "contract": "contracts/Library.sol:Library",
            "label": "priceInEth",
            "offset": 0,
            "slot": "6",
            "type": "t_uint256"
          }
        ],
        "numberOfBytes": "224"
      },
      "t_uint256": {
        "encoding": "inplace",
        "label": "uint256",
        "numberOfBytes": "32"
      }
    }
  }
}