{
  "address": "0xB1f6ee6e58bE9ADd89A10b5426570Dbb8215a711",
  "abi": [
    {
      "inputs": [],
      "stateMutability": "nonpayable",
      "type": "constructor"
    },
    {
      "inputs": [],
      "name": "Incorrect__EthAmount",
      "type": "error"
    },
    {
      "anonymous": false,
      "inputs": [
        {
          "indexed": true,
          "internalType": "address",
          "name": "theAddress",
          "type": "address"
        },
        {
          "indexed": false,
          "internalType": "string",
          "name": "bookCid",
          "type": "string"
        }
      ],
      "name": "BookUploaded",
      "type": "event"
    },
    {
      "anonymous": false,
      "inputs": [
        {
          "indexed": true,
          "internalType": "address",
          "name": "theAddress",
          "type": "address"
        },
        {
          "indexed": false,
          "internalType": "string",
          "name": "theName",
          "type": "string"
        }
      ],
      "name": "ProfileCreated",
      "type": "event"
    },
    {
      "stateMutability": "payable",
      "type": "fallback"
    },
    {
      "inputs": [
        {
          "internalType": "string",
          "name": "_title",
          "type": "string"
        },
        {
          "internalType": "string",
          "name": "cid",
          "type": "string"
        },
        {
          "internalType": "string",
          "name": "cover",
          "type": "string"
        },
        {
          "internalType": "uint256",
          "name": "thePrice",
          "type": "uint256"
        },
        {
          "internalType": "string",
          "name": "theDescription",
          "type": "string"
        }
      ],
      "name": "addBook",
      "outputs": [],
      "stateMutability": "nonpayable",
      "type": "function"
    },
    {
      "inputs": [
        {
          "internalType": "string",
          "name": "theCid",
          "type": "string"
        },
        {
          "internalType": "uint256",
          "name": "cost",
          "type": "uint256"
        }
      ],
      "name": "buyBook",
      "outputs": [
        {
          "internalType": "string",
          "name": "cidLelo",
          "type": "string"
        }
      ],
      "stateMutability": "payable",
      "type": "function"
    },
    {
      "inputs": [
        {
          "internalType": "uint256",
          "name": "somevalue",
          "type": "uint256"
        }
      ],
      "name": "ethPriceReturner",
      "outputs": [
        {
          "internalType": "uint256",
          "name": "",
          "type": "uint256"
        }
      ],
      "stateMutability": "view",
      "type": "function"
    },
    {
      "inputs": [],
      "name": "getPriceFeed",
      "outputs": [
        {
          "internalType": "contract AggregatorV3Interface",
          "name": "",
          "type": "address"
        }
      ],
      "stateMutability": "view",
      "type": "function"
    },
    {
      "inputs": [
        {
          "internalType": "string",
          "name": "theName",
          "type": "string"
        }
      ],
      "name": "newAuthor",
      "outputs": [],
      "stateMutability": "nonpayable",
      "type": "function"
    },
    {
      "inputs": [],
      "name": "viewAllCids",
      "outputs": [
        {
          "internalType": "string[]",
          "name": "",
          "type": "string[]"
        }
      ],
      "stateMutability": "view",
      "type": "function"
    },
    {
      "inputs": [
        {
          "internalType": "address",
          "name": "theAddress",
          "type": "address"
        }
      ],
      "name": "viewAuthor",
      "outputs": [
        {
          "components": [
            {
              "internalType": "string",
              "name": "name",
              "type": "string"
            },
            {
              "internalType": "uint256",
              "name": "joinDate",
              "type": "uint256"
            },
            {
              "internalType": "string[]",
              "name": "bookCidArray",
              "type": "string[]"
            }
          ],
          "internalType": "struct Library.Author",
          "name": "",
          "type": "tuple"
        }
      ],
      "stateMutability": "view",
      "type": "function"
    },
    {
      "inputs": [
        {
          "internalType": "address",
          "name": "theAddress",
          "type": "address"
        }
      ],
      "name": "viewAuthorBooks",
      "outputs": [
        {
          "internalType": "string[]",
          "name": "",
          "type": "string[]"
        }
      ],
      "stateMutability": "view",
      "type": "function"
    },
    {
      "inputs": [
        {
          "internalType": "string",
          "name": "cid",
          "type": "string"
        }
      ],
      "name": "viewBook",
      "outputs": [
        {
          "components": [
            {
              "internalType": "address",
              "name": "theAddress",
              "type": "address"
            },
            {
              "internalType": "string",
              "name": "title",
              "type": "string"
            },
            {
              "internalType": "string",
              "name": "description",
              "type": "string"
            },
            {
              "internalType": "uint256",
              "name": "uploadDate",
              "type": "uint256"
            },
            {
              "internalType": "string",
              "name": "bookCid",
              "type": "string"
            },
            {
              "internalType": "string",
              "name": "coverCid",
              "type": "string"
            },
            {
              "internalType": "uint256",
              "name": "priceInEth",
              "type": "uint256"
            }
          ],
          "internalType": "struct Library.Book",
          "name": "",
          "type": "tuple"
        }
      ],
      "stateMutability": "view",
      "type": "function"
    },
    {
      "stateMutability": "payable",
      "type": "receive"
    }
  ],
  "transactionHash": "0x434793f3e710de0fd6d43aa42e716a5866acc8aadf86b37beb100d3a1f8ad373",
  "args": [],
  "numDeployments": 5,
  "solcInputHash": "45e8296d6428d5039f7859de822298d3",
  "bytecode": "0x608060405234801561001057600080fd5b5073d4a33860578de61dbabdc8bfdb98fd742fa7028e6000806101000a81548173ffffffffffffffffffffffffffffffffffffffff021916908373ffffffffffffffffffffffffffffffffffffffff160217905550611cd8806100746000396000f3fe60806040526004361061008a5760003560e01c806375735f6a1161005957806375735f6a1461016657806386e57517146101a35780639e87a5cd146101ce578063c00ec7f9146101f9578063f68baded1461023657610091565b80630e05cdbf14610093578063563f744d146100c35780636d868042146101005780636ee661a31461012957610091565b3661009157005b005b6100ad60048036038101906100a89190611045565b61025f565b6040516100ba9190611120565b60405180910390f35b3480156100cf57600080fd5b506100ea60048036038101906100e591906111a0565b610398565b6040516100f7919061133f565b60405180910390f35b34801561010c57600080fd5b5061012760048036038101906101229190611361565b610566565b005b34801561013557600080fd5b50610150600480360381019061014b91906113aa565b610600565b60405161015d91906113e6565b60405180910390f35b34801561017257600080fd5b5061018d60048036038101906101889190611361565b61063c565b60405161019a91906114c1565b60405180910390f35b3480156101af57600080fd5b506101b8610926565b6040516101c59190611569565b60405180910390f35b3480156101da57600080fd5b506101e36109ff565b6040516101f091906115ea565b60405180910390f35b34801561020557600080fd5b50610220600480360381019061021b91906111a0565b610a28565b60405161022d9190611569565b60405180910390f35b34801561024257600080fd5b5061025d60048036038101906102589190611605565b610b43565b005b60606000600384604051610273919061172c565b908152602001604051809103902060000160009054906101000a900473ffffffffffffffffffffffffffffffffffffffff169050823410156102e1576040517f213529b100000000000000000000000000000000000000000000000000000000815260040160405180910390fd5b60008173ffffffffffffffffffffffffffffffffffffffff168460405161030790611774565b60006040518083038185875af1925050503d8060008114610344576040519150601f19603f3d011682016040523d82523d6000602084013e610349565b606091505b505090508061038d576040517f08c379a0000000000000000000000000000000000000000000000000000000008152600401610384906117d5565b60405180910390fd5b849250505092915050565b6103a0610e41565b600260008373ffffffffffffffffffffffffffffffffffffffff1673ffffffffffffffffffffffffffffffffffffffff1681526020019081526020016000206040518060600160405290816000820180546103fa90611824565b80601f016020809104026020016040519081016040528092919081815260200182805461042690611824565b80156104735780601f1061044857610100808354040283529160200191610473565b820191906000526020600020905b81548152906001019060200180831161045657829003601f168201915b505050505081526020016001820154815260200160028201805480602002602001604051908101604052809291908181526020016000905b828210156105575783829060005260206000200180546104ca90611824565b80601f01602080910402602001604051908101604052809291908181526020018280546104f690611824565b80156105435780601f1061051857610100808354040283529160200191610543565b820191906000526020600020905b81548152906001019060200180831161052657829003601f168201915b5050505050815260200190600101906104ab565b50505050815250509050919050565b80600260003373ffffffffffffffffffffffffffffffffffffffff1673ffffffffffffffffffffffffffffffffffffffff16815260200190815260200160002060000190816105b591906119f7565b5042600260003373ffffffffffffffffffffffffffffffffffffffff1673ffffffffffffffffffffffffffffffffffffffff1681526020019081526020016000206001018190555050565b600061063560008054906101000a900473ffffffffffffffffffffffffffffffffffffffff1683610d4f90919063ffffffff16565b9050919050565b610644610e62565b600382604051610654919061172c565b90815260200160405180910390206040518060e00160405290816000820160009054906101000a900473ffffffffffffffffffffffffffffffffffffffff1673ffffffffffffffffffffffffffffffffffffffff1673ffffffffffffffffffffffffffffffffffffffff1681526020016001820180546106d390611824565b80601f01602080910402602001604051908101604052809291908181526020018280546106ff90611824565b801561074c5780601f106107215761010080835404028352916020019161074c565b820191906000526020600020905b81548152906001019060200180831161072f57829003601f168201915b5050505050815260200160028201805461076590611824565b80601f016020809104026020016040519081016040528092919081815260200182805461079190611824565b80156107de5780601f106107b3576101008083540402835291602001916107de565b820191906000526020600020905b8154815290600101906020018083116107c157829003601f168201915b505050505081526020016003820154815260200160048201805461080190611824565b80601f016020809104026020016040519081016040528092919081815260200182805461082d90611824565b801561087a5780601f1061084f5761010080835404028352916020019161087a565b820191906000526020600020905b81548152906001019060200180831161085d57829003601f168201915b5050505050815260200160058201805461089390611824565b80601f01602080910402602001604051908101604052809291908181526020018280546108bf90611824565b801561090c5780601f106108e15761010080835404028352916020019161090c565b820191906000526020600020905b8154815290600101906020018083116108ef57829003601f168201915b505050505081526020016006820154815250509050919050565b60606001805480602002602001604051908101604052809291908181526020016000905b828210156109f657838290600052602060002001805461096990611824565b80601f016020809104026020016040519081016040528092919081815260200182805461099590611824565b80156109e25780601f106109b7576101008083540402835291602001916109e2565b820191906000526020600020905b8154815290600101906020018083116109c557829003601f168201915b50505050508152602001906001019061094a565b50505050905090565b60008060009054906101000a900473ffffffffffffffffffffffffffffffffffffffff16905090565b6060600260008373ffffffffffffffffffffffffffffffffffffffff1673ffffffffffffffffffffffffffffffffffffffff168152602001908152602001600020600201805480602002602001604051908101604052809291908181526020016000905b82821015610b38578382906000526020600020018054610aab90611824565b80601f0160208091040260200160405190810160405280929190818152602001828054610ad790611824565b8015610b245780601f10610af957610100808354040283529160200191610b24565b820191906000526020600020905b815481529060010190602001808311610b0757829003601f168201915b505050505081526020019060010190610a8c565b505050509050919050565b6000610b7860008054906101000a900473ffffffffffffffffffffffffffffffffffffffff1684610d4f90919063ffffffff16565b905060006040518060e001604052803373ffffffffffffffffffffffffffffffffffffffff168152602001888152602001848152602001428152602001878152602001868152602001838152509050600260003373ffffffffffffffffffffffffffffffffffffffff1673ffffffffffffffffffffffffffffffffffffffff16815260200190815260200160002060020186908060018154018082558091505060019003906000526020600020016000909190919091509081610c3b91906119f7565b5080600387604051610c4d919061172c565b908152602001604051809103902060008201518160000160006101000a81548173ffffffffffffffffffffffffffffffffffffffff021916908373ffffffffffffffffffffffffffffffffffffffff1602179055506020820151816001019081610cb791906119f7565b506040820151816002019081610ccd91906119f7565b50606082015181600301556080820151816004019081610ced91906119f7565b5060a0820151816005019081610d0391906119f7565b5060c08201518160060155905050600186908060018154018082558091505060019003906000526020600020016000909190919091509081610d4591906119f7565b5050505050505050565b600080610d5b83610d78565b905060008482610d6b9190611af8565b9050809250505092915050565b6000808273ffffffffffffffffffffffffffffffffffffffff1663feaf968c6040518163ffffffff1660e01b815260040160a060405180830381865afa158015610dc6573d6000803e3d6000fd5b505050506040513d601f19601f82011682018060405250810190610dea9190611bc7565b50505091505060006402540be40082610e039190611af8565b90506000670de0b6b3a76400009050600082670de0b6b3a764000083610e299190611af8565b610e339190611c71565b905080945050505050919050565b60405180606001604052806060815260200160008152602001606081525090565b6040518060e00160405280600073ffffffffffffffffffffffffffffffffffffffff1681526020016060815260200160608152602001600081526020016060815260200160608152602001600081525090565b6000604051905090565b600080fd5b600080fd5b600080fd5b600080fd5b6000601f19601f8301169050919050565b7f4e487b7100000000000000000000000000000000000000000000000000000000600052604160045260246000fd5b610f1c82610ed3565b810181811067ffffffffffffffff82111715610f3b57610f3a610ee4565b5b80604052505050565b6000610f4e610eb5565b9050610f5a8282610f13565b919050565b600067ffffffffffffffff821115610f7a57610f79610ee4565b5b610f8382610ed3565b9050602081019050919050565b82818337600083830152505050565b6000610fb2610fad84610f5f565b610f44565b905082815260208101848484011115610fce57610fcd610ece565b5b610fd9848285610f90565b509392505050565b600082601f830112610ff657610ff5610ec9565b5b8135611006848260208601610f9f565b91505092915050565b6000819050919050565b6110228161100f565b811461102d57600080fd5b50565b60008135905061103f81611019565b92915050565b6000806040838503121561105c5761105b610ebf565b5b600083013567ffffffffffffffff81111561107a57611079610ec4565b5b61108685828601610fe1565b925050602061109785828601611030565b9150509250929050565b600081519050919050565b600082825260208201905092915050565b60005b838110156110db5780820151818401526020810190506110c0565b60008484015250505050565b60006110f2826110a1565b6110fc81856110ac565b935061110c8185602086016110bd565b61111581610ed3565b840191505092915050565b6000602082019050818103600083015261113a81846110e7565b905092915050565b600073ffffffffffffffffffffffffffffffffffffffff82169050919050565b600061116d82611142565b9050919050565b61117d81611162565b811461118857600080fd5b50565b60008135905061119a81611174565b92915050565b6000602082840312156111b6576111b5610ebf565b5b60006111c48482850161118b565b91505092915050565b600082825260208201905092915050565b60006111e9826110a1565b6111f381856111cd565b93506112038185602086016110bd565b61120c81610ed3565b840191505092915050565b6112208161100f565b82525050565b600081519050919050565b600082825260208201905092915050565b6000819050602082019050919050565b600061125e83836111de565b905092915050565b6000602082019050919050565b600061127e82611226565b6112888185611231565b93508360208202850161129a85611242565b8060005b858110156112d657848403895281516112b78582611252565b94506112c283611266565b925060208a0199505060018101905061129e565b50829750879550505050505092915050565b6000606083016000830151848203600086015261130582826111de565b915050602083015161131a6020860182611217565b50604083015184820360408601526113328282611273565b9150508091505092915050565b6000602082019050818103600083015261135981846112e8565b905092915050565b60006020828403121561137757611376610ebf565b5b600082013567ffffffffffffffff81111561139557611394610ec4565b5b6113a184828501610fe1565b91505092915050565b6000602082840312156113c0576113bf610ebf565b5b60006113ce84828501611030565b91505092915050565b6113e08161100f565b82525050565b60006020820190506113fb60008301846113d7565b92915050565b61140a81611162565b82525050565b600060e0830160008301516114286000860182611401565b506020830151848203602086015261144082826111de565b9150506040830151848203604086015261145a82826111de565b915050606083015161146f6060860182611217565b506080830151848203608086015261148782826111de565b91505060a083015184820360a08601526114a182826111de565b91505060c08301516114b660c0860182611217565b508091505092915050565b600060208201905081810360008301526114db8184611410565b905092915050565b600082825260208201905092915050565b60006114ff82611226565b61150981856114e3565b93508360208202850161151b85611242565b8060005b8581101561155757848403895281516115388582611252565b945061154383611266565b925060208a0199505060018101905061151f565b50829750879550505050505092915050565b6000602082019050818103600083015261158381846114f4565b905092915050565b6000819050919050565b60006115b06115ab6115a684611142565b61158b565b611142565b9050919050565b60006115c282611595565b9050919050565b60006115d4826115b7565b9050919050565b6115e4816115c9565b82525050565b60006020820190506115ff60008301846115db565b92915050565b600080600080600060a0868803121561162157611620610ebf565b5b600086013567ffffffffffffffff81111561163f5761163e610ec4565b5b61164b88828901610fe1565b955050602086013567ffffffffffffffff81111561166c5761166b610ec4565b5b61167888828901610fe1565b945050604086013567ffffffffffffffff81111561169957611698610ec4565b5b6116a588828901610fe1565b93505060606116b688828901611030565b925050608086013567ffffffffffffffff8111156116d7576116d6610ec4565b5b6116e388828901610fe1565b9150509295509295909350565b600081905092915050565b6000611706826110a1565b61171081856116f0565b93506117208185602086016110bd565b80840191505092915050565b600061173882846116fb565b915081905092915050565b600081905092915050565b50565b600061175e600083611743565b91506117698261174e565b600082019050919050565b600061177f82611751565b9150819050919050565b7f636f727265637420616d6f756e74206f66206574686572206e6f742073656e74600082015250565b60006117bf6020836110ac565b91506117ca82611789565b602082019050919050565b600060208201905081810360008301526117ee816117b2565b9050919050565b7f4e487b7100000000000000000000000000000000000000000000000000000000600052602260045260246000fd5b6000600282049050600182168061183c57607f821691505b60208210810361184f5761184e6117f5565b5b50919050565b60008190508160005260206000209050919050565b60006020601f8301049050919050565b600082821b905092915050565b6000600883026118b77fffffffffffffffffffffffffffffffffffffffffffffffffffffffffffffffff8261187a565b6118c1868361187a565b95508019841693508086168417925050509392505050565b60006118f46118ef6118ea8461100f565b61158b565b61100f565b9050919050565b6000819050919050565b61190e836118d9565b61192261191a826118fb565b848454611887565b825550505050565b600090565b61193761192a565b611942818484611905565b505050565b5b818110156119665761195b60008261192f565b600181019050611948565b5050565b601f8211156119ab5761197c81611855565b6119858461186a565b81016020851015611994578190505b6119a86119a08561186a565b830182611947565b50505b505050565b600082821c905092915050565b60006119ce600019846008026119b0565b1980831691505092915050565b60006119e783836119bd565b9150826002028217905092915050565b611a00826110a1565b67ffffffffffffffff811115611a1957611a18610ee4565b5b611a238254611824565b611a2e82828561196a565b600060209050601f831160018114611a615760008415611a4f578287015190505b611a5985826119db565b865550611ac1565b601f198416611a6f86611855565b60005b82811015611a9757848901518255600182019150602085019450602081019050611a72565b86831015611ab45784890151611ab0601f8916826119bd565b8355505b6001600288020188555050505b505050505050565b7f4e487b7100000000000000000000000000000000000000000000000000000000600052601160045260246000fd5b6000611b038261100f565b9150611b0e8361100f565b9250828202611b1c8161100f565b91508282048414831517611b3357611b32611ac9565b5b5092915050565b600069ffffffffffffffffffff82169050919050565b611b5981611b3a565b8114611b6457600080fd5b50565b600081519050611b7681611b50565b92915050565b6000819050919050565b611b8f81611b7c565b8114611b9a57600080fd5b50565b600081519050611bac81611b86565b92915050565b600081519050611bc181611019565b92915050565b600080600080600060a08688031215611be357611be2610ebf565b5b6000611bf188828901611b67565b9550506020611c0288828901611b9d565b9450506040611c1388828901611bb2565b9350506060611c2488828901611bb2565b9250506080611c3588828901611b67565b9150509295509295909350565b7f4e487b7100000000000000000000000000000000000000000000000000000000600052601260045260246000fd5b6000611c7c8261100f565b9150611c878361100f565b925082611c9757611c96611c42565b5b82820490509291505056fea2646970667358221220d946d24407903b719635c1be39f629b35889c57c432d1e7c8a6c8f39e162ce5564736f6c63430008120033",
  "devdoc": {
    "kind": "dev",
    "methods": {},
    "version": 1
  },
  "userdoc": {
    "kind": "user",
    "methods": {},
    "version": 1
  },
  "storageLayout": {
    "storage": [
      {
        "astId": 54,
        "contract": "contracts/Library.sol:Library",
        "label": "s_priceFeed",
        "offset": 0,
        "slot": "0",
        "type": "t_contract(AggregatorV3Interface)45"
      },
      {
        "astId": 57,
        "contract": "contracts/Library.sol:Library",
        "label": "allBookCids",
        "offset": 0,
        "slot": "1",
        "type": "t_array(t_string_storage)dyn_storage"
      },
      {
        "astId": 110,
        "contract": "contracts/Library.sol:Library",
        "label": "authorMapping",
        "offset": 0,
        "slot": "2",
        "type": "t_mapping(t_address,t_struct(Author)90_storage)"
      },
      {
        "astId": 115,
        "contract": "contracts/Library.sol:Library",
        "label": "bookMapping",
        "offset": 0,
        "slot": "3",
        "type": "t_mapping(t_string_memory_ptr,t_struct(Book)105_storage)"
      }
    ],
    "types": {
      "t_address": {
        "encoding": "inplace",
        "label": "address",
        "numberOfBytes": "20"
      },
      "t_array(t_string_storage)dyn_storage": {
        "base": "t_string_storage",
        "encoding": "dynamic_array",
        "label": "string[]",
        "numberOfBytes": "32"
      },
      "t_contract(AggregatorV3Interface)45": {
        "encoding": "inplace",
        "label": "contract AggregatorV3Interface",
        "numberOfBytes": "20"
      },
      "t_mapping(t_address,t_struct(Author)90_storage)": {
        "encoding": "mapping",
        "key": "t_address",
        "label": "mapping(address => struct Library.Author)",
        "numberOfBytes": "32",
        "value": "t_struct(Author)90_storage"
      },
      "t_mapping(t_string_memory_ptr,t_struct(Book)105_storage)": {
        "encoding": "mapping",
        "key": "t_string_memory_ptr",
        "label": "mapping(string => struct Library.Book)",
        "numberOfBytes": "32",
        "value": "t_struct(Book)105_storage"
      },
      "t_string_memory_ptr": {
        "encoding": "bytes",
        "label": "string",
        "numberOfBytes": "32"
      },
      "t_string_storage": {
        "encoding": "bytes",
        "label": "string",
        "numberOfBytes": "32"
      },
      "t_struct(Author)90_storage": {
        "encoding": "inplace",
        "label": "struct Library.Author",
        "members": [
          {
            "astId": 84,
            "contract": "contracts/Library.sol:Library",
            "label": "name",
            "offset": 0,
            "slot": "0",
            "type": "t_string_storage"
          },
          {
            "astId": 86,
            "contract": "contracts/Library.sol:Library",
            "label": "joinDate",
            "offset": 0,
            "slot": "1",
            "type": "t_uint256"
          },
          {
            "astId": 89,
            "contract": "contracts/Library.sol:Library",
            "label": "bookCidArray",
            "offset": 0,
            "slot": "2",
            "type": "t_array(t_string_storage)dyn_storage"
          }
        ],
        "numberOfBytes": "96"
      },
      "t_struct(Book)105_storage": {
        "encoding": "inplace",
        "label": "struct Library.Book",
        "members": [
          {
            "astId": 92,
            "contract": "contracts/Library.sol:Library",
            "label": "theAddress",
            "offset": 0,
            "slot": "0",
            "type": "t_address"
          },
          {
            "astId": 94,
            "contract": "contracts/Library.sol:Library",
            "label": "title",
            "offset": 0,
            "slot": "1",
            "type": "t_string_storage"
          },
          {
            "astId": 96,
            "contract": "contracts/Library.sol:Library",
            "label": "description",
            "offset": 0,
            "slot": "2",
            "type": "t_string_storage"
          },
          {
            "astId": 98,
            "contract": "contracts/Library.sol:Library",
            "label": "uploadDate",
            "offset": 0,
            "slot": "3",
            "type": "t_uint256"
          },
          {
            "astId": 100,
            "contract": "contracts/Library.sol:Library",
            "label": "bookCid",
            "offset": 0,
            "slot": "4",
            "type": "t_string_storage"
          },
          {
            "astId": 102,
            "contract": "contracts/Library.sol:Library",
            "label": "coverCid",
            "offset": 0,
            "slot": "5",
            "type": "t_string_storage"
          },
          {
            "astId": 104,
            "contract": "contracts/Library.sol:Library",
            "label": "priceInEth",
            "offset": 0,
            "slot": "6",
            "type": "t_uint256"
          }
        ],
        "numberOfBytes": "224"
      },
      "t_uint256": {
        "encoding": "inplace",
        "label": "uint256",
        "numberOfBytes": "32"
      }
    }
  }
}