{
  "address": "0xddab99b21E11D1A2DF42303Edd0BFaad648D0f52",
  "abi": [
    {
      "anonymous": false,
      "inputs": [
        {
          "indexed": true,
          "internalType": "address",
          "name": "theAddress",
          "type": "address"
        },
        {
          "indexed": false,
          "internalType": "string",
          "name": "paperCid",
          "type": "string"
        }
      ],
      "name": "PaperUploaded",
      "type": "event"
    },
    {
      "anonymous": false,
      "inputs": [
        {
          "indexed": true,
          "internalType": "address",
          "name": "theAddress",
          "type": "address"
        },
        {
          "indexed": false,
          "internalType": "string",
          "name": "theName",
          "type": "string"
        }
      ],
      "name": "ProfileCreated",
      "type": "event"
    },
    {
      "inputs": [
        {
          "internalType": "string",
          "name": "_title",
          "type": "string"
        },
        {
          "internalType": "string",
          "name": "cid",
          "type": "string"
        }
      ],
      "name": "addPaper",
      "outputs": [],
      "stateMutability": "nonpayable",
      "type": "function"
    },
    {
      "inputs": [
        {
          "internalType": "string",
          "name": "cid",
          "type": "string"
        }
      ],
      "name": "cidToPaper",
      "outputs": [
        {
          "components": [
            {
              "internalType": "address",
              "name": "theAddress",
              "type": "address"
            },
            {
              "internalType": "string",
              "name": "title",
              "type": "string"
            },
            {
              "internalType": "uint256",
              "name": "uploadDate",
              "type": "uint256"
            },
            {
              "internalType": "string",
              "name": "paperCid",
              "type": "string"
            }
          ],
          "internalType": "struct Research.ResearchPaper",
          "name": "",
          "type": "tuple"
        }
      ],
      "stateMutability": "view",
      "type": "function"
    },
    {
      "inputs": [
        {
          "internalType": "string",
          "name": "theName",
          "type": "string"
        }
      ],
      "name": "newResearcher",
      "outputs": [],
      "stateMutability": "nonpayable",
      "type": "function"
    },
    {
      "inputs": [],
      "name": "viewAllResearchCids",
      "outputs": [
        {
          "internalType": "string[]",
          "name": "",
          "type": "string[]"
        }
      ],
      "stateMutability": "view",
      "type": "function"
    },
    {
      "inputs": [
        {
          "internalType": "address",
          "name": "theAddress",
          "type": "address"
        }
      ],
      "name": "viewOnesPapers",
      "outputs": [
        {
          "internalType": "string[]",
          "name": "",
          "type": "string[]"
        }
      ],
      "stateMutability": "view",
      "type": "function"
    },
    {
      "inputs": [
        {
          "internalType": "address",
          "name": "theAddress",
          "type": "address"
        }
      ],
      "name": "viewResearcher",
      "outputs": [
        {
          "components": [
            {
              "internalType": "string",
              "name": "name",
              "type": "string"
            },
            {
              "internalType": "uint256",
              "name": "joinDate",
              "type": "uint256"
            },
            {
              "internalType": "string[]",
              "name": "paperCidArray",
              "type": "string[]"
            }
          ],
          "internalType": "struct Research.Researcher",
          "name": "",
          "type": "tuple"
        }
      ],
      "stateMutability": "view",
      "type": "function"
    }
  ],
  "transactionHash": "0x3e0b6dd0490343e6df27430dc996be18840f337571b93e57c66c259115dbad5f",
  "args": [],
  "numDeployments": 12,
  "solcInputHash": "45e8296d6428d5039f7859de822298d3",
  "bytecode": "0x608060405234801561001057600080fd5b50611270806100206000396000f3fe608060405234801561001057600080fd5b50600436106100625760003560e01c806306be57c11461006757806320439c11146100975780639314b9af146100c7578063c12f67a2146100e3578063f338c8e8146100ff578063f836b6611461012f575b600080fd5b610081600480360381019061007c9190610aa7565b61014d565b60405161008e9190610c33565b60405180910390f35b6100b160048036038101906100ac9190610c81565b610309565b6040516100be9190610dc7565b60405180910390f35b6100e160048036038101906100dc9190610de9565b6104d7565b005b6100fd60048036038101906100f89190610aa7565b610660565b005b61011960048036038101906101149190610c81565b6106fa565b6040516101269190610ee7565b60405180910390f35b610137610815565b6040516101449190610ee7565b60405180910390f35b6101556108ee565b6002826040516101659190610f45565b90815260200160405180910390206040518060800160405290816000820160009054906101000a900473ffffffffffffffffffffffffffffffffffffffff1673ffffffffffffffffffffffffffffffffffffffff1673ffffffffffffffffffffffffffffffffffffffff1681526020016001820180546101e490610f8b565b80601f016020809104026020016040519081016040528092919081815260200182805461021090610f8b565b801561025d5780601f106102325761010080835404028352916020019161025d565b820191906000526020600020905b81548152906001019060200180831161024057829003601f168201915b505050505081526020016002820154815260200160038201805461028090610f8b565b80601f01602080910402602001604051908101604052809291908181526020018280546102ac90610f8b565b80156102f95780601f106102ce576101008083540402835291602001916102f9565b820191906000526020600020905b8154815290600101906020018083116102dc57829003601f168201915b5050505050815250509050919050565b61031161092c565b600160008373ffffffffffffffffffffffffffffffffffffffff1673ffffffffffffffffffffffffffffffffffffffff16815260200190815260200160002060405180606001604052908160008201805461036b90610f8b565b80601f016020809104026020016040519081016040528092919081815260200182805461039790610f8b565b80156103e45780601f106103b9576101008083540402835291602001916103e4565b820191906000526020600020905b8154815290600101906020018083116103c757829003601f168201915b505050505081526020016001820154815260200160028201805480602002602001604051908101604052809291908181526020016000905b828210156104c857838290600052602060002001805461043b90610f8b565b80601f016020809104026020016040519081016040528092919081815260200182805461046790610f8b565b80156104b45780601f10610489576101008083540402835291602001916104b4565b820191906000526020600020905b81548152906001019060200180831161049757829003601f168201915b50505050508152602001906001019061041c565b50505050815250509050919050565b600060405180608001604052803373ffffffffffffffffffffffffffffffffffffffff168152602001848152602001428152602001838152509050600160003373ffffffffffffffffffffffffffffffffffffffff1673ffffffffffffffffffffffffffffffffffffffff168152602001908152602001600020600201829080600181540180825580915050600190039060005260206000200160009091909190915090816105869190611168565b50806002836040516105989190610f45565b908152602001604051809103902060008201518160000160006101000a81548173ffffffffffffffffffffffffffffffffffffffff021916908373ffffffffffffffffffffffffffffffffffffffff16021790555060208201518160010190816106029190611168565b506040820151816002015560608201518160030190816106229190611168565b5090505060008290806001815401808255809150506001900390600052602060002001600090919091909150908161065a9190611168565b50505050565b80600160003373ffffffffffffffffffffffffffffffffffffffff1673ffffffffffffffffffffffffffffffffffffffff16815260200190815260200160002060000190816106af9190611168565b5042600160003373ffffffffffffffffffffffffffffffffffffffff1673ffffffffffffffffffffffffffffffffffffffff1681526020019081526020016000206001018190555050565b6060600160008373ffffffffffffffffffffffffffffffffffffffff1673ffffffffffffffffffffffffffffffffffffffff168152602001908152602001600020600201805480602002602001604051908101604052809291908181526020016000905b8282101561080a57838290600052602060002001805461077d90610f8b565b80601f01602080910402602001604051908101604052809291908181526020018280546107a990610f8b565b80156107f65780601f106107cb576101008083540402835291602001916107f6565b820191906000526020600020905b8154815290600101906020018083116107d957829003601f168201915b50505050508152602001906001019061075e565b505050509050919050565b60606000805480602002602001604051908101604052809291908181526020016000905b828210156108e557838290600052602060002001805461085890610f8b565b80601f016020809104026020016040519081016040528092919081815260200182805461088490610f8b565b80156108d15780601f106108a6576101008083540402835291602001916108d1565b820191906000526020600020905b8154815290600101906020018083116108b457829003601f168201915b505050505081526020019060010190610839565b50505050905090565b6040518060800160405280600073ffffffffffffffffffffffffffffffffffffffff1681526020016060815260200160008152602001606081525090565b60405180606001604052806060815260200160008152602001606081525090565b6000604051905090565b600080fd5b600080fd5b600080fd5b600080fd5b6000601f19601f8301169050919050565b7f4e487b7100000000000000000000000000000000000000000000000000000000600052604160045260246000fd5b6109b48261096b565b810181811067ffffffffffffffff821117156109d3576109d261097c565b5b80604052505050565b60006109e661094d565b90506109f282826109ab565b919050565b600067ffffffffffffffff821115610a1257610a1161097c565b5b610a1b8261096b565b9050602081019050919050565b82818337600083830152505050565b6000610a4a610a45846109f7565b6109dc565b905082815260208101848484011115610a6657610a65610966565b5b610a71848285610a28565b509392505050565b600082601f830112610a8e57610a8d610961565b5b8135610a9e848260208601610a37565b91505092915050565b600060208284031215610abd57610abc610957565b5b600082013567ffffffffffffffff811115610adb57610ada61095c565b5b610ae784828501610a79565b91505092915050565b600073ffffffffffffffffffffffffffffffffffffffff82169050919050565b6000610b1b82610af0565b9050919050565b610b2b81610b10565b82525050565b600081519050919050565b600082825260208201905092915050565b60005b83811015610b6b578082015181840152602081019050610b50565b60008484015250505050565b6000610b8282610b31565b610b8c8185610b3c565b9350610b9c818560208601610b4d565b610ba58161096b565b840191505092915050565b6000819050919050565b610bc381610bb0565b82525050565b6000608083016000830151610be16000860182610b22565b5060208301518482036020860152610bf98282610b77565b9150506040830151610c0e6040860182610bba565b5060608301518482036060860152610c268282610b77565b9150508091505092915050565b60006020820190508181036000830152610c4d8184610bc9565b905092915050565b610c5e81610b10565b8114610c6957600080fd5b50565b600081359050610c7b81610c55565b92915050565b600060208284031215610c9757610c96610957565b5b6000610ca584828501610c6c565b91505092915050565b600081519050919050565b600082825260208201905092915050565b6000819050602082019050919050565b6000610ce68383610b77565b905092915050565b6000602082019050919050565b6000610d0682610cae565b610d108185610cb9565b935083602082028501610d2285610cca565b8060005b85811015610d5e5784840389528151610d3f8582610cda565b9450610d4a83610cee565b925060208a01995050600181019050610d26565b50829750879550505050505092915050565b60006060830160008301518482036000860152610d8d8282610b77565b9150506020830151610da26020860182610bba565b5060408301518482036040860152610dba8282610cfb565b9150508091505092915050565b60006020820190508181036000830152610de18184610d70565b905092915050565b60008060408385031215610e0057610dff610957565b5b600083013567ffffffffffffffff811115610e1e57610e1d61095c565b5b610e2a85828601610a79565b925050602083013567ffffffffffffffff811115610e4b57610e4a61095c565b5b610e5785828601610a79565b9150509250929050565b600082825260208201905092915050565b6000610e7d82610cae565b610e878185610e61565b935083602082028501610e9985610cca565b8060005b85811015610ed55784840389528151610eb68582610cda565b9450610ec183610cee565b925060208a01995050600181019050610e9d565b50829750879550505050505092915050565b60006020820190508181036000830152610f018184610e72565b905092915050565b600081905092915050565b6000610f1f82610b31565b610f298185610f09565b9350610f39818560208601610b4d565b80840191505092915050565b6000610f518284610f14565b915081905092915050565b7f4e487b7100000000000000000000000000000000000000000000000000000000600052602260045260246000fd5b60006002820490506001821680610fa357607f821691505b602082108103610fb657610fb5610f5c565b5b50919050565b60008190508160005260206000209050919050565b60006020601f8301049050919050565b600082821b905092915050565b60006008830261101e7fffffffffffffffffffffffffffffffffffffffffffffffffffffffffffffffff82610fe1565b6110288683610fe1565b95508019841693508086168417925050509392505050565b6000819050919050565b600061106561106061105b84610bb0565b611040565b610bb0565b9050919050565b6000819050919050565b61107f8361104a565b61109361108b8261106c565b848454610fee565b825550505050565b600090565b6110a861109b565b6110b3818484611076565b505050565b5b818110156110d7576110cc6000826110a0565b6001810190506110b9565b5050565b601f82111561111c576110ed81610fbc565b6110f684610fd1565b81016020851015611105578190505b61111961111185610fd1565b8301826110b8565b50505b505050565b600082821c905092915050565b600061113f60001984600802611121565b1980831691505092915050565b6000611158838361112e565b9150826002028217905092915050565b61117182610b31565b67ffffffffffffffff81111561118a5761118961097c565b5b6111948254610f8b565b61119f8282856110db565b600060209050601f8311600181146111d257600084156111c0578287015190505b6111ca858261114c565b865550611232565b601f1984166111e086610fbc565b60005b82811015611208578489015182556001820191506020850194506020810190506111e3565b868310156112255784890151611221601f89168261112e565b8355505b6001600288020188555050505b50505050505056fea264697066735822122062acb8547f7b370bc3554b93f56cecaa54ca7b273e140997e2e3e671d01d4fb364736f6c63430008120033",
  "devdoc": {
    "kind": "dev",
    "methods": {},
    "version": 1
  },
  "userdoc": {
    "kind": "user",
    "methods": {},
    "version": 1
  },
  "storageLayout": {
    "storage": [
      {
        "astId": 396,
        "contract": "contracts/Research.sol:Research",
        "label": "allResearchCids",
        "offset": 0,
        "slot": "0",
        "type": "t_array(t_string_storage)dyn_storage"
      },
      {
        "astId": 430,
        "contract": "contracts/Research.sol:Research",
        "label": "profileMapping",
        "offset": 0,
        "slot": "1",
        "type": "t_mapping(t_address,t_struct(Researcher)416_storage)"
      },
      {
        "astId": 435,
        "contract": "contracts/Research.sol:Research",
        "label": "paperMapping",
        "offset": 0,
        "slot": "2",
        "type": "t_mapping(t_string_memory_ptr,t_struct(ResearchPaper)425_storage)"
      }
    ],
    "types": {
      "t_address": {
        "encoding": "inplace",
        "label": "address",
        "numberOfBytes": "20"
      },
      "t_array(t_string_storage)dyn_storage": {
        "base": "t_string_storage",
        "encoding": "dynamic_array",
        "label": "string[]",
        "numberOfBytes": "32"
      },
      "t_mapping(t_address,t_struct(Researcher)416_storage)": {
        "encoding": "mapping",
        "key": "t_address",
        "label": "mapping(address => struct Research.Researcher)",
        "numberOfBytes": "32",
        "value": "t_struct(Researcher)416_storage"
      },
      "t_mapping(t_string_memory_ptr,t_struct(ResearchPaper)425_storage)": {
        "encoding": "mapping",
        "key": "t_string_memory_ptr",
        "label": "mapping(string => struct Research.ResearchPaper)",
        "numberOfBytes": "32",
        "value": "t_struct(ResearchPaper)425_storage"
      },
      "t_string_memory_ptr": {
        "encoding": "bytes",
        "label": "string",
        "numberOfBytes": "32"
      },
      "t_string_storage": {
        "encoding": "bytes",
        "label": "string",
        "numberOfBytes": "32"
      },
      "t_struct(ResearchPaper)425_storage": {
        "encoding": "inplace",
        "label": "struct Research.ResearchPaper",
        "members": [
          {
            "astId": 418,
            "contract": "contracts/Research.sol:Research",
            "label": "theAddress",
            "offset": 0,
            "slot": "0",
            "type": "t_address"
          },
          {
            "astId": 420,
            "contract": "contracts/Research.sol:Research",
            "label": "title",
            "offset": 0,
            "slot": "1",
            "type": "t_string_storage"
          },
          {
            "astId": 422,
            "contract": "contracts/Research.sol:Research",
            "label": "uploadDate",
            "offset": 0,
            "slot": "2",
            "type": "t_uint256"
          },
          {
            "astId": 424,
            "contract": "contracts/Research.sol:Research",
            "label": "paperCid",
            "offset": 0,
            "slot": "3",
            "type": "t_string_storage"
          }
        ],
        "numberOfBytes": "128"
      },
      "t_struct(Researcher)416_storage": {
        "encoding": "inplace",
        "label": "struct Research.Researcher",
        "members": [
          {
            "astId": 410,
            "contract": "contracts/Research.sol:Research",
            "label": "name",
            "offset": 0,
            "slot": "0",
            "type": "t_string_storage"
          },
          {
            "astId": 412,
            "contract": "contracts/Research.sol:Research",
            "label": "joinDate",
            "offset": 0,
            "slot": "1",
            "type": "t_uint256"
          },
          {
            "astId": 415,
            "contract": "contracts/Research.sol:Research",
            "label": "paperCidArray",
            "offset": 0,
            "slot": "2",
            "type": "t_array(t_string_storage)dyn_storage"
          }
        ],
        "numberOfBytes": "96"
      },
      "t_uint256": {
        "encoding": "inplace",
        "label": "uint256",
        "numberOfBytes": "32"
      }
    }
  }
}