{
  "address": "0xA81F6E414C18494BeeB87ec9DEf27cD2497d5927",
  "abi": [
    {
      "anonymous": false,
      "inputs": [
        {
          "indexed": true,
          "internalType": "address",
          "name": "theAddress",
          "type": "address"
        },
        {
          "indexed": false,
          "internalType": "string",
          "name": "paperCid",
          "type": "string"
        }
      ],
      "name": "PaperUploaded",
      "type": "event"
    },
    {
      "anonymous": false,
      "inputs": [
        {
          "indexed": true,
          "internalType": "address",
          "name": "theAddress",
          "type": "address"
        },
        {
          "indexed": false,
          "internalType": "string",
          "name": "theName",
          "type": "string"
        }
      ],
      "name": "ProfileCreated",
      "type": "event"
    },
    {
      "anonymous": false,
      "inputs": [
        {
          "indexed": true,
          "internalType": "address",
          "name": "theAddress",
          "type": "address"
        }
      ],
      "name": "ViewedLmao",
      "type": "event"
    },
    {
      "inputs": [
        {
          "internalType": "string",
          "name": "_title",
          "type": "string"
        },
        {
          "internalType": "string",
          "name": "cid",
          "type": "string"
        }
      ],
      "name": "addPaper",
      "outputs": [],
      "stateMutability": "nonpayable",
      "type": "function"
    },
    {
      "inputs": [
        {
          "internalType": "string",
          "name": "cid",
          "type": "string"
        }
      ],
      "name": "cidToPaper",
      "outputs": [
        {
          "components": [
            {
              "internalType": "address",
              "name": "theAddress",
              "type": "address"
            },
            {
              "internalType": "string",
              "name": "title",
              "type": "string"
            },
            {
              "internalType": "uint256",
              "name": "uploadDate",
              "type": "uint256"
            },
            {
              "internalType": "string",
              "name": "paperCid",
              "type": "string"
            }
          ],
          "internalType": "struct Research.ResearchPaper",
          "name": "",
          "type": "tuple"
        }
      ],
      "stateMutability": "nonpayable",
      "type": "function"
    },
    {
      "inputs": [],
      "name": "getTime",
      "outputs": [
        {
          "internalType": "uint256",
          "name": "",
          "type": "uint256"
        }
      ],
      "stateMutability": "view",
      "type": "function"
    },
    {
      "inputs": [
        {
          "internalType": "string",
          "name": "theName",
          "type": "string"
        }
      ],
      "name": "newResearcher",
      "outputs": [],
      "stateMutability": "nonpayable",
      "type": "function"
    },
    {
      "inputs": [
        {
          "internalType": "address",
          "name": "theAddress",
          "type": "address"
        }
      ],
      "name": "viewOnesPapers",
      "outputs": [
        {
          "internalType": "string[]",
          "name": "",
          "type": "string[]"
        }
      ],
      "stateMutability": "view",
      "type": "function"
    },
    {
      "inputs": [
        {
          "internalType": "address",
          "name": "theAddress",
          "type": "address"
        }
      ],
      "name": "viewResearcher",
      "outputs": [
        {
          "components": [
            {
              "internalType": "string",
              "name": "name",
              "type": "string"
            },
            {
              "internalType": "uint256",
              "name": "joinDate",
              "type": "uint256"
            },
            {
              "internalType": "string[]",
              "name": "paperCidArray",
              "type": "string[]"
            }
          ],
          "internalType": "struct Research.Researcher",
          "name": "",
          "type": "tuple"
        }
      ],
      "stateMutability": "view",
      "type": "function"
    }
  ],
  "transactionHash": "0x16751214bf93e75b87e72ba2a147009dfd335780d83adda397ca742956a69d89",
  "args": [],
  "numDeployments": 7,
  "solcInputHash": "0373490a8256546ede64c63f1f14d649",
  "bytecode": "0x608060405234801561001057600080fd5b506112da806100206000396000f3fe608060405234801561001057600080fd5b50600436106100625760003560e01c806306be57c11461006757806320439c1114610097578063557ed1ba146100c75780639314b9af146100e5578063c12f67a214610101578063f338c8e81461011d575b600080fd5b610081600480360381019061007c9190610a7b565b61014d565b60405161008e9190610c07565b60405180910390f35b6100b160048036038101906100ac9190610c55565b61034c565b6040516100be9190610d9b565b60405180910390f35b6100cf610519565b6040516100dc9190610dcc565b60405180910390f35b6100ff60048036038101906100fa9190610de7565b610521565b005b61011b60048036038101906101169190610a7b565b6106c2565b005b61013760048036038101906101329190610c55565b6107a8565b6040516101449190610ee5565b60405180910390f35b6101556108c2565b3373ffffffffffffffffffffffffffffffffffffffff167f589cd1fd2bf292cbb3bc3d8b783607458533d4e04a9bec05563b04f21a95481760405160405180910390a26001826040516101a89190610f43565b90815260200160405180910390206040518060800160405290816000820160009054906101000a900473ffffffffffffffffffffffffffffffffffffffff1673ffffffffffffffffffffffffffffffffffffffff1673ffffffffffffffffffffffffffffffffffffffff16815260200160018201805461022790610f89565b80601f016020809104026020016040519081016040528092919081815260200182805461025390610f89565b80156102a05780601f10610275576101008083540402835291602001916102a0565b820191906000526020600020905b81548152906001019060200180831161028357829003601f168201915b50505050508152602001600282015481526020016003820180546102c390610f89565b80601f01602080910402602001604051908101604052809291908181526020018280546102ef90610f89565b801561033c5780601f106103115761010080835404028352916020019161033c565b820191906000526020600020905b81548152906001019060200180831161031f57829003601f168201915b5050505050815250509050919050565b610354610900565b6000808373ffffffffffffffffffffffffffffffffffffffff1673ffffffffffffffffffffffffffffffffffffffff1681526020019081526020016000206040518060600160405290816000820180546103ad90610f89565b80601f01602080910402602001604051908101604052809291908181526020018280546103d990610f89565b80156104265780601f106103fb57610100808354040283529160200191610426565b820191906000526020600020905b81548152906001019060200180831161040957829003601f168201915b505050505081526020016001820154815260200160028201805480602002602001604051908101604052809291908181526020016000905b8282101561050a57838290600052602060002001805461047d90610f89565b80601f01602080910402602001604051908101604052809291908181526020018280546104a990610f89565b80156104f65780601f106104cb576101008083540402835291602001916104f6565b820191906000526020600020905b8154815290600101906020018083116104d957829003601f168201915b50505050508152602001906001019061045e565b50505050815250509050919050565b600042905090565b600060405180608001604052803373ffffffffffffffffffffffffffffffffffffffff1681526020018481526020014281526020018381525090506000803373ffffffffffffffffffffffffffffffffffffffff1673ffffffffffffffffffffffffffffffffffffffff168152602001908152602001600020600201829080600181540180825580915050600190039060005260206000200160009091909190915090816105cf9190611166565b50806001836040516105e19190610f43565b908152602001604051809103902060008201518160000160006101000a81548173ffffffffffffffffffffffffffffffffffffffff021916908373ffffffffffffffffffffffffffffffffffffffff160217905550602082015181600101908161064b9190611166565b5060408201518160020155606082015181600301908161066b9190611166565b509050503373ffffffffffffffffffffffffffffffffffffffff167ff006ed2d702c89b9d14b47ac2cc112da7074fb24dbe4b9fb012d71aff10d0546836040516106b59190611282565b60405180910390a2505050565b806000803373ffffffffffffffffffffffffffffffffffffffff1673ffffffffffffffffffffffffffffffffffffffff16815260200190815260200160002060000190816107109190611166565b50426000803373ffffffffffffffffffffffffffffffffffffffff1673ffffffffffffffffffffffffffffffffffffffff168152602001908152602001600020600101819055503373ffffffffffffffffffffffffffffffffffffffff167fbafddecbd1dec1c1afb76d693f1de16901f521bdf29a02438e3e6806c0b8d9488260405161079d9190611282565b60405180910390a250565b60606000808373ffffffffffffffffffffffffffffffffffffffff1673ffffffffffffffffffffffffffffffffffffffff168152602001908152602001600020600201805480602002602001604051908101604052809291908181526020016000905b828210156108b757838290600052602060002001805461082a90610f89565b80601f016020809104026020016040519081016040528092919081815260200182805461085690610f89565b80156108a35780601f10610878576101008083540402835291602001916108a3565b820191906000526020600020905b81548152906001019060200180831161088657829003601f168201915b50505050508152602001906001019061080b565b505050509050919050565b6040518060800160405280600073ffffffffffffffffffffffffffffffffffffffff1681526020016060815260200160008152602001606081525090565b60405180606001604052806060815260200160008152602001606081525090565b6000604051905090565b600080fd5b600080fd5b600080fd5b600080fd5b6000601f19601f8301169050919050565b7f4e487b7100000000000000000000000000000000000000000000000000000000600052604160045260246000fd5b6109888261093f565b810181811067ffffffffffffffff821117156109a7576109a6610950565b5b80604052505050565b60006109ba610921565b90506109c6828261097f565b919050565b600067ffffffffffffffff8211156109e6576109e5610950565b5b6109ef8261093f565b9050602081019050919050565b82818337600083830152505050565b6000610a1e610a19846109cb565b6109b0565b905082815260208101848484011115610a3a57610a3961093a565b5b610a458482856109fc565b509392505050565b600082601f830112610a6257610a61610935565b5b8135610a72848260208601610a0b565b91505092915050565b600060208284031215610a9157610a9061092b565b5b600082013567ffffffffffffffff811115610aaf57610aae610930565b5b610abb84828501610a4d565b91505092915050565b600073ffffffffffffffffffffffffffffffffffffffff82169050919050565b6000610aef82610ac4565b9050919050565b610aff81610ae4565b82525050565b600081519050919050565b600082825260208201905092915050565b60005b83811015610b3f578082015181840152602081019050610b24565b60008484015250505050565b6000610b5682610b05565b610b608185610b10565b9350610b70818560208601610b21565b610b798161093f565b840191505092915050565b6000819050919050565b610b9781610b84565b82525050565b6000608083016000830151610bb56000860182610af6565b5060208301518482036020860152610bcd8282610b4b565b9150506040830151610be26040860182610b8e565b5060608301518482036060860152610bfa8282610b4b565b9150508091505092915050565b60006020820190508181036000830152610c218184610b9d565b905092915050565b610c3281610ae4565b8114610c3d57600080fd5b50565b600081359050610c4f81610c29565b92915050565b600060208284031215610c6b57610c6a61092b565b5b6000610c7984828501610c40565b91505092915050565b600081519050919050565b600082825260208201905092915050565b6000819050602082019050919050565b6000610cba8383610b4b565b905092915050565b6000602082019050919050565b6000610cda82610c82565b610ce48185610c8d565b935083602082028501610cf685610c9e565b8060005b85811015610d325784840389528151610d138582610cae565b9450610d1e83610cc2565b925060208a01995050600181019050610cfa565b50829750879550505050505092915050565b60006060830160008301518482036000860152610d618282610b4b565b9150506020830151610d766020860182610b8e565b5060408301518482036040860152610d8e8282610ccf565b9150508091505092915050565b60006020820190508181036000830152610db58184610d44565b905092915050565b610dc681610b84565b82525050565b6000602082019050610de16000830184610dbd565b92915050565b60008060408385031215610dfe57610dfd61092b565b5b600083013567ffffffffffffffff811115610e1c57610e1b610930565b5b610e2885828601610a4d565b925050602083013567ffffffffffffffff811115610e4957610e48610930565b5b610e5585828601610a4d565b9150509250929050565b600082825260208201905092915050565b6000610e7b82610c82565b610e858185610e5f565b935083602082028501610e9785610c9e565b8060005b85811015610ed35784840389528151610eb48582610cae565b9450610ebf83610cc2565b925060208a01995050600181019050610e9b565b50829750879550505050505092915050565b60006020820190508181036000830152610eff8184610e70565b905092915050565b600081905092915050565b6000610f1d82610b05565b610f278185610f07565b9350610f37818560208601610b21565b80840191505092915050565b6000610f4f8284610f12565b915081905092915050565b7f4e487b7100000000000000000000000000000000000000000000000000000000600052602260045260246000fd5b60006002820490506001821680610fa157607f821691505b602082108103610fb457610fb3610f5a565b5b50919050565b60008190508160005260206000209050919050565b60006020601f8301049050919050565b600082821b905092915050565b60006008830261101c7fffffffffffffffffffffffffffffffffffffffffffffffffffffffffffffffff82610fdf565b6110268683610fdf565b95508019841693508086168417925050509392505050565b6000819050919050565b600061106361105e61105984610b84565b61103e565b610b84565b9050919050565b6000819050919050565b61107d83611048565b6110916110898261106a565b848454610fec565b825550505050565b600090565b6110a6611099565b6110b1818484611074565b505050565b5b818110156110d5576110ca60008261109e565b6001810190506110b7565b5050565b601f82111561111a576110eb81610fba565b6110f484610fcf565b81016020851015611103578190505b61111761110f85610fcf565b8301826110b6565b50505b505050565b600082821c905092915050565b600061113d6000198460080261111f565b1980831691505092915050565b6000611156838361112c565b9150826002028217905092915050565b61116f82610b05565b67ffffffffffffffff81111561118857611187610950565b5b6111928254610f89565b61119d8282856110d9565b600060209050601f8311600181146111d057600084156111be578287015190505b6111c8858261114a565b865550611230565b601f1984166111de86610fba565b60005b82811015611206578489015182556001820191506020850194506020810190506111e1565b86831015611223578489015161121f601f89168261112c565b8355505b6001600288020188555050505b505050505050565b600082825260208201905092915050565b600061125482610b05565b61125e8185611238565b935061126e818560208601610b21565b6112778161093f565b840191505092915050565b6000602082019050818103600083015261129c8184611249565b90509291505056fea264697066735822122072ef9484ba634b65b5c64961477394ef8b663e98bb4d9878a737bbf828db40b864736f6c63430008120033",
  "devdoc": {
    "kind": "dev",
    "methods": {},
    "version": 1
  },
  "userdoc": {
    "kind": "user",
    "methods": {},
    "version": 1
  },
  "storageLayout": {
    "storage": [
      {
        "astId": 39,
        "contract": "contracts/Research.sol:Research",
        "label": "profileMapping",
        "offset": 0,
        "slot": "0",
        "type": "t_mapping(t_address,t_struct(Researcher)25_storage)"
      },
      {
        "astId": 44,
        "contract": "contracts/Research.sol:Research",
        "label": "paperMapping",
        "offset": 0,
        "slot": "1",
        "type": "t_mapping(t_string_memory_ptr,t_struct(ResearchPaper)34_storage)"
      }
    ],
    "types": {
      "t_address": {
        "encoding": "inplace",
        "label": "address",
        "numberOfBytes": "20"
      },
      "t_array(t_string_storage)dyn_storage": {
        "base": "t_string_storage",
        "encoding": "dynamic_array",
        "label": "string[]",
        "numberOfBytes": "32"
      },
      "t_mapping(t_address,t_struct(Researcher)25_storage)": {
        "encoding": "mapping",
        "key": "t_address",
        "label": "mapping(address => struct Research.Researcher)",
        "numberOfBytes": "32",
        "value": "t_struct(Researcher)25_storage"
      },
      "t_mapping(t_string_memory_ptr,t_struct(ResearchPaper)34_storage)": {
        "encoding": "mapping",
        "key": "t_string_memory_ptr",
        "label": "mapping(string => struct Research.ResearchPaper)",
        "numberOfBytes": "32",
        "value": "t_struct(ResearchPaper)34_storage"
      },
      "t_string_memory_ptr": {
        "encoding": "bytes",
        "label": "string",
        "numberOfBytes": "32"
      },
      "t_string_storage": {
        "encoding": "bytes",
        "label": "string",
        "numberOfBytes": "32"
      },
      "t_struct(ResearchPaper)34_storage": {
        "encoding": "inplace",
        "label": "struct Research.ResearchPaper",
        "members": [
          {
            "astId": 27,
            "contract": "contracts/Research.sol:Research",
            "label": "theAddress",
            "offset": 0,
            "slot": "0",
            "type": "t_address"
          },
          {
            "astId": 29,
            "contract": "contracts/Research.sol:Research",
            "label": "title",
            "offset": 0,
            "slot": "1",
            "type": "t_string_storage"
          },
          {
            "astId": 31,
            "contract": "contracts/Research.sol:Research",
            "label": "uploadDate",
            "offset": 0,
            "slot": "2",
            "type": "t_uint256"
          },
          {
            "astId": 33,
            "contract": "contracts/Research.sol:Research",
            "label": "paperCid",
            "offset": 0,
            "slot": "3",
            "type": "t_string_storage"
          }
        ],
        "numberOfBytes": "128"
      },
      "t_struct(Researcher)25_storage": {
        "encoding": "inplace",
        "label": "struct Research.Researcher",
        "members": [
          {
            "astId": 19,
            "contract": "contracts/Research.sol:Research",
            "label": "name",
            "offset": 0,
            "slot": "0",
            "type": "t_string_storage"
          },
          {
            "astId": 21,
            "contract": "contracts/Research.sol:Research",
            "label": "joinDate",
            "offset": 0,
            "slot": "1",
            "type": "t_uint256"
          },
          {
            "astId": 24,
            "contract": "contracts/Research.sol:Research",
            "label": "paperCidArray",
            "offset": 0,
            "slot": "2",
            "type": "t_array(t_string_storage)dyn_storage"
          }
        ],
        "numberOfBytes": "96"
      },
      "t_uint256": {
        "encoding": "inplace",
        "label": "uint256",
        "numberOfBytes": "32"
      }
    }
  }
}