{
  "address": "0x42D9594f0252EBb3Bd8dBC087f8A59f0506E9f63",
  "abi": [
    {
      "anonymous": false,
      "inputs": [
        {
          "indexed": true,
          "internalType": "address",
          "name": "theAddress",
          "type": "address"
        },
        {
          "indexed": false,
          "internalType": "string",
          "name": "paperCid",
          "type": "string"
        }
      ],
      "name": "PaperUploaded",
      "type": "event"
    },
    {
      "anonymous": false,
      "inputs": [
        {
          "indexed": true,
          "internalType": "address",
          "name": "theAddress",
          "type": "address"
        },
        {
          "indexed": false,
          "internalType": "string",
          "name": "theName",
          "type": "string"
        }
      ],
      "name": "ProfileCreated",
      "type": "event"
    },
    {
      "inputs": [
        {
          "internalType": "string",
          "name": "_title",
          "type": "string"
        },
        {
          "internalType": "string",
          "name": "cid",
          "type": "string"
        }
      ],
      "name": "addPaper",
      "outputs": [],
      "stateMutability": "nonpayable",
      "type": "function"
    },
    {
      "inputs": [
        {
          "internalType": "string",
          "name": "cid",
          "type": "string"
        }
      ],
      "name": "cidToPaper",
      "outputs": [
        {
          "components": [
            {
              "internalType": "address",
              "name": "theAddress",
              "type": "address"
            },
            {
              "internalType": "string",
              "name": "title",
              "type": "string"
            },
            {
              "internalType": "uint256",
              "name": "uploadDate",
              "type": "uint256"
            },
            {
              "internalType": "string",
              "name": "paperCid",
              "type": "string"
            }
          ],
          "internalType": "struct Research.ResearchPaper",
          "name": "",
          "type": "tuple"
        }
      ],
      "stateMutability": "view",
      "type": "function"
    },
    {
      "inputs": [],
      "name": "getTime",
      "outputs": [
        {
          "internalType": "uint256",
          "name": "",
          "type": "uint256"
        }
      ],
      "stateMutability": "view",
      "type": "function"
    },
    {
      "inputs": [
        {
          "internalType": "string",
          "name": "theName",
          "type": "string"
        }
      ],
      "name": "newResearcher",
      "outputs": [],
      "stateMutability": "nonpayable",
      "type": "function"
    },
    {
      "inputs": [],
      "name": "viewAllResearchers",
      "outputs": [
        {
          "internalType": "address[]",
          "name": "",
          "type": "address[]"
        }
      ],
      "stateMutability": "view",
      "type": "function"
    },
    {
      "inputs": [
        {
          "internalType": "address",
          "name": "theAddress",
          "type": "address"
        }
      ],
      "name": "viewOnesPapers",
      "outputs": [
        {
          "internalType": "string[]",
          "name": "",
          "type": "string[]"
        }
      ],
      "stateMutability": "view",
      "type": "function"
    },
    {
      "inputs": [
        {
          "internalType": "address",
          "name": "theAddress",
          "type": "address"
        }
      ],
      "name": "viewResearcher",
      "outputs": [
        {
          "components": [
            {
              "internalType": "string",
              "name": "name",
              "type": "string"
            },
            {
              "internalType": "uint256",
              "name": "joinDate",
              "type": "uint256"
            },
            {
              "internalType": "string[]",
              "name": "paperCidArray",
              "type": "string[]"
            }
          ],
          "internalType": "struct Research.Researcher",
          "name": "",
          "type": "tuple"
        }
      ],
      "stateMutability": "view",
      "type": "function"
    }
  ],
  "transactionHash": "0xd858e427ed108dfb15bea1d43c8c185d8ea9fbed116613865566a0b043efbd9e",
  "args": [],
  "numDeployments": 10,
  "solcInputHash": "5fa4560ce7b117042e9b61c557becf2c",
  "bytecode": "0x608060405234801561001057600080fd5b50611497806100206000396000f3fe608060405234801561001057600080fd5b506004361061007d5760003560e01c8063557ed1ba1161005b578063557ed1ba146101005780639314b9af1461011e578063c12f67a21461013a578063f338c8e8146101565761007d565b806306be57c11461008257806320439c11146100b257806325e9b841146100e2575b600080fd5b61009c60048036038101906100979190610b67565b610186565b6040516100a99190610cf3565b60405180910390f35b6100cc60048036038101906100c79190610d41565b610342565b6040516100d99190610e87565b60405180910390f35b6100ea610510565b6040516100f79190610f58565b60405180910390f35b61010861059e565b6040516101159190610f89565b60405180910390f35b61013860048036038101906101339190610fa4565b6105a6565b005b610154600480360381019061014f9190610b67565b610748565b005b610170600480360381019061016b9190610d41565b610893565b60405161017d91906110a2565b60405180910390f35b61018e6109ae565b60028260405161019e9190611100565b90815260200160405180910390206040518060800160405290816000820160009054906101000a900473ffffffffffffffffffffffffffffffffffffffff1673ffffffffffffffffffffffffffffffffffffffff1673ffffffffffffffffffffffffffffffffffffffff16815260200160018201805461021d90611146565b80601f016020809104026020016040519081016040528092919081815260200182805461024990611146565b80156102965780601f1061026b57610100808354040283529160200191610296565b820191906000526020600020905b81548152906001019060200180831161027957829003601f168201915b50505050508152602001600282015481526020016003820180546102b990611146565b80601f01602080910402602001604051908101604052809291908181526020018280546102e590611146565b80156103325780601f1061030757610100808354040283529160200191610332565b820191906000526020600020905b81548152906001019060200180831161031557829003601f168201915b5050505050815250509050919050565b61034a6109ec565b600160008373ffffffffffffffffffffffffffffffffffffffff1673ffffffffffffffffffffffffffffffffffffffff1681526020019081526020016000206040518060600160405290816000820180546103a490611146565b80601f01602080910402602001604051908101604052809291908181526020018280546103d090611146565b801561041d5780601f106103f25761010080835404028352916020019161041d565b820191906000526020600020905b81548152906001019060200180831161040057829003601f168201915b505050505081526020016001820154815260200160028201805480602002602001604051908101604052809291908181526020016000905b8282101561050157838290600052602060002001805461047490611146565b80601f01602080910402602001604051908101604052809291908181526020018280546104a090611146565b80156104ed5780601f106104c2576101008083540402835291602001916104ed565b820191906000526020600020905b8154815290600101906020018083116104d057829003601f168201915b505050505081526020019060010190610455565b50505050815250509050919050565b6060600080548060200260200160405190810160405280929190818152602001828054801561059457602002820191906000526020600020905b8160009054906101000a900473ffffffffffffffffffffffffffffffffffffffff1673ffffffffffffffffffffffffffffffffffffffff168152602001906001019080831161054a575b5050505050905090565b600042905090565b600060405180608001604052803373ffffffffffffffffffffffffffffffffffffffff168152602001848152602001428152602001838152509050600160003373ffffffffffffffffffffffffffffffffffffffff1673ffffffffffffffffffffffffffffffffffffffff168152602001908152602001600020600201829080600181540180825580915050600190039060005260206000200160009091909190915090816106559190611323565b50806002836040516106679190611100565b908152602001604051809103902060008201518160000160006101000a81548173ffffffffffffffffffffffffffffffffffffffff021916908373ffffffffffffffffffffffffffffffffffffffff16021790555060208201518160010190816106d19190611323565b506040820151816002015560608201518160030190816106f19190611323565b509050503373ffffffffffffffffffffffffffffffffffffffff167ff006ed2d702c89b9d14b47ac2cc112da7074fb24dbe4b9fb012d71aff10d05468360405161073b919061143f565b60405180910390a2505050565b80600160003373ffffffffffffffffffffffffffffffffffffffff1673ffffffffffffffffffffffffffffffffffffffff16815260200190815260200160002060000190816107979190611323565b5042600160003373ffffffffffffffffffffffffffffffffffffffff1673ffffffffffffffffffffffffffffffffffffffff168152602001908152602001600020600101819055506000339080600181540180825580915050600190039060005260206000200160009091909190916101000a81548173ffffffffffffffffffffffffffffffffffffffff021916908373ffffffffffffffffffffffffffffffffffffffff1602179055503373ffffffffffffffffffffffffffffffffffffffff167fbafddecbd1dec1c1afb76d693f1de16901f521bdf29a02438e3e6806c0b8d94882604051610888919061143f565b60405180910390a250565b6060600160008373ffffffffffffffffffffffffffffffffffffffff1673ffffffffffffffffffffffffffffffffffffffff168152602001908152602001600020600201805480602002602001604051908101604052809291908181526020016000905b828210156109a357838290600052602060002001805461091690611146565b80601f016020809104026020016040519081016040528092919081815260200182805461094290611146565b801561098f5780601f106109645761010080835404028352916020019161098f565b820191906000526020600020905b81548152906001019060200180831161097257829003601f168201915b5050505050815260200190600101906108f7565b505050509050919050565b6040518060800160405280600073ffffffffffffffffffffffffffffffffffffffff1681526020016060815260200160008152602001606081525090565b60405180606001604052806060815260200160008152602001606081525090565b6000604051905090565b600080fd5b600080fd5b600080fd5b600080fd5b6000601f19601f8301169050919050565b7f4e487b7100000000000000000000000000000000000000000000000000000000600052604160045260246000fd5b610a7482610a2b565b810181811067ffffffffffffffff82111715610a9357610a92610a3c565b5b80604052505050565b6000610aa6610a0d565b9050610ab28282610a6b565b919050565b600067ffffffffffffffff821115610ad257610ad1610a3c565b5b610adb82610a2b565b9050602081019050919050565b82818337600083830152505050565b6000610b0a610b0584610ab7565b610a9c565b905082815260208101848484011115610b2657610b25610a26565b5b610b31848285610ae8565b509392505050565b600082601f830112610b4e57610b4d610a21565b5b8135610b5e848260208601610af7565b91505092915050565b600060208284031215610b7d57610b7c610a17565b5b600082013567ffffffffffffffff811115610b9b57610b9a610a1c565b5b610ba784828501610b39565b91505092915050565b600073ffffffffffffffffffffffffffffffffffffffff82169050919050565b6000610bdb82610bb0565b9050919050565b610beb81610bd0565b82525050565b600081519050919050565b600082825260208201905092915050565b60005b83811015610c2b578082015181840152602081019050610c10565b60008484015250505050565b6000610c4282610bf1565b610c4c8185610bfc565b9350610c5c818560208601610c0d565b610c6581610a2b565b840191505092915050565b6000819050919050565b610c8381610c70565b82525050565b6000608083016000830151610ca16000860182610be2565b5060208301518482036020860152610cb98282610c37565b9150506040830151610cce6040860182610c7a565b5060608301518482036060860152610ce68282610c37565b9150508091505092915050565b60006020820190508181036000830152610d0d8184610c89565b905092915050565b610d1e81610bd0565b8114610d2957600080fd5b50565b600081359050610d3b81610d15565b92915050565b600060208284031215610d5757610d56610a17565b5b6000610d6584828501610d2c565b91505092915050565b600081519050919050565b600082825260208201905092915050565b6000819050602082019050919050565b6000610da68383610c37565b905092915050565b6000602082019050919050565b6000610dc682610d6e565b610dd08185610d79565b935083602082028501610de285610d8a565b8060005b85811015610e1e5784840389528151610dff8582610d9a565b9450610e0a83610dae565b925060208a01995050600181019050610de6565b50829750879550505050505092915050565b60006060830160008301518482036000860152610e4d8282610c37565b9150506020830151610e626020860182610c7a565b5060408301518482036040860152610e7a8282610dbb565b9150508091505092915050565b60006020820190508181036000830152610ea18184610e30565b905092915050565b600081519050919050565b600082825260208201905092915050565b6000819050602082019050919050565b6000610ee18383610be2565b60208301905092915050565b6000602082019050919050565b6000610f0582610ea9565b610f0f8185610eb4565b9350610f1a83610ec5565b8060005b83811015610f4b578151610f328882610ed5565b9750610f3d83610eed565b925050600181019050610f1e565b5085935050505092915050565b60006020820190508181036000830152610f728184610efa565b905092915050565b610f8381610c70565b82525050565b6000602082019050610f9e6000830184610f7a565b92915050565b60008060408385031215610fbb57610fba610a17565b5b600083013567ffffffffffffffff811115610fd957610fd8610a1c565b5b610fe585828601610b39565b925050602083013567ffffffffffffffff81111561100657611005610a1c565b5b61101285828601610b39565b9150509250929050565b600082825260208201905092915050565b600061103882610d6e565b611042818561101c565b93508360208202850161105485610d8a565b8060005b8581101561109057848403895281516110718582610d9a565b945061107c83610dae565b925060208a01995050600181019050611058565b50829750879550505050505092915050565b600060208201905081810360008301526110bc818461102d565b905092915050565b600081905092915050565b60006110da82610bf1565b6110e481856110c4565b93506110f4818560208601610c0d565b80840191505092915050565b600061110c82846110cf565b915081905092915050565b7f4e487b7100000000000000000000000000000000000000000000000000000000600052602260045260246000fd5b6000600282049050600182168061115e57607f821691505b60208210810361117157611170611117565b5b50919050565b60008190508160005260206000209050919050565b60006020601f8301049050919050565b600082821b905092915050565b6000600883026111d97fffffffffffffffffffffffffffffffffffffffffffffffffffffffffffffffff8261119c565b6111e3868361119c565b95508019841693508086168417925050509392505050565b6000819050919050565b600061122061121b61121684610c70565b6111fb565b610c70565b9050919050565b6000819050919050565b61123a83611205565b61124e61124682611227565b8484546111a9565b825550505050565b600090565b611263611256565b61126e818484611231565b505050565b5b818110156112925761128760008261125b565b600181019050611274565b5050565b601f8211156112d7576112a881611177565b6112b18461118c565b810160208510156112c0578190505b6112d46112cc8561118c565b830182611273565b50505b505050565b600082821c905092915050565b60006112fa600019846008026112dc565b1980831691505092915050565b600061131383836112e9565b9150826002028217905092915050565b61132c82610bf1565b67ffffffffffffffff81111561134557611344610a3c565b5b61134f8254611146565b61135a828285611296565b600060209050601f83116001811461138d576000841561137b578287015190505b6113858582611307565b8655506113ed565b601f19841661139b86611177565b60005b828110156113c35784890151825560018201915060208501945060208101905061139e565b868310156113e057848901516113dc601f8916826112e9565b8355505b6001600288020188555050505b505050505050565b600082825260208201905092915050565b600061141182610bf1565b61141b81856113f5565b935061142b818560208601610c0d565b61143481610a2b565b840191505092915050565b600060208201905081810360008301526114598184611406565b90509291505056fea26469706673582212209fee68330c58268bcc77192f045ac6aee3e5515912dc03a73ee917f6ffc8bfe064736f6c63430008120033",
  "devdoc": {
    "kind": "dev",
    "methods": {},
    "version": 1
  },
  "userdoc": {
    "kind": "user",
    "methods": {},
    "version": 1
  },
  "storageLayout": {
    "storage": [
      {
        "astId": 418,
        "contract": "contracts/Research.sol:Research",
        "label": "allResearchers",
        "offset": 0,
        "slot": "0",
        "type": "t_array(t_address)dyn_storage"
      },
      {
        "astId": 452,
        "contract": "contracts/Research.sol:Research",
        "label": "profileMapping",
        "offset": 0,
        "slot": "1",
        "type": "t_mapping(t_address,t_struct(Researcher)438_storage)"
      },
      {
        "astId": 457,
        "contract": "contracts/Research.sol:Research",
        "label": "paperMapping",
        "offset": 0,
        "slot": "2",
        "type": "t_mapping(t_string_memory_ptr,t_struct(ResearchPaper)447_storage)"
      }
    ],
    "types": {
      "t_address": {
        "encoding": "inplace",
        "label": "address",
        "numberOfBytes": "20"
      },
      "t_array(t_address)dyn_storage": {
        "base": "t_address",
        "encoding": "dynamic_array",
        "label": "address[]",
        "numberOfBytes": "32"
      },
      "t_array(t_string_storage)dyn_storage": {
        "base": "t_string_storage",
        "encoding": "dynamic_array",
        "label": "string[]",
        "numberOfBytes": "32"
      },
      "t_mapping(t_address,t_struct(Researcher)438_storage)": {
        "encoding": "mapping",
        "key": "t_address",
        "label": "mapping(address => struct Research.Researcher)",
        "numberOfBytes": "32",
        "value": "t_struct(Researcher)438_storage"
      },
      "t_mapping(t_string_memory_ptr,t_struct(ResearchPaper)447_storage)": {
        "encoding": "mapping",
        "key": "t_string_memory_ptr",
        "label": "mapping(string => struct Research.ResearchPaper)",
        "numberOfBytes": "32",
        "value": "t_struct(ResearchPaper)447_storage"
      },
      "t_string_memory_ptr": {
        "encoding": "bytes",
        "label": "string",
        "numberOfBytes": "32"
      },
      "t_string_storage": {
        "encoding": "bytes",
        "label": "string",
        "numberOfBytes": "32"
      },
      "t_struct(ResearchPaper)447_storage": {
        "encoding": "inplace",
        "label": "struct Research.ResearchPaper",
        "members": [
          {
            "astId": 440,
            "contract": "contracts/Research.sol:Research",
            "label": "theAddress",
            "offset": 0,
            "slot": "0",
            "type": "t_address"
          },
          {
            "astId": 442,
            "contract": "contracts/Research.sol:Research",
            "label": "title",
            "offset": 0,
            "slot": "1",
            "type": "t_string_storage"
          },
          {
            "astId": 444,
            "contract": "contracts/Research.sol:Research",
            "label": "uploadDate",
            "offset": 0,
            "slot": "2",
            "type": "t_uint256"
          },
          {
            "astId": 446,
            "contract": "contracts/Research.sol:Research",
            "label": "paperCid",
            "offset": 0,
            "slot": "3",
            "type": "t_string_storage"
          }
        ],
        "numberOfBytes": "128"
      },
      "t_struct(Researcher)438_storage": {
        "encoding": "inplace",
        "label": "struct Research.Researcher",
        "members": [
          {
            "astId": 432,
            "contract": "contracts/Research.sol:Research",
            "label": "name",
            "offset": 0,
            "slot": "0",
            "type": "t_string_storage"
          },
          {
            "astId": 434,
            "contract": "contracts/Research.sol:Research",
            "label": "joinDate",
            "offset": 0,
            "slot": "1",
            "type": "t_uint256"
          },
          {
            "astId": 437,
            "contract": "contracts/Research.sol:Research",
            "label": "paperCidArray",
            "offset": 0,
            "slot": "2",
            "type": "t_array(t_string_storage)dyn_storage"
          }
        ],
        "numberOfBytes": "96"
      },
      "t_uint256": {
        "encoding": "inplace",
        "label": "uint256",
        "numberOfBytes": "32"
      }
    }
  }
}