{
  "address": "0xDef94e2eaE1A10BaEE9421Bf53594096918Cc931",
  "abi": [
    {
      "anonymous": false,
      "inputs": [
        {
          "indexed": true,
          "internalType": "address",
          "name": "theAddress",
          "type": "address"
        },
        {
          "indexed": false,
          "internalType": "string",
          "name": "paperCid",
          "type": "string"
        }
      ],
      "name": "PaperUploaded",
      "type": "event"
    },
    {
      "anonymous": false,
      "inputs": [
        {
          "indexed": true,
          "internalType": "address",
          "name": "theAddress",
          "type": "address"
        },
        {
          "indexed": false,
          "internalType": "string",
          "name": "theName",
          "type": "string"
        }
      ],
      "name": "ProfileCreated",
      "type": "event"
    },
    {
      "inputs": [
        {
          "internalType": "string",
          "name": "_title",
          "type": "string"
        },
        {
          "internalType": "string",
          "name": "cid",
          "type": "string"
        }
      ],
      "name": "addPaper",
      "outputs": [],
      "stateMutability": "nonpayable",
      "type": "function"
    },
    {
      "inputs": [
        {
          "internalType": "string",
          "name": "cid",
          "type": "string"
        }
      ],
      "name": "cidToPaper",
      "outputs": [
        {
          "components": [
            {
              "internalType": "address",
              "name": "theAddress",
              "type": "address"
            },
            {
              "internalType": "string",
              "name": "title",
              "type": "string"
            },
            {
              "internalType": "uint256",
              "name": "uploadDate",
              "type": "uint256"
            },
            {
              "internalType": "string",
              "name": "paperCid",
              "type": "string"
            }
          ],
          "internalType": "struct Research.ResearchPaper",
          "name": "",
          "type": "tuple"
        }
      ],
      "stateMutability": "view",
      "type": "function"
    },
    {
      "inputs": [],
      "name": "getTime",
      "outputs": [
        {
          "internalType": "uint256",
          "name": "",
          "type": "uint256"
        }
      ],
      "stateMutability": "view",
      "type": "function"
    },
    {
      "inputs": [
        {
          "internalType": "string",
          "name": "theName",
          "type": "string"
        }
      ],
      "name": "newResearcher",
      "outputs": [],
      "stateMutability": "nonpayable",
      "type": "function"
    },
    {
      "inputs": [],
      "name": "viewAllResearchCids",
      "outputs": [
        {
          "internalType": "string[]",
          "name": "",
          "type": "string[]"
        }
      ],
      "stateMutability": "view",
      "type": "function"
    },
    {
      "inputs": [
        {
          "internalType": "address",
          "name": "theAddress",
          "type": "address"
        }
      ],
      "name": "viewOnesPapers",
      "outputs": [
        {
          "internalType": "string[]",
          "name": "",
          "type": "string[]"
        }
      ],
      "stateMutability": "view",
      "type": "function"
    },
    {
      "inputs": [
        {
          "internalType": "address",
          "name": "theAddress",
          "type": "address"
        }
      ],
      "name": "viewResearcher",
      "outputs": [
        {
          "components": [
            {
              "internalType": "string",
              "name": "name",
              "type": "string"
            },
            {
              "internalType": "uint256",
              "name": "joinDate",
              "type": "uint256"
            },
            {
              "internalType": "string[]",
              "name": "paperCidArray",
              "type": "string[]"
            }
          ],
          "internalType": "struct Research.Researcher",
          "name": "",
          "type": "tuple"
        }
      ],
      "stateMutability": "view",
      "type": "function"
    }
  ],
  "transactionHash": "0xfb9a55cd639043bffcb2c1ce585487420c48f0a30862abc1d1af32730aa24965",
  "args": [],
  "numDeployments": 11,
  "solcInputHash": "b08001cbc0c1743be40530e835a49468",
  "bytecode": "0x608060405234801561001057600080fd5b506112db806100206000396000f3fe608060405234801561001057600080fd5b506004361061007d5760003560e01c80639314b9af1161005b5780639314b9af14610100578063c12f67a21461011c578063f338c8e814610138578063f836b661146101685761007d565b806306be57c11461008257806320439c11146100b2578063557ed1ba146100e2575b600080fd5b61009c60048036038101906100979190610ae8565b610186565b6040516100a99190610c74565b60405180910390f35b6100cc60048036038101906100c79190610cc2565b610342565b6040516100d99190610e08565b60405180910390f35b6100ea610510565b6040516100f79190610e39565b60405180910390f35b61011a60048036038101906101159190610e54565b610518565b005b61013660048036038101906101319190610ae8565b6106a1565b005b610152600480360381019061014d9190610cc2565b61073b565b60405161015f9190610f52565b60405180910390f35b610170610856565b60405161017d9190610f52565b60405180910390f35b61018e61092f565b60028260405161019e9190610fb0565b90815260200160405180910390206040518060800160405290816000820160009054906101000a900473ffffffffffffffffffffffffffffffffffffffff1673ffffffffffffffffffffffffffffffffffffffff1673ffffffffffffffffffffffffffffffffffffffff16815260200160018201805461021d90610ff6565b80601f016020809104026020016040519081016040528092919081815260200182805461024990610ff6565b80156102965780601f1061026b57610100808354040283529160200191610296565b820191906000526020600020905b81548152906001019060200180831161027957829003601f168201915b50505050508152602001600282015481526020016003820180546102b990610ff6565b80601f01602080910402602001604051908101604052809291908181526020018280546102e590610ff6565b80156103325780601f1061030757610100808354040283529160200191610332565b820191906000526020600020905b81548152906001019060200180831161031557829003601f168201915b5050505050815250509050919050565b61034a61096d565b600160008373ffffffffffffffffffffffffffffffffffffffff1673ffffffffffffffffffffffffffffffffffffffff1681526020019081526020016000206040518060600160405290816000820180546103a490610ff6565b80601f01602080910402602001604051908101604052809291908181526020018280546103d090610ff6565b801561041d5780601f106103f25761010080835404028352916020019161041d565b820191906000526020600020905b81548152906001019060200180831161040057829003601f168201915b505050505081526020016001820154815260200160028201805480602002602001604051908101604052809291908181526020016000905b8282101561050157838290600052602060002001805461047490610ff6565b80601f01602080910402602001604051908101604052809291908181526020018280546104a090610ff6565b80156104ed5780601f106104c2576101008083540402835291602001916104ed565b820191906000526020600020905b8154815290600101906020018083116104d057829003601f168201915b505050505081526020019060010190610455565b50505050815250509050919050565b600042905090565b600060405180608001604052803373ffffffffffffffffffffffffffffffffffffffff168152602001848152602001428152602001838152509050600160003373ffffffffffffffffffffffffffffffffffffffff1673ffffffffffffffffffffffffffffffffffffffff168152602001908152602001600020600201829080600181540180825580915050600190039060005260206000200160009091909190915090816105c791906111d3565b50806002836040516105d99190610fb0565b908152602001604051809103902060008201518160000160006101000a81548173ffffffffffffffffffffffffffffffffffffffff021916908373ffffffffffffffffffffffffffffffffffffffff160217905550602082015181600101908161064391906111d3565b5060408201518160020155606082015181600301908161066391906111d3565b5090505060008290806001815401808255809150506001900390600052602060002001600090919091909150908161069b91906111d3565b50505050565b80600160003373ffffffffffffffffffffffffffffffffffffffff1673ffffffffffffffffffffffffffffffffffffffff16815260200190815260200160002060000190816106f091906111d3565b5042600160003373ffffffffffffffffffffffffffffffffffffffff1673ffffffffffffffffffffffffffffffffffffffff1681526020019081526020016000206001018190555050565b6060600160008373ffffffffffffffffffffffffffffffffffffffff1673ffffffffffffffffffffffffffffffffffffffff168152602001908152602001600020600201805480602002602001604051908101604052809291908181526020016000905b8282101561084b5783829060005260206000200180546107be90610ff6565b80601f01602080910402602001604051908101604052809291908181526020018280546107ea90610ff6565b80156108375780601f1061080c57610100808354040283529160200191610837565b820191906000526020600020905b81548152906001019060200180831161081a57829003601f168201915b50505050508152602001906001019061079f565b505050509050919050565b60606000805480602002602001604051908101604052809291908181526020016000905b8282101561092657838290600052602060002001805461089990610ff6565b80601f01602080910402602001604051908101604052809291908181526020018280546108c590610ff6565b80156109125780601f106108e757610100808354040283529160200191610912565b820191906000526020600020905b8154815290600101906020018083116108f557829003601f168201915b50505050508152602001906001019061087a565b50505050905090565b6040518060800160405280600073ffffffffffffffffffffffffffffffffffffffff1681526020016060815260200160008152602001606081525090565b60405180606001604052806060815260200160008152602001606081525090565b6000604051905090565b600080fd5b600080fd5b600080fd5b600080fd5b6000601f19601f8301169050919050565b7f4e487b7100000000000000000000000000000000000000000000000000000000600052604160045260246000fd5b6109f5826109ac565b810181811067ffffffffffffffff82111715610a1457610a136109bd565b5b80604052505050565b6000610a2761098e565b9050610a3382826109ec565b919050565b600067ffffffffffffffff821115610a5357610a526109bd565b5b610a5c826109ac565b9050602081019050919050565b82818337600083830152505050565b6000610a8b610a8684610a38565b610a1d565b905082815260208101848484011115610aa757610aa66109a7565b5b610ab2848285610a69565b509392505050565b600082601f830112610acf57610ace6109a2565b5b8135610adf848260208601610a78565b91505092915050565b600060208284031215610afe57610afd610998565b5b600082013567ffffffffffffffff811115610b1c57610b1b61099d565b5b610b2884828501610aba565b91505092915050565b600073ffffffffffffffffffffffffffffffffffffffff82169050919050565b6000610b5c82610b31565b9050919050565b610b6c81610b51565b82525050565b600081519050919050565b600082825260208201905092915050565b60005b83811015610bac578082015181840152602081019050610b91565b60008484015250505050565b6000610bc382610b72565b610bcd8185610b7d565b9350610bdd818560208601610b8e565b610be6816109ac565b840191505092915050565b6000819050919050565b610c0481610bf1565b82525050565b6000608083016000830151610c226000860182610b63565b5060208301518482036020860152610c3a8282610bb8565b9150506040830151610c4f6040860182610bfb565b5060608301518482036060860152610c678282610bb8565b9150508091505092915050565b60006020820190508181036000830152610c8e8184610c0a565b905092915050565b610c9f81610b51565b8114610caa57600080fd5b50565b600081359050610cbc81610c96565b92915050565b600060208284031215610cd857610cd7610998565b5b6000610ce684828501610cad565b91505092915050565b600081519050919050565b600082825260208201905092915050565b6000819050602082019050919050565b6000610d278383610bb8565b905092915050565b6000602082019050919050565b6000610d4782610cef565b610d518185610cfa565b935083602082028501610d6385610d0b565b8060005b85811015610d9f5784840389528151610d808582610d1b565b9450610d8b83610d2f565b925060208a01995050600181019050610d67565b50829750879550505050505092915050565b60006060830160008301518482036000860152610dce8282610bb8565b9150506020830151610de36020860182610bfb565b5060408301518482036040860152610dfb8282610d3c565b9150508091505092915050565b60006020820190508181036000830152610e228184610db1565b905092915050565b610e3381610bf1565b82525050565b6000602082019050610e4e6000830184610e2a565b92915050565b60008060408385031215610e6b57610e6a610998565b5b600083013567ffffffffffffffff811115610e8957610e8861099d565b5b610e9585828601610aba565b925050602083013567ffffffffffffffff811115610eb657610eb561099d565b5b610ec285828601610aba565b9150509250929050565b600082825260208201905092915050565b6000610ee882610cef565b610ef28185610ecc565b935083602082028501610f0485610d0b565b8060005b85811015610f405784840389528151610f218582610d1b565b9450610f2c83610d2f565b925060208a01995050600181019050610f08565b50829750879550505050505092915050565b60006020820190508181036000830152610f6c8184610edd565b905092915050565b600081905092915050565b6000610f8a82610b72565b610f948185610f74565b9350610fa4818560208601610b8e565b80840191505092915050565b6000610fbc8284610f7f565b915081905092915050565b7f4e487b7100000000000000000000000000000000000000000000000000000000600052602260045260246000fd5b6000600282049050600182168061100e57607f821691505b60208210810361102157611020610fc7565b5b50919050565b60008190508160005260206000209050919050565b60006020601f8301049050919050565b600082821b905092915050565b6000600883026110897fffffffffffffffffffffffffffffffffffffffffffffffffffffffffffffffff8261104c565b611093868361104c565b95508019841693508086168417925050509392505050565b6000819050919050565b60006110d06110cb6110c684610bf1565b6110ab565b610bf1565b9050919050565b6000819050919050565b6110ea836110b5565b6110fe6110f6826110d7565b848454611059565b825550505050565b600090565b611113611106565b61111e8184846110e1565b505050565b5b818110156111425761113760008261110b565b600181019050611124565b5050565b601f8211156111875761115881611027565b6111618461103c565b81016020851015611170578190505b61118461117c8561103c565b830182611123565b50505b505050565b600082821c905092915050565b60006111aa6000198460080261118c565b1980831691505092915050565b60006111c38383611199565b9150826002028217905092915050565b6111dc82610b72565b67ffffffffffffffff8111156111f5576111f46109bd565b5b6111ff8254610ff6565b61120a828285611146565b600060209050601f83116001811461123d576000841561122b578287015190505b61123585826111b7565b86555061129d565b601f19841661124b86611027565b60005b828110156112735784890151825560018201915060208501945060208101905061124e565b86831015611290578489015161128c601f891682611199565b8355505b6001600288020188555050505b50505050505056fea264697066735822122051a6c0eca5cba57fdbe86e4fdc4de7f1da33e4b1b150602a24c3609fd4e5ceac64736f6c63430008120033",
  "devdoc": {
    "kind": "dev",
    "methods": {},
    "version": 1
  },
  "userdoc": {
    "kind": "user",
    "methods": {},
    "version": 1
  },
  "storageLayout": {
    "storage": [
      {
        "astId": 405,
        "contract": "contracts/Research.sol:Research",
        "label": "allResearchCids",
        "offset": 0,
        "slot": "0",
        "type": "t_array(t_string_storage)dyn_storage"
      },
      {
        "astId": 439,
        "contract": "contracts/Research.sol:Research",
        "label": "profileMapping",
        "offset": 0,
        "slot": "1",
        "type": "t_mapping(t_address,t_struct(Researcher)425_storage)"
      },
      {
        "astId": 444,
        "contract": "contracts/Research.sol:Research",
        "label": "paperMapping",
        "offset": 0,
        "slot": "2",
        "type": "t_mapping(t_string_memory_ptr,t_struct(ResearchPaper)434_storage)"
      }
    ],
    "types": {
      "t_address": {
        "encoding": "inplace",
        "label": "address",
        "numberOfBytes": "20"
      },
      "t_array(t_string_storage)dyn_storage": {
        "base": "t_string_storage",
        "encoding": "dynamic_array",
        "label": "string[]",
        "numberOfBytes": "32"
      },
      "t_mapping(t_address,t_struct(Researcher)425_storage)": {
        "encoding": "mapping",
        "key": "t_address",
        "label": "mapping(address => struct Research.Researcher)",
        "numberOfBytes": "32",
        "value": "t_struct(Researcher)425_storage"
      },
      "t_mapping(t_string_memory_ptr,t_struct(ResearchPaper)434_storage)": {
        "encoding": "mapping",
        "key": "t_string_memory_ptr",
        "label": "mapping(string => struct Research.ResearchPaper)",
        "numberOfBytes": "32",
        "value": "t_struct(ResearchPaper)434_storage"
      },
      "t_string_memory_ptr": {
        "encoding": "bytes",
        "label": "string",
        "numberOfBytes": "32"
      },
      "t_string_storage": {
        "encoding": "bytes",
        "label": "string",
        "numberOfBytes": "32"
      },
      "t_struct(ResearchPaper)434_storage": {
        "encoding": "inplace",
        "label": "struct Research.ResearchPaper",
        "members": [
          {
            "astId": 427,
            "contract": "contracts/Research.sol:Research",
            "label": "theAddress",
            "offset": 0,
            "slot": "0",
            "type": "t_address"
          },
          {
            "astId": 429,
            "contract": "contracts/Research.sol:Research",
            "label": "title",
            "offset": 0,
            "slot": "1",
            "type": "t_string_storage"
          },
          {
            "astId": 431,
            "contract": "contracts/Research.sol:Research",
            "label": "uploadDate",
            "offset": 0,
            "slot": "2",
            "type": "t_uint256"
          },
          {
            "astId": 433,
            "contract": "contracts/Research.sol:Research",
            "label": "paperCid",
            "offset": 0,
            "slot": "3",
            "type": "t_string_storage"
          }
        ],
        "numberOfBytes": "128"
      },
      "t_struct(Researcher)425_storage": {
        "encoding": "inplace",
        "label": "struct Research.Researcher",
        "members": [
          {
            "astId": 419,
            "contract": "contracts/Research.sol:Research",
            "label": "name",
            "offset": 0,
            "slot": "0",
            "type": "t_string_storage"
          },
          {
            "astId": 421,
            "contract": "contracts/Research.sol:Research",
            "label": "joinDate",
            "offset": 0,
            "slot": "1",
            "type": "t_uint256"
          },
          {
            "astId": 424,
            "contract": "contracts/Research.sol:Research",
            "label": "paperCidArray",
            "offset": 0,
            "slot": "2",
            "type": "t_array(t_string_storage)dyn_storage"
          }
        ],
        "numberOfBytes": "96"
      },
      "t_uint256": {
        "encoding": "inplace",
        "label": "uint256",
        "numberOfBytes": "32"
      }
    }
  }
}