{
  "address": "0xFeCd31e12B14c7fd4ED2Ed786B88fE97b81Bab53",
  "abi": [
    {
      "anonymous": false,
      "inputs": [
        {
          "indexed": true,
          "internalType": "address",
          "name": "theAddress",
          "type": "address"
        },
        {
          "indexed": false,
          "internalType": "string",
          "name": "paperCid",
          "type": "string"
        }
      ],
      "name": "PaperUploaded",
      "type": "event"
    },
    {
      "anonymous": false,
      "inputs": [
        {
          "indexed": true,
          "internalType": "address",
          "name": "theAddress",
          "type": "address"
        },
        {
          "indexed": false,
          "internalType": "string",
          "name": "theName",
          "type": "string"
        }
      ],
      "name": "ProfileCreated",
      "type": "event"
    },
    {
      "inputs": [
        {
          "internalType": "string",
          "name": "_title",
          "type": "string"
        },
        {
          "internalType": "string",
          "name": "cid",
          "type": "string"
        }
      ],
      "name": "addPaper",
      "outputs": [],
      "stateMutability": "nonpayable",
      "type": "function"
    },
    {
      "inputs": [
        {
          "internalType": "uint256",
          "name": "",
          "type": "uint256"
        }
      ],
      "name": "allResearchers",
      "outputs": [
        {
          "internalType": "address",
          "name": "",
          "type": "address"
        }
      ],
      "stateMutability": "view",
      "type": "function"
    },
    {
      "inputs": [
        {
          "internalType": "string",
          "name": "cid",
          "type": "string"
        }
      ],
      "name": "cidToPaper",
      "outputs": [
        {
          "components": [
            {
              "internalType": "address",
              "name": "theAddress",
              "type": "address"
            },
            {
              "internalType": "string",
              "name": "title",
              "type": "string"
            },
            {
              "internalType": "uint256",
              "name": "uploadDate",
              "type": "uint256"
            },
            {
              "internalType": "string",
              "name": "paperCid",
              "type": "string"
            }
          ],
          "internalType": "struct Research.ResearchPaper",
          "name": "",
          "type": "tuple"
        }
      ],
      "stateMutability": "view",
      "type": "function"
    },
    {
      "inputs": [],
      "name": "getTime",
      "outputs": [
        {
          "internalType": "uint256",
          "name": "",
          "type": "uint256"
        }
      ],
      "stateMutability": "view",
      "type": "function"
    },
    {
      "inputs": [
        {
          "internalType": "string",
          "name": "theName",
          "type": "string"
        }
      ],
      "name": "newResearcher",
      "outputs": [],
      "stateMutability": "nonpayable",
      "type": "function"
    },
    {
      "inputs": [
        {
          "internalType": "address",
          "name": "theAddress",
          "type": "address"
        }
      ],
      "name": "viewOnesPapers",
      "outputs": [
        {
          "internalType": "string[]",
          "name": "",
          "type": "string[]"
        }
      ],
      "stateMutability": "view",
      "type": "function"
    },
    {
      "inputs": [
        {
          "internalType": "address",
          "name": "theAddress",
          "type": "address"
        }
      ],
      "name": "viewResearcher",
      "outputs": [
        {
          "components": [
            {
              "internalType": "string",
              "name": "name",
              "type": "string"
            },
            {
              "internalType": "uint256",
              "name": "joinDate",
              "type": "uint256"
            },
            {
              "internalType": "string[]",
              "name": "paperCidArray",
              "type": "string[]"
            }
          ],
          "internalType": "struct Research.Researcher",
          "name": "",
          "type": "tuple"
        }
      ],
      "stateMutability": "view",
      "type": "function"
    }
  ],
  "transactionHash": "0x4056b61b3091cf0b3f5e5d2081169bc62e9d1d88c5f51d2313beffc4125f080f",
  "args": [],
  "numDeployments": 9,
  "solcInputHash": "a4a80e93a7ec7d2b87f48208a74252ec",
  "bytecode": "0x608060405234801561001057600080fd5b5061140c806100206000396000f3fe608060405234801561001057600080fd5b506004361061007d5760003560e01c806375307ec71161005b57806375307ec7146101005780639314b9af14610130578063c12f67a21461014c578063f338c8e8146101685761007d565b806306be57c11461008257806320439c11146100b2578063557ed1ba146100e2575b600080fd5b61009c60048036038101906100979190610b2a565b610198565b6040516100a99190610cb6565b60405180910390f35b6100cc60048036038101906100c79190610d04565b610354565b6040516100d99190610e4a565b60405180910390f35b6100ea610522565b6040516100f79190610e7b565b60405180910390f35b61011a60048036038101906101159190610ec2565b61052a565b6040516101279190610efe565b60405180910390f35b61014a60048036038101906101459190610f19565b610569565b005b61016660048036038101906101619190610b2a565b61070b565b005b610182600480360381019061017d9190610d04565b610856565b60405161018f9190611017565b60405180910390f35b6101a0610971565b6002826040516101b09190611075565b90815260200160405180910390206040518060800160405290816000820160009054906101000a900473ffffffffffffffffffffffffffffffffffffffff1673ffffffffffffffffffffffffffffffffffffffff1673ffffffffffffffffffffffffffffffffffffffff16815260200160018201805461022f906110bb565b80601f016020809104026020016040519081016040528092919081815260200182805461025b906110bb565b80156102a85780601f1061027d576101008083540402835291602001916102a8565b820191906000526020600020905b81548152906001019060200180831161028b57829003601f168201915b50505050508152602001600282015481526020016003820180546102cb906110bb565b80601f01602080910402602001604051908101604052809291908181526020018280546102f7906110bb565b80156103445780601f1061031957610100808354040283529160200191610344565b820191906000526020600020905b81548152906001019060200180831161032757829003601f168201915b5050505050815250509050919050565b61035c6109af565b600160008373ffffffffffffffffffffffffffffffffffffffff1673ffffffffffffffffffffffffffffffffffffffff1681526020019081526020016000206040518060600160405290816000820180546103b6906110bb565b80601f01602080910402602001604051908101604052809291908181526020018280546103e2906110bb565b801561042f5780601f106104045761010080835404028352916020019161042f565b820191906000526020600020905b81548152906001019060200180831161041257829003601f168201915b505050505081526020016001820154815260200160028201805480602002602001604051908101604052809291908181526020016000905b82821015610513578382906000526020600020018054610486906110bb565b80601f01602080910402602001604051908101604052809291908181526020018280546104b2906110bb565b80156104ff5780601f106104d4576101008083540402835291602001916104ff565b820191906000526020600020905b8154815290600101906020018083116104e257829003601f168201915b505050505081526020019060010190610467565b50505050815250509050919050565b600042905090565b6000818154811061053a57600080fd5b906000526020600020016000915054906101000a900473ffffffffffffffffffffffffffffffffffffffff1681565b600060405180608001604052803373ffffffffffffffffffffffffffffffffffffffff168152602001848152602001428152602001838152509050600160003373ffffffffffffffffffffffffffffffffffffffff1673ffffffffffffffffffffffffffffffffffffffff168152602001908152602001600020600201829080600181540180825580915050600190039060005260206000200160009091909190915090816106189190611298565b508060028360405161062a9190611075565b908152602001604051809103902060008201518160000160006101000a81548173ffffffffffffffffffffffffffffffffffffffff021916908373ffffffffffffffffffffffffffffffffffffffff16021790555060208201518160010190816106949190611298565b506040820151816002015560608201518160030190816106b49190611298565b509050503373ffffffffffffffffffffffffffffffffffffffff167ff006ed2d702c89b9d14b47ac2cc112da7074fb24dbe4b9fb012d71aff10d0546836040516106fe91906113b4565b60405180910390a2505050565b80600160003373ffffffffffffffffffffffffffffffffffffffff1673ffffffffffffffffffffffffffffffffffffffff168152602001908152602001600020600001908161075a9190611298565b5042600160003373ffffffffffffffffffffffffffffffffffffffff1673ffffffffffffffffffffffffffffffffffffffff168152602001908152602001600020600101819055506000339080600181540180825580915050600190039060005260206000200160009091909190916101000a81548173ffffffffffffffffffffffffffffffffffffffff021916908373ffffffffffffffffffffffffffffffffffffffff1602179055503373ffffffffffffffffffffffffffffffffffffffff167fbafddecbd1dec1c1afb76d693f1de16901f521bdf29a02438e3e6806c0b8d9488260405161084b91906113b4565b60405180910390a250565b6060600160008373ffffffffffffffffffffffffffffffffffffffff1673ffffffffffffffffffffffffffffffffffffffff168152602001908152602001600020600201805480602002602001604051908101604052809291908181526020016000905b828210156109665783829060005260206000200180546108d9906110bb565b80601f0160208091040260200160405190810160405280929190818152602001828054610905906110bb565b80156109525780601f1061092757610100808354040283529160200191610952565b820191906000526020600020905b81548152906001019060200180831161093557829003601f168201915b5050505050815260200190600101906108ba565b505050509050919050565b6040518060800160405280600073ffffffffffffffffffffffffffffffffffffffff1681526020016060815260200160008152602001606081525090565b60405180606001604052806060815260200160008152602001606081525090565b6000604051905090565b600080fd5b600080fd5b600080fd5b600080fd5b6000601f19601f8301169050919050565b7f4e487b7100000000000000000000000000000000000000000000000000000000600052604160045260246000fd5b610a37826109ee565b810181811067ffffffffffffffff82111715610a5657610a556109ff565b5b80604052505050565b6000610a696109d0565b9050610a758282610a2e565b919050565b600067ffffffffffffffff821115610a9557610a946109ff565b5b610a9e826109ee565b9050602081019050919050565b82818337600083830152505050565b6000610acd610ac884610a7a565b610a5f565b905082815260208101848484011115610ae957610ae86109e9565b5b610af4848285610aab565b509392505050565b600082601f830112610b1157610b106109e4565b5b8135610b21848260208601610aba565b91505092915050565b600060208284031215610b4057610b3f6109da565b5b600082013567ffffffffffffffff811115610b5e57610b5d6109df565b5b610b6a84828501610afc565b91505092915050565b600073ffffffffffffffffffffffffffffffffffffffff82169050919050565b6000610b9e82610b73565b9050919050565b610bae81610b93565b82525050565b600081519050919050565b600082825260208201905092915050565b60005b83811015610bee578082015181840152602081019050610bd3565b60008484015250505050565b6000610c0582610bb4565b610c0f8185610bbf565b9350610c1f818560208601610bd0565b610c28816109ee565b840191505092915050565b6000819050919050565b610c4681610c33565b82525050565b6000608083016000830151610c646000860182610ba5565b5060208301518482036020860152610c7c8282610bfa565b9150506040830151610c916040860182610c3d565b5060608301518482036060860152610ca98282610bfa565b9150508091505092915050565b60006020820190508181036000830152610cd08184610c4c565b905092915050565b610ce181610b93565b8114610cec57600080fd5b50565b600081359050610cfe81610cd8565b92915050565b600060208284031215610d1a57610d196109da565b5b6000610d2884828501610cef565b91505092915050565b600081519050919050565b600082825260208201905092915050565b6000819050602082019050919050565b6000610d698383610bfa565b905092915050565b6000602082019050919050565b6000610d8982610d31565b610d938185610d3c565b935083602082028501610da585610d4d565b8060005b85811015610de15784840389528151610dc28582610d5d565b9450610dcd83610d71565b925060208a01995050600181019050610da9565b50829750879550505050505092915050565b60006060830160008301518482036000860152610e108282610bfa565b9150506020830151610e256020860182610c3d565b5060408301518482036040860152610e3d8282610d7e565b9150508091505092915050565b60006020820190508181036000830152610e648184610df3565b905092915050565b610e7581610c33565b82525050565b6000602082019050610e906000830184610e6c565b92915050565b610e9f81610c33565b8114610eaa57600080fd5b50565b600081359050610ebc81610e96565b92915050565b600060208284031215610ed857610ed76109da565b5b6000610ee684828501610ead565b91505092915050565b610ef881610b93565b82525050565b6000602082019050610f136000830184610eef565b92915050565b60008060408385031215610f3057610f2f6109da565b5b600083013567ffffffffffffffff811115610f4e57610f4d6109df565b5b610f5a85828601610afc565b925050602083013567ffffffffffffffff811115610f7b57610f7a6109df565b5b610f8785828601610afc565b9150509250929050565b600082825260208201905092915050565b6000610fad82610d31565b610fb78185610f91565b935083602082028501610fc985610d4d565b8060005b858110156110055784840389528151610fe68582610d5d565b9450610ff183610d71565b925060208a01995050600181019050610fcd565b50829750879550505050505092915050565b600060208201905081810360008301526110318184610fa2565b905092915050565b600081905092915050565b600061104f82610bb4565b6110598185611039565b9350611069818560208601610bd0565b80840191505092915050565b60006110818284611044565b915081905092915050565b7f4e487b7100000000000000000000000000000000000000000000000000000000600052602260045260246000fd5b600060028204905060018216806110d357607f821691505b6020821081036110e6576110e561108c565b5b50919050565b60008190508160005260206000209050919050565b60006020601f8301049050919050565b600082821b905092915050565b60006008830261114e7fffffffffffffffffffffffffffffffffffffffffffffffffffffffffffffffff82611111565b6111588683611111565b95508019841693508086168417925050509392505050565b6000819050919050565b600061119561119061118b84610c33565b611170565b610c33565b9050919050565b6000819050919050565b6111af8361117a565b6111c36111bb8261119c565b84845461111e565b825550505050565b600090565b6111d86111cb565b6111e38184846111a6565b505050565b5b81811015611207576111fc6000826111d0565b6001810190506111e9565b5050565b601f82111561124c5761121d816110ec565b61122684611101565b81016020851015611235578190505b61124961124185611101565b8301826111e8565b50505b505050565b600082821c905092915050565b600061126f60001984600802611251565b1980831691505092915050565b6000611288838361125e565b9150826002028217905092915050565b6112a182610bb4565b67ffffffffffffffff8111156112ba576112b96109ff565b5b6112c482546110bb565b6112cf82828561120b565b600060209050601f83116001811461130257600084156112f0578287015190505b6112fa858261127c565b865550611362565b601f198416611310866110ec565b60005b8281101561133857848901518255600182019150602085019450602081019050611313565b868310156113555784890151611351601f89168261125e565b8355505b6001600288020188555050505b505050505050565b600082825260208201905092915050565b600061138682610bb4565b611390818561136a565b93506113a0818560208601610bd0565b6113a9816109ee565b840191505092915050565b600060208201905081810360008301526113ce818461137b565b90509291505056fea2646970667358221220533c7078ffe875a7bb9a84e3eaed8d425275f5fd241f7702648056ea27ce751364736f6c63430008120033",
  "devdoc": {
    "kind": "dev",
    "methods": {},
    "version": 1
  },
  "userdoc": {
    "kind": "user",
    "methods": {},
    "version": 1
  },
  "storageLayout": {
    "storage": [
      {
        "astId": 409,
        "contract": "contracts/Research.sol:Research",
        "label": "allResearchers",
        "offset": 0,
        "slot": "0",
        "type": "t_array(t_address)dyn_storage"
      },
      {
        "astId": 443,
        "contract": "contracts/Research.sol:Research",
        "label": "profileMapping",
        "offset": 0,
        "slot": "1",
        "type": "t_mapping(t_address,t_struct(Researcher)429_storage)"
      },
      {
        "astId": 448,
        "contract": "contracts/Research.sol:Research",
        "label": "paperMapping",
        "offset": 0,
        "slot": "2",
        "type": "t_mapping(t_string_memory_ptr,t_struct(ResearchPaper)438_storage)"
      }
    ],
    "types": {
      "t_address": {
        "encoding": "inplace",
        "label": "address",
        "numberOfBytes": "20"
      },
      "t_array(t_address)dyn_storage": {
        "base": "t_address",
        "encoding": "dynamic_array",
        "label": "address[]",
        "numberOfBytes": "32"
      },
      "t_array(t_string_storage)dyn_storage": {
        "base": "t_string_storage",
        "encoding": "dynamic_array",
        "label": "string[]",
        "numberOfBytes": "32"
      },
      "t_mapping(t_address,t_struct(Researcher)429_storage)": {
        "encoding": "mapping",
        "key": "t_address",
        "label": "mapping(address => struct Research.Researcher)",
        "numberOfBytes": "32",
        "value": "t_struct(Researcher)429_storage"
      },
      "t_mapping(t_string_memory_ptr,t_struct(ResearchPaper)438_storage)": {
        "encoding": "mapping",
        "key": "t_string_memory_ptr",
        "label": "mapping(string => struct Research.ResearchPaper)",
        "numberOfBytes": "32",
        "value": "t_struct(ResearchPaper)438_storage"
      },
      "t_string_memory_ptr": {
        "encoding": "bytes",
        "label": "string",
        "numberOfBytes": "32"
      },
      "t_string_storage": {
        "encoding": "bytes",
        "label": "string",
        "numberOfBytes": "32"
      },
      "t_struct(ResearchPaper)438_storage": {
        "encoding": "inplace",
        "label": "struct Research.ResearchPaper",
        "members": [
          {
            "astId": 431,
            "contract": "contracts/Research.sol:Research",
            "label": "theAddress",
            "offset": 0,
            "slot": "0",
            "type": "t_address"
          },
          {
            "astId": 433,
            "contract": "contracts/Research.sol:Research",
            "label": "title",
            "offset": 0,
            "slot": "1",
            "type": "t_string_storage"
          },
          {
            "astId": 435,
            "contract": "contracts/Research.sol:Research",
            "label": "uploadDate",
            "offset": 0,
            "slot": "2",
            "type": "t_uint256"
          },
          {
            "astId": 437,
            "contract": "contracts/Research.sol:Research",
            "label": "paperCid",
            "offset": 0,
            "slot": "3",
            "type": "t_string_storage"
          }
        ],
        "numberOfBytes": "128"
      },
      "t_struct(Researcher)429_storage": {
        "encoding": "inplace",
        "label": "struct Research.Researcher",
        "members": [
          {
            "astId": 423,
            "contract": "contracts/Research.sol:Research",
            "label": "name",
            "offset": 0,
            "slot": "0",
            "type": "t_string_storage"
          },
          {
            "astId": 425,
            "contract": "contracts/Research.sol:Research",
            "label": "joinDate",
            "offset": 0,
            "slot": "1",
            "type": "t_uint256"
          },
          {
            "astId": 428,
            "contract": "contracts/Research.sol:Research",
            "label": "paperCidArray",
            "offset": 0,
            "slot": "2",
            "type": "t_array(t_string_storage)dyn_storage"
          }
        ],
        "numberOfBytes": "96"
      },
      "t_uint256": {
        "encoding": "inplace",
        "label": "uint256",
        "numberOfBytes": "32"
      }
    }
  }
}