{
  "address": "0x64647504033fC18fa34713e35C3b336B41E66Bb4",
  "abi": [
    {
      "inputs": [
        {
          "internalType": "string",
          "name": "_title",
          "type": "string"
        },
        {
          "internalType": "string",
          "name": "cid",
          "type": "string"
        }
      ],
      "name": "addPaper",
      "outputs": [],
      "stateMutability": "nonpayable",
      "type": "function"
    },
    {
      "inputs": [],
      "name": "getTime",
      "outputs": [
        {
          "internalType": "uint256",
          "name": "",
          "type": "uint256"
        }
      ],
      "stateMutability": "view",
      "type": "function"
    },
    {
      "inputs": [
        {
          "internalType": "string",
          "name": "theName",
          "type": "string"
        }
      ],
      "name": "newResearcher",
      "outputs": [],
      "stateMutability": "nonpayable",
      "type": "function"
    },
    {
      "inputs": [
        {
          "internalType": "address",
          "name": "theAddress",
          "type": "address"
        }
      ],
      "name": "viewOnesPapers",
      "outputs": [
        {
          "internalType": "string[]",
          "name": "",
          "type": "string[]"
        }
      ],
      "stateMutability": "view",
      "type": "function"
    },
    {
      "inputs": [
        {
          "internalType": "address",
          "name": "theAddress",
          "type": "address"
        }
      ],
      "name": "viewResearcher",
      "outputs": [
        {
          "components": [
            {
              "internalType": "string",
              "name": "name",
              "type": "string"
            },
            {
              "internalType": "uint256",
              "name": "joinDate",
              "type": "uint256"
            },
            {
              "internalType": "string[]",
              "name": "paperCidArray",
              "type": "string[]"
            }
          ],
          "internalType": "struct Research.Researcher",
          "name": "",
          "type": "tuple"
        }
      ],
      "stateMutability": "view",
      "type": "function"
    }
  ],
  "transactionHash": "0x93ff33314c1c596c2cdfcc293c4db0605b2868c618501d6b4e8b0199a37c43e5",
  "args": [],
  "numDeployments": 4,
  "solcInputHash": "9e25a5a81d4a8a5789993572754cc99a",
  "bytecode": "0x608060405234801561001057600080fd5b50610ebf806100206000396000f3fe608060405234801561001057600080fd5b50600436106100575760003560e01c806320439c111461005c578063557ed1ba1461008c5780639314b9af146100aa578063c12f67a2146100c6578063f338c8e8146100e2575b600080fd5b6100766004803603810190610071919061067f565b610112565b604051610083919061086e565b60405180910390f35b6100946102df565b6040516100a1919061089f565b60405180910390f35b6100c460048036038101906100bf91906109ef565b6102e7565b005b6100e060048036038101906100db9190610a67565b61043a565b005b6100fc60048036038101906100f7919061067f565b6104d2565b6040516101099190610b36565b60405180910390f35b61011a6105ec565b6000808373ffffffffffffffffffffffffffffffffffffffff1673ffffffffffffffffffffffffffffffffffffffff16815260200190815260200160002060405180606001604052908160008201805461017390610b87565b80601f016020809104026020016040519081016040528092919081815260200182805461019f90610b87565b80156101ec5780601f106101c1576101008083540402835291602001916101ec565b820191906000526020600020905b8154815290600101906020018083116101cf57829003601f168201915b505050505081526020016001820154815260200160028201805480602002602001604051908101604052809291908181526020016000905b828210156102d057838290600052602060002001805461024390610b87565b80601f016020809104026020016040519081016040528092919081815260200182805461026f90610b87565b80156102bc5780601f10610291576101008083540402835291602001916102bc565b820191906000526020600020905b81548152906001019060200180831161029f57829003601f168201915b505050505081526020019060010190610224565b50505050815250509050919050565b600042905090565b600060405180608001604052803373ffffffffffffffffffffffffffffffffffffffff1681526020018481526020014281526020018381525090506000803373ffffffffffffffffffffffffffffffffffffffff1673ffffffffffffffffffffffffffffffffffffffff168152602001908152602001600020600201829080600181540180825580915050600190039060005260206000200160009091909190915090816103959190610d64565b50806001836040516103a79190610e72565b908152602001604051809103902060008201518160000160006101000a81548173ffffffffffffffffffffffffffffffffffffffff021916908373ffffffffffffffffffffffffffffffffffffffff16021790555060208201518160010190816104119190610d64565b506040820151816002015560608201518160030190816104319190610d64565b50905050505050565b806000803373ffffffffffffffffffffffffffffffffffffffff1673ffffffffffffffffffffffffffffffffffffffff16815260200190815260200160002060000190816104889190610d64565b50426000803373ffffffffffffffffffffffffffffffffffffffff1673ffffffffffffffffffffffffffffffffffffffff1681526020019081526020016000206001018190555050565b60606000808373ffffffffffffffffffffffffffffffffffffffff1673ffffffffffffffffffffffffffffffffffffffff168152602001908152602001600020600201805480602002602001604051908101604052809291908181526020016000905b828210156105e157838290600052602060002001805461055490610b87565b80601f016020809104026020016040519081016040528092919081815260200182805461058090610b87565b80156105cd5780601f106105a2576101008083540402835291602001916105cd565b820191906000526020600020905b8154815290600101906020018083116105b057829003601f168201915b505050505081526020019060010190610535565b505050509050919050565b60405180606001604052806060815260200160008152602001606081525090565b6000604051905090565b600080fd5b600080fd5b600073ffffffffffffffffffffffffffffffffffffffff82169050919050565b600061064c82610621565b9050919050565b61065c81610641565b811461066757600080fd5b50565b60008135905061067981610653565b92915050565b60006020828403121561069557610694610617565b5b60006106a38482850161066a565b91505092915050565b600081519050919050565b600082825260208201905092915050565b60005b838110156106e65780820151818401526020810190506106cb565b60008484015250505050565b6000601f19601f8301169050919050565b600061070e826106ac565b61071881856106b7565b93506107288185602086016106c8565b610731816106f2565b840191505092915050565b6000819050919050565b61074f8161073c565b82525050565b600081519050919050565b600082825260208201905092915050565b6000819050602082019050919050565b600061078d8383610703565b905092915050565b6000602082019050919050565b60006107ad82610755565b6107b78185610760565b9350836020820285016107c985610771565b8060005b8581101561080557848403895281516107e68582610781565b94506107f183610795565b925060208a019950506001810190506107cd565b50829750879550505050505092915050565b600060608301600083015184820360008601526108348282610703565b91505060208301516108496020860182610746565b506040830151848203604086015261086182826107a2565b9150508091505092915050565b600060208201905081810360008301526108888184610817565b905092915050565b6108998161073c565b82525050565b60006020820190506108b46000830184610890565b92915050565b600080fd5b600080fd5b7f4e487b7100000000000000000000000000000000000000000000000000000000600052604160045260246000fd5b6108fc826106f2565b810181811067ffffffffffffffff8211171561091b5761091a6108c4565b5b80604052505050565b600061092e61060d565b905061093a82826108f3565b919050565b600067ffffffffffffffff82111561095a576109596108c4565b5b610963826106f2565b9050602081019050919050565b82818337600083830152505050565b600061099261098d8461093f565b610924565b9050828152602081018484840111156109ae576109ad6108bf565b5b6109b9848285610970565b509392505050565b600082601f8301126109d6576109d56108ba565b5b81356109e684826020860161097f565b91505092915050565b60008060408385031215610a0657610a05610617565b5b600083013567ffffffffffffffff811115610a2457610a2361061c565b5b610a30858286016109c1565b925050602083013567ffffffffffffffff811115610a5157610a5061061c565b5b610a5d858286016109c1565b9150509250929050565b600060208284031215610a7d57610a7c610617565b5b600082013567ffffffffffffffff811115610a9b57610a9a61061c565b5b610aa7848285016109c1565b91505092915050565b600082825260208201905092915050565b6000610acc82610755565b610ad68185610ab0565b935083602082028501610ae885610771565b8060005b85811015610b245784840389528151610b058582610781565b9450610b1083610795565b925060208a01995050600181019050610aec565b50829750879550505050505092915050565b60006020820190508181036000830152610b508184610ac1565b905092915050565b7f4e487b7100000000000000000000000000000000000000000000000000000000600052602260045260246000fd5b60006002820490506001821680610b9f57607f821691505b602082108103610bb257610bb1610b58565b5b50919050565b60008190508160005260206000209050919050565b60006020601f8301049050919050565b600082821b905092915050565b600060088302610c1a7fffffffffffffffffffffffffffffffffffffffffffffffffffffffffffffffff82610bdd565b610c248683610bdd565b95508019841693508086168417925050509392505050565b6000819050919050565b6000610c61610c5c610c578461073c565b610c3c565b61073c565b9050919050565b6000819050919050565b610c7b83610c46565b610c8f610c8782610c68565b848454610bea565b825550505050565b600090565b610ca4610c97565b610caf818484610c72565b505050565b5b81811015610cd357610cc8600082610c9c565b600181019050610cb5565b5050565b601f821115610d1857610ce981610bb8565b610cf284610bcd565b81016020851015610d01578190505b610d15610d0d85610bcd565b830182610cb4565b50505b505050565b600082821c905092915050565b6000610d3b60001984600802610d1d565b1980831691505092915050565b6000610d548383610d2a565b9150826002028217905092915050565b610d6d826106ac565b67ffffffffffffffff811115610d8657610d856108c4565b5b610d908254610b87565b610d9b828285610cd7565b600060209050601f831160018114610dce5760008415610dbc578287015190505b610dc68582610d48565b865550610e2e565b601f198416610ddc86610bb8565b60005b82811015610e0457848901518255600182019150602085019450602081019050610ddf565b86831015610e215784890151610e1d601f891682610d2a565b8355505b6001600288020188555050505b505050505050565b600081905092915050565b6000610e4c826106ac565b610e568185610e36565b9350610e668185602086016106c8565b80840191505092915050565b6000610e7e8284610e41565b91508190509291505056fea2646970667358221220b4567dd7071e9e609b64bc576eb91eeeb6c0db716b4fc3b01bcf556be7c793ac64736f6c63430008120033",
  "devdoc": {
    "kind": "dev",
    "methods": {},
    "version": 1
  },
  "userdoc": {
    "kind": "user",
    "methods": {},
    "version": 1
  },
  "storageLayout": {
    "storage": [
      {
        "astId": 23,
        "contract": "contracts/Research.sol:Research",
        "label": "profileMapping",
        "offset": 0,
        "slot": "0",
        "type": "t_mapping(t_address,t_struct(Researcher)9_storage)"
      },
      {
        "astId": 28,
        "contract": "contracts/Research.sol:Research",
        "label": "paperMapping",
        "offset": 0,
        "slot": "1",
        "type": "t_mapping(t_string_memory_ptr,t_struct(ResearchPaper)18_storage)"
      }
    ],
    "types": {
      "t_address": {
        "encoding": "inplace",
        "label": "address",
        "numberOfBytes": "20"
      },
      "t_array(t_string_storage)dyn_storage": {
        "base": "t_string_storage",
        "encoding": "dynamic_array",
        "label": "string[]",
        "numberOfBytes": "32"
      },
      "t_mapping(t_address,t_struct(Researcher)9_storage)": {
        "encoding": "mapping",
        "key": "t_address",
        "label": "mapping(address => struct Research.Researcher)",
        "numberOfBytes": "32",
        "value": "t_struct(Researcher)9_storage"
      },
      "t_mapping(t_string_memory_ptr,t_struct(ResearchPaper)18_storage)": {
        "encoding": "mapping",
        "key": "t_string_memory_ptr",
        "label": "mapping(string => struct Research.ResearchPaper)",
        "numberOfBytes": "32",
        "value": "t_struct(ResearchPaper)18_storage"
      },
      "t_string_memory_ptr": {
        "encoding": "bytes",
        "label": "string",
        "numberOfBytes": "32"
      },
      "t_string_storage": {
        "encoding": "bytes",
        "label": "string",
        "numberOfBytes": "32"
      },
      "t_struct(ResearchPaper)18_storage": {
        "encoding": "inplace",
        "label": "struct Research.ResearchPaper",
        "members": [
          {
            "astId": 11,
            "contract": "contracts/Research.sol:Research",
            "label": "theAddress",
            "offset": 0,
            "slot": "0",
            "type": "t_address"
          },
          {
            "astId": 13,
            "contract": "contracts/Research.sol:Research",
            "label": "title",
            "offset": 0,
            "slot": "1",
            "type": "t_string_storage"
          },
          {
            "astId": 15,
            "contract": "contracts/Research.sol:Research",
            "label": "uploadDate",
            "offset": 0,
            "slot": "2",
            "type": "t_uint256"
          },
          {
            "astId": 17,
            "contract": "contracts/Research.sol:Research",
            "label": "paperCid",
            "offset": 0,
            "slot": "3",
            "type": "t_string_storage"
          }
        ],
        "numberOfBytes": "128"
      },
      "t_struct(Researcher)9_storage": {
        "encoding": "inplace",
        "label": "struct Research.Researcher",
        "members": [
          {
            "astId": 3,
            "contract": "contracts/Research.sol:Research",
            "label": "name",
            "offset": 0,
            "slot": "0",
            "type": "t_string_storage"
          },
          {
            "astId": 5,
            "contract": "contracts/Research.sol:Research",
            "label": "joinDate",
            "offset": 0,
            "slot": "1",
            "type": "t_uint256"
          },
          {
            "astId": 8,
            "contract": "contracts/Research.sol:Research",
            "label": "paperCidArray",
            "offset": 0,
            "slot": "2",
            "type": "t_array(t_string_storage)dyn_storage"
          }
        ],
        "numberOfBytes": "96"
      },
      "t_uint256": {
        "encoding": "inplace",
        "label": "uint256",
        "numberOfBytes": "32"
      }
    }
  }
}