{
  "address": "0x16E7eF94cE592114EbCDF29a1Af5FfD3fb3634Aa",
  "abi": [
    {
      "anonymous": false,
      "inputs": [
        {
          "indexed": true,
          "internalType": "address",
          "name": "theAddress",
          "type": "address"
        },
        {
          "indexed": false,
          "internalType": "string",
          "name": "paperCid",
          "type": "string"
        }
      ],
      "name": "PaperUploaded",
      "type": "event"
    },
    {
      "anonymous": false,
      "inputs": [
        {
          "indexed": true,
          "internalType": "address",
          "name": "theAddress",
          "type": "address"
        },
        {
          "indexed": false,
          "internalType": "string",
          "name": "theName",
          "type": "string"
        }
      ],
      "name": "ProfileCreated",
      "type": "event"
    },
    {
      "inputs": [
        {
          "internalType": "string",
          "name": "_title",
          "type": "string"
        },
        {
          "internalType": "string",
          "name": "cid",
          "type": "string"
        }
      ],
      "name": "addPaper",
      "outputs": [],
      "stateMutability": "nonpayable",
      "type": "function"
    },
    {
      "inputs": [
        {
          "internalType": "string",
          "name": "cid",
          "type": "string"
        }
      ],
      "name": "cidToPaper",
      "outputs": [
        {
          "components": [
            {
              "internalType": "address",
              "name": "theAddress",
              "type": "address"
            },
            {
              "internalType": "string",
              "name": "title",
              "type": "string"
            },
            {
              "internalType": "uint256",
              "name": "uploadDate",
              "type": "uint256"
            },
            {
              "internalType": "string",
              "name": "paperCid",
              "type": "string"
            }
          ],
          "internalType": "struct Research.ResearchPaper",
          "name": "",
          "type": "tuple"
        }
      ],
      "stateMutability": "view",
      "type": "function"
    },
    {
      "inputs": [],
      "name": "getTime",
      "outputs": [
        {
          "internalType": "uint256",
          "name": "",
          "type": "uint256"
        }
      ],
      "stateMutability": "view",
      "type": "function"
    },
    {
      "inputs": [
        {
          "internalType": "string",
          "name": "theName",
          "type": "string"
        }
      ],
      "name": "newResearcher",
      "outputs": [],
      "stateMutability": "nonpayable",
      "type": "function"
    },
    {
      "inputs": [
        {
          "internalType": "address",
          "name": "theAddress",
          "type": "address"
        }
      ],
      "name": "viewOnesPapers",
      "outputs": [
        {
          "internalType": "string[]",
          "name": "",
          "type": "string[]"
        }
      ],
      "stateMutability": "view",
      "type": "function"
    },
    {
      "inputs": [
        {
          "internalType": "address",
          "name": "theAddress",
          "type": "address"
        }
      ],
      "name": "viewResearcher",
      "outputs": [
        {
          "components": [
            {
              "internalType": "string",
              "name": "name",
              "type": "string"
            },
            {
              "internalType": "uint256",
              "name": "joinDate",
              "type": "uint256"
            },
            {
              "internalType": "string[]",
              "name": "paperCidArray",
              "type": "string[]"
            }
          ],
          "internalType": "struct Research.Researcher",
          "name": "",
          "type": "tuple"
        }
      ],
      "stateMutability": "view",
      "type": "function"
    }
  ],
  "transactionHash": "0xf036d97e106a1b46ff4c55dcf98b9e2ad0b078e65ff5c185149f820b8ecb88ef",
  "args": [],
  "numDeployments": 8,
  "solcInputHash": "6fa17cbe32153bb181761c8787ecc940",
  "bytecode": "0x608060405234801561001057600080fd5b50611297806100206000396000f3fe608060405234801561001057600080fd5b50600436106100625760003560e01c806306be57c11461006757806320439c1114610097578063557ed1ba146100c75780639314b9af146100e5578063c12f67a214610101578063f338c8e81461011d575b600080fd5b610081600480360381019061007c9190610a38565b61014d565b60405161008e9190610bc4565b60405180910390f35b6100b160048036038101906100ac9190610c12565b610309565b6040516100be9190610d58565b60405180910390f35b6100cf6104d6565b6040516100dc9190610d89565b60405180910390f35b6100ff60048036038101906100fa9190610da4565b6104de565b005b61011b60048036038101906101169190610a38565b61067f565b005b61013760048036038101906101329190610c12565b610765565b6040516101449190610ea2565b60405180910390f35b61015561087f565b6001826040516101659190610f00565b90815260200160405180910390206040518060800160405290816000820160009054906101000a900473ffffffffffffffffffffffffffffffffffffffff1673ffffffffffffffffffffffffffffffffffffffff1673ffffffffffffffffffffffffffffffffffffffff1681526020016001820180546101e490610f46565b80601f016020809104026020016040519081016040528092919081815260200182805461021090610f46565b801561025d5780601f106102325761010080835404028352916020019161025d565b820191906000526020600020905b81548152906001019060200180831161024057829003601f168201915b505050505081526020016002820154815260200160038201805461028090610f46565b80601f01602080910402602001604051908101604052809291908181526020018280546102ac90610f46565b80156102f95780601f106102ce576101008083540402835291602001916102f9565b820191906000526020600020905b8154815290600101906020018083116102dc57829003601f168201915b5050505050815250509050919050565b6103116108bd565b6000808373ffffffffffffffffffffffffffffffffffffffff1673ffffffffffffffffffffffffffffffffffffffff16815260200190815260200160002060405180606001604052908160008201805461036a90610f46565b80601f016020809104026020016040519081016040528092919081815260200182805461039690610f46565b80156103e35780601f106103b8576101008083540402835291602001916103e3565b820191906000526020600020905b8154815290600101906020018083116103c657829003601f168201915b505050505081526020016001820154815260200160028201805480602002602001604051908101604052809291908181526020016000905b828210156104c757838290600052602060002001805461043a90610f46565b80601f016020809104026020016040519081016040528092919081815260200182805461046690610f46565b80156104b35780601f10610488576101008083540402835291602001916104b3565b820191906000526020600020905b81548152906001019060200180831161049657829003601f168201915b50505050508152602001906001019061041b565b50505050815250509050919050565b600042905090565b600060405180608001604052803373ffffffffffffffffffffffffffffffffffffffff1681526020018481526020014281526020018381525090506000803373ffffffffffffffffffffffffffffffffffffffff1673ffffffffffffffffffffffffffffffffffffffff1681526020019081526020016000206002018290806001815401808255809150506001900390600052602060002001600090919091909150908161058c9190611123565b508060018360405161059e9190610f00565b908152602001604051809103902060008201518160000160006101000a81548173ffffffffffffffffffffffffffffffffffffffff021916908373ffffffffffffffffffffffffffffffffffffffff16021790555060208201518160010190816106089190611123565b506040820151816002015560608201518160030190816106289190611123565b509050503373ffffffffffffffffffffffffffffffffffffffff167ff006ed2d702c89b9d14b47ac2cc112da7074fb24dbe4b9fb012d71aff10d054683604051610672919061123f565b60405180910390a2505050565b806000803373ffffffffffffffffffffffffffffffffffffffff1673ffffffffffffffffffffffffffffffffffffffff16815260200190815260200160002060000190816106cd9190611123565b50426000803373ffffffffffffffffffffffffffffffffffffffff1673ffffffffffffffffffffffffffffffffffffffff168152602001908152602001600020600101819055503373ffffffffffffffffffffffffffffffffffffffff167fbafddecbd1dec1c1afb76d693f1de16901f521bdf29a02438e3e6806c0b8d9488260405161075a919061123f565b60405180910390a250565b60606000808373ffffffffffffffffffffffffffffffffffffffff1673ffffffffffffffffffffffffffffffffffffffff168152602001908152602001600020600201805480602002602001604051908101604052809291908181526020016000905b828210156108745783829060005260206000200180546107e790610f46565b80601f016020809104026020016040519081016040528092919081815260200182805461081390610f46565b80156108605780601f1061083557610100808354040283529160200191610860565b820191906000526020600020905b81548152906001019060200180831161084357829003601f168201915b5050505050815260200190600101906107c8565b505050509050919050565b6040518060800160405280600073ffffffffffffffffffffffffffffffffffffffff1681526020016060815260200160008152602001606081525090565b60405180606001604052806060815260200160008152602001606081525090565b6000604051905090565b600080fd5b600080fd5b600080fd5b600080fd5b6000601f19601f8301169050919050565b7f4e487b7100000000000000000000000000000000000000000000000000000000600052604160045260246000fd5b610945826108fc565b810181811067ffffffffffffffff821117156109645761096361090d565b5b80604052505050565b60006109776108de565b9050610983828261093c565b919050565b600067ffffffffffffffff8211156109a3576109a261090d565b5b6109ac826108fc565b9050602081019050919050565b82818337600083830152505050565b60006109db6109d684610988565b61096d565b9050828152602081018484840111156109f7576109f66108f7565b5b610a028482856109b9565b509392505050565b600082601f830112610a1f57610a1e6108f2565b5b8135610a2f8482602086016109c8565b91505092915050565b600060208284031215610a4e57610a4d6108e8565b5b600082013567ffffffffffffffff811115610a6c57610a6b6108ed565b5b610a7884828501610a0a565b91505092915050565b600073ffffffffffffffffffffffffffffffffffffffff82169050919050565b6000610aac82610a81565b9050919050565b610abc81610aa1565b82525050565b600081519050919050565b600082825260208201905092915050565b60005b83811015610afc578082015181840152602081019050610ae1565b60008484015250505050565b6000610b1382610ac2565b610b1d8185610acd565b9350610b2d818560208601610ade565b610b36816108fc565b840191505092915050565b6000819050919050565b610b5481610b41565b82525050565b6000608083016000830151610b726000860182610ab3565b5060208301518482036020860152610b8a8282610b08565b9150506040830151610b9f6040860182610b4b565b5060608301518482036060860152610bb78282610b08565b9150508091505092915050565b60006020820190508181036000830152610bde8184610b5a565b905092915050565b610bef81610aa1565b8114610bfa57600080fd5b50565b600081359050610c0c81610be6565b92915050565b600060208284031215610c2857610c276108e8565b5b6000610c3684828501610bfd565b91505092915050565b600081519050919050565b600082825260208201905092915050565b6000819050602082019050919050565b6000610c778383610b08565b905092915050565b6000602082019050919050565b6000610c9782610c3f565b610ca18185610c4a565b935083602082028501610cb385610c5b565b8060005b85811015610cef5784840389528151610cd08582610c6b565b9450610cdb83610c7f565b925060208a01995050600181019050610cb7565b50829750879550505050505092915050565b60006060830160008301518482036000860152610d1e8282610b08565b9150506020830151610d336020860182610b4b565b5060408301518482036040860152610d4b8282610c8c565b9150508091505092915050565b60006020820190508181036000830152610d728184610d01565b905092915050565b610d8381610b41565b82525050565b6000602082019050610d9e6000830184610d7a565b92915050565b60008060408385031215610dbb57610dba6108e8565b5b600083013567ffffffffffffffff811115610dd957610dd86108ed565b5b610de585828601610a0a565b925050602083013567ffffffffffffffff811115610e0657610e056108ed565b5b610e1285828601610a0a565b9150509250929050565b600082825260208201905092915050565b6000610e3882610c3f565b610e428185610e1c565b935083602082028501610e5485610c5b565b8060005b85811015610e905784840389528151610e718582610c6b565b9450610e7c83610c7f565b925060208a01995050600181019050610e58565b50829750879550505050505092915050565b60006020820190508181036000830152610ebc8184610e2d565b905092915050565b600081905092915050565b6000610eda82610ac2565b610ee48185610ec4565b9350610ef4818560208601610ade565b80840191505092915050565b6000610f0c8284610ecf565b915081905092915050565b7f4e487b7100000000000000000000000000000000000000000000000000000000600052602260045260246000fd5b60006002820490506001821680610f5e57607f821691505b602082108103610f7157610f70610f17565b5b50919050565b60008190508160005260206000209050919050565b60006020601f8301049050919050565b600082821b905092915050565b600060088302610fd97fffffffffffffffffffffffffffffffffffffffffffffffffffffffffffffffff82610f9c565b610fe38683610f9c565b95508019841693508086168417925050509392505050565b6000819050919050565b600061102061101b61101684610b41565b610ffb565b610b41565b9050919050565b6000819050919050565b61103a83611005565b61104e61104682611027565b848454610fa9565b825550505050565b600090565b611063611056565b61106e818484611031565b505050565b5b818110156110925761108760008261105b565b600181019050611074565b5050565b601f8211156110d7576110a881610f77565b6110b184610f8c565b810160208510156110c0578190505b6110d46110cc85610f8c565b830182611073565b50505b505050565b600082821c905092915050565b60006110fa600019846008026110dc565b1980831691505092915050565b600061111383836110e9565b9150826002028217905092915050565b61112c82610ac2565b67ffffffffffffffff8111156111455761114461090d565b5b61114f8254610f46565b61115a828285611096565b600060209050601f83116001811461118d576000841561117b578287015190505b6111858582611107565b8655506111ed565b601f19841661119b86610f77565b60005b828110156111c35784890151825560018201915060208501945060208101905061119e565b868310156111e057848901516111dc601f8916826110e9565b8355505b6001600288020188555050505b505050505050565b600082825260208201905092915050565b600061121182610ac2565b61121b81856111f5565b935061122b818560208601610ade565b611234816108fc565b840191505092915050565b600060208201905081810360008301526112598184611206565b90509291505056fea2646970667358221220ea2ec32416c106b254a69747cae6d2d9be7cac19169b695f54865a16f335076e64736f6c63430008120033",
  "devdoc": {
    "kind": "dev",
    "methods": {},
    "version": 1
  },
  "userdoc": {
    "kind": "user",
    "methods": {},
    "version": 1
  },
  "storageLayout": {
    "storage": [
      {
        "astId": 135,
        "contract": "contracts/Research.sol:Research",
        "label": "profileMapping",
        "offset": 0,
        "slot": "0",
        "type": "t_mapping(t_address,t_struct(Researcher)121_storage)"
      },
      {
        "astId": 140,
        "contract": "contracts/Research.sol:Research",
        "label": "paperMapping",
        "offset": 0,
        "slot": "1",
        "type": "t_mapping(t_string_memory_ptr,t_struct(ResearchPaper)130_storage)"
      }
    ],
    "types": {
      "t_address": {
        "encoding": "inplace",
        "label": "address",
        "numberOfBytes": "20"
      },
      "t_array(t_string_storage)dyn_storage": {
        "base": "t_string_storage",
        "encoding": "dynamic_array",
        "label": "string[]",
        "numberOfBytes": "32"
      },
      "t_mapping(t_address,t_struct(Researcher)121_storage)": {
        "encoding": "mapping",
        "key": "t_address",
        "label": "mapping(address => struct Research.Researcher)",
        "numberOfBytes": "32",
        "value": "t_struct(Researcher)121_storage"
      },
      "t_mapping(t_string_memory_ptr,t_struct(ResearchPaper)130_storage)": {
        "encoding": "mapping",
        "key": "t_string_memory_ptr",
        "label": "mapping(string => struct Research.ResearchPaper)",
        "numberOfBytes": "32",
        "value": "t_struct(ResearchPaper)130_storage"
      },
      "t_string_memory_ptr": {
        "encoding": "bytes",
        "label": "string",
        "numberOfBytes": "32"
      },
      "t_string_storage": {
        "encoding": "bytes",
        "label": "string",
        "numberOfBytes": "32"
      },
      "t_struct(ResearchPaper)130_storage": {
        "encoding": "inplace",
        "label": "struct Research.ResearchPaper",
        "members": [
          {
            "astId": 123,
            "contract": "contracts/Research.sol:Research",
            "label": "theAddress",
            "offset": 0,
            "slot": "0",
            "type": "t_address"
          },
          {
            "astId": 125,
            "contract": "contracts/Research.sol:Research",
            "label": "title",
            "offset": 0,
            "slot": "1",
            "type": "t_string_storage"
          },
          {
            "astId": 127,
            "contract": "contracts/Research.sol:Research",
            "label": "uploadDate",
            "offset": 0,
            "slot": "2",
            "type": "t_uint256"
          },
          {
            "astId": 129,
            "contract": "contracts/Research.sol:Research",
            "label": "paperCid",
            "offset": 0,
            "slot": "3",
            "type": "t_string_storage"
          }
        ],
        "numberOfBytes": "128"
      },
      "t_struct(Researcher)121_storage": {
        "encoding": "inplace",
        "label": "struct Research.Researcher",
        "members": [
          {
            "astId": 115,
            "contract": "contracts/Research.sol:Research",
            "label": "name",
            "offset": 0,
            "slot": "0",
            "type": "t_string_storage"
          },
          {
            "astId": 117,
            "contract": "contracts/Research.sol:Research",
            "label": "joinDate",
            "offset": 0,
            "slot": "1",
            "type": "t_uint256"
          },
          {
            "astId": 120,
            "contract": "contracts/Research.sol:Research",
            "label": "paperCidArray",
            "offset": 0,
            "slot": "2",
            "type": "t_array(t_string_storage)dyn_storage"
          }
        ],
        "numberOfBytes": "96"
      },
      "t_uint256": {
        "encoding": "inplace",
        "label": "uint256",
        "numberOfBytes": "32"
      }
    }
  }
}